:100000000C94A0050C94BD050C94BD050C94112E08
:100010000C94BD050C94BD050C94BD050C94BD0558
:100020000C94BD050C94BD050C94831E0C943F1ECE
:100030000C945E240C94BD050C94BD050C94BD0578
:100040000C94BD050C94BD050C94BD050C94BD0528
:100050000C94BD050C945C1F0C94BD050C94BD055F
:100060000C94BD050C94BD050C94BD050C94BD0508
:100070000C94BD050C94BD050C94BD050C94BD05F8
:100080000C94BD050C94BD050C94BD050C94BD05E8
:100090000C94BD050C94BD050C94BD050C94BD05D8
:1000A0000C94BD050C94BD050C94BD05050109809B
:1000B000A101850319012AB700150126B700950192
:1000C00075108100C0050C0901A101850419012AE0
:1000D000A002150126A002950175108100C005013E
:1000E0000906A1018506050719E029E71500250184
:1000F0009508750181020507190029EF15002501F2
:1001000095F075018102050819012905950575010C
:100110009102950175039101C00660FF0961A1017B
:100120000962150026FF00952075088102096315F4
:100130000026FF00952075089102C005010906A15F
:1001400001050719E029E7150025019508750181CA
:10015000029501750881010507190029FF15002680
:10016000FF0095067508810005081901290515008D
:100170002501950575019102950175039101C00056
:10018000000000000000000000000000000000006F
:10019000000000000000000000000000000000005F
:1001A0000000007E0F00D4FFFFFFC70000007800B2
:1001B000000000000000002A2B28000000000000C2
:1001C0000000000000000000000029000000002CDA
:1001D0001E3420212224342627252E362D37382779
:1001E0001E1F202122232425263333362E37381F85
:1001F0000405060708090A0B0C0D0E0F1011121347
:100200001415161718191A1B1C1D2F3130232D35E4
:100210000405060708090A0B0C0D0E0F1011121326
:100220001415161718191A1B1C1D2F3130354C00C8
:10023000DA0281FFD9F1DB20A4A62EAF00A0C0D343
:100240000000A1C8D30000AED580A81F408D1420A7
:100250000000AE00756E646566696E656400457881
:100260007472610046756E63004E756D202B204ED2
:1002700061760042617365004C617965723A2000D5
:100280004F66662020004F6E202020002000435043
:10029000534C4B3A20000057504D3A20007E2063CB
:1002A000726B6264207E0080818283848586878869
:1002B000898A8B8C8D8E8F9091929394A0A1A2A30A
:1002C000A4A5A6A7A8A9AAABACADAEAFB0B1B2B376
:1002D000B4C0C1C2C3C4C5C6C7C8C9CACBCCCDCEC1
:1002E000CFD0D1D2D3D40000AF0001010101010170
:1002F00001010102020202020202020203030303DD
:1003000003030303040404040404040505050505AC
:10031000060606060607070707070808080809096A
:1003200009090A0A0A0B0B0B0C0C0C0D0D0D0E0E15
:100330000E0F0F0F101011111112121313141415A8
:100340001516161717181819191A1A1B1B1C1D1D1C
:100350001E1E1F2020212222232424252626272872
:1003600029292A2B2C2D2D2E2F30313232333435A2
:10037000363738393A3B3C3D3E3F404142434445A5
:10038000464748494A4C4D4E4F5051535455565884
:10039000595A5B5D5E5F616264656668696B6C6D2E
:1003A0006F7072737577787A7B7D7E8082838587A4
:1003B000888A8C8E8F91939596989A9C9EA0A2A3E2
:1003C000A5A7A9ABADAFB1B3B5B7BABCBEC0C2C4E7
:1003D000C6C9CBCDCFD1D4D6D8DBDDDFE2E4E7E9A7
:1003E000EBEEF0F3F5F8FAFDFF2B0014001A00080D
:1003F0000015001700390004001600070009000A64
:1004000000E1001D001B00060019000500000000AF
:10041000000000E00021522C002A00130012000C02
:100420000018001C004C0033000F000E000D000BE4
:10043000004D0038003700360010001100000000A9
:10044000000000E7002252280029001E001F0020A3
:100450000021002200E20001000100010001000172
:1004600000E10001000100010001002A000000007D
:100470000000000100010001002D002700260025DA
:1004800000240023002E0034006500520030002FAD
:1004900000460031004F00510050003500000000C0
:1004A000000000010023522C043A003B003C003DB8
:1004B000003E003F002B0000000000000000000094
:1004C000000000000000000000000000000000002C
:1004D0000000000100E2000100450044004300422A
:1004E000004100400000000000000000000000008B
:1004F00000000000000000000000000000000000FC
:1005000000000001000100000000000000000000E9
:1005100000000000000000000000000000000000DB
:1005200000000000000000000000000000000000CB
:1005300000000000000000000000000000000000BB
:10054000000000000021782978257823782778207A
:100550007822782A782678247828782B780000006A
:1005600000000000000100000009025B0003010020
:10057000A0FA090400000103010100092111010092
:10058000012244000705810308000109040100025B
:100590000300000009211101000122220007058249
:1005A00003200001070503032000010904020001E4
:1005B00003000000092111010001226D00070584DC
:1005C0000320000112010002000000085346010050
:1005D0000001010200011003520061006E004B0097
:1005E00065006500620000001203520061006E00A9
:1005F00053006100750063006500000004030904F6
:100600000000000000003E5B4F5B3E003E6B4F6B06
:100610003E001C3E7C3E1C00183C7E3C18001C57D3
:100620007D571C001C5E7F5E1C0000183C180000FB
:10063000FFE7C3E7FF00001824180000FFE7DBE72F
:10064000FF0030483A060E00262979292600407F0F
:1006500005050700407F05253F005A3CE73C5A004E
:100660007F3E1C1C0800081C1C3E7F0014227F22B9
:1006700014005F5F005F5F0006097F017F00006676
:1006800089956A0060606060600094A2FFA2940097
:1006900008047E04080010207E20100008082A1C90
:1006A0000800081C2A0808001E10101010000C1E5C
:1006B0000C1E0C0030383E383000060E3E0E060090
:1006C00000000000000000005F00000000070007BD
:1006D0000000147F147F1400242A7F2A12002313A1
:1006E00008646200364956205000000807030000E5
:1006F000001C224100000041221C00002A1C7F1C1B
:100700002A0008083E080800008070300000080831
:1007100008080800000060600000201008040200C3
:100720003E5149453E0000427F4000007249494920
:1007300046002141494D33001814127F100027450F
:10074000454539003C4A494931004121110907001A
:10075000364949493600464949291E00000014001F
:10076000000000403400000000081422410014146E
:100770001414140000412214080002015909060053
:100780003E415D594E007C1211127C007F4949495F
:1007900036003E41414122007F4141413E007F49B8
:1007A000494941007F09090901003E414151730057
:1007B0007F0808087F0000417F4100002040413F42
:1007C00001007F08142241007F40404040007F022A
:1007D0001C027F007F0408107F003E4141413E0023
:1007E0007F09090906003E4151215E007F09192950
:1007F000460026494949320003017F0103003F407A
:1008000040403F001F2040201F003F4038403F0035
:100810006314081463000304780403006159494D0C
:100820004300007F414141000204081020000041C4
:1008300041417F000402010204004040404040006A
:100840000003070800002054547840007F284444E7
:100850003800384444442800384444287F00385441
:100860005454180000087E0902001824241C780043
:100870007F080404780000447D4000002040403D93
:1008800000007F102844000000417F4000007C04ED
:10089000780478007C080404780038444444380024
:1008A0007C1824241800182424187C007C080404D4
:1008B000080048545454240004043F4424003C409D
:1008C00040207C001C2040201C003C4030403C006C
:1008D0004428102844004C9090907C004464544C70
:1008E000440000083641000000007700000000418D
:1008F000360800000201020402003C2623263C00C8
:1009000000000000D8E474389C0C4080080000000F
:1009100000000000E018204080808080808040201F
:1009200010F00000000080000000000000800004C3
:1009300000000000000000000010000000000000A7
:1009400000000000000000000000000000000000A7
:1009500000000002040810103020206040C0800019
:10096000000000000080C060301C0000000040A0BB
:10097000101048A8A8FE8C00006030000000E0F0D5
:10098000F0F0E0ECEEF7F37020007C7C7C7E007EE3
:100990007E7E7F7F7F000080C0E07E5B4F5BFEC07D
:1009A0000000C000DCD7DEDEDED7DC00C0000000C7
:1009B0000000000000000000000000000000000037
:1009C0000000000004008000000100000100400061
:1009D000000400000001060C0818101018080C068E
:1009E00001000000200000000000000000000000E6
:1009F0004000000000000240000000000000200055
:100A000000010000000000008CFE306000000000CB
:100A100000000000000000000000000000000103D2
:100A2000060CFC06030100F88CE0B09010000000FA
:100A30000101020202FF0F000000180E00000F1F4C
:100A40003F7F7F7F7F7F3F1E0C001F1F1F3F003FA8
:100A50003F3F7F7F7F00307B7F7830202030787F62
:100A60003B0003000F7F0F0F0F7F0F0003000000FC
:100A70000000000000000000000000000000000076
:100A8000007E7C7C787040000000000008000000C0
:100A9000000000000000080000000000020000004C
:100AA0000000000000100000000000020000000034
:100AB000001000000000000000000000000000081E
:100AC000000000000000000139010C0000000000DF
:100AD0000000000000000000000000004070180C42
:100AE00006030100000000041F11030501010302B9
:100AF0000206040C087F0100300E03000000000015
:100B000000000000000000000000000000000000E5
:100B100000000000000000000000000000000000D5
:100B200000000000000000000000000000000000C5
:100B300000000000000000000000000000000000B5
:100B400011241FBECFEFDAE0DEBFCDBF12E0A0E080
:100B5000B1E0E4E8F1E602C005900D92AA37B107D2
:100B6000D9F727E0AAE7B2E001C01D92A835B20785
:100B7000E1F70E9485240C9479300C940000482FF2
:100B8000209140059091070557E0291302C080E0AD
:100B9000089530E0529FF001539FF00D1124E85F5B
:100BA000FA4F8181681306C08081481303C0858194
:100BB0008111EECF2F5F3F4F2770E7CFFC01AC01D3
:100BC0004C5F5F4F8FEF91E32191822728E030E067
:100BD00087FF09C0880F892721503109C9F7E41719
:100BE000F50791F70895880FF7CFE8EDF0E08081E1
:100BF0008E7F80831092E2001092DA001092E10062
:100C0000A0EEB0E08C9181608C9380818F7780839F
:100C100019BCA7EDB0E08C918E7F8C9380818F7E84
:100C200080831092D70408952091E4003091E5006C
:100C300095E6A9012091EC00822F817020FF06C06B
:100C40008091E80080FF06C080E008952091E800D0
:100C500022FD1AC08091FD04882389F0853089F037
:100C60008091EB0085FD0FC02091E4003091E500FC
:100C700042175307F9F29150E1F684E0089582E0BB
:100C8000089583E0089581E008958091FF0487FF2F
:100C900013C08091E80082FF06C08091E8008B7746
:100CA0008093E80004C08091FD048111F2CF089583
:100CB0008091FD048823D9F38091E80080FFF8CF6C
:100CC0008091E8008E77ECCF982F9093E900242F45
:100CD000762F50E0891731F07091EC002091ED00F3
:100CE0005091F00021FD07C09F5F973071F780930E
:100CF000E90081E008953091EB003E7F3093EB00F6
:100D00003091ED003D7F3093ED003091EB0031608C
:100D10003093EB007093EC002093ED005093F000C3
:100D20002091EE0027FDE0CF80E00895B0E0A0E044
:100D3000ECE9F6E00C944B2FC8EDD0E088818F7E73
:100D40008883E7EDF0E080818160808384E082BF6A
:100D500081E08093D70488818E7F888302EE10E043
:100D6000F80110821092DA0081EEC82ED12CF60123
:100D7000108288818F7788838881806888838881C2
:100D80008F7D888319BC1092FD041092FE0410928E
:100D9000FC041092FB0490EEE92EF12CF701808107
:100DA0008B7F808388818160888342E060E080E07F
:100DB0000E946406F60180818E7F8083F801808125
:100DC00081608083808188608083F70180818E7F4D
:100DD0008083888180618883CDB7DEB7E8E00C949A
:100DE000672FFC01809105059091060586179707EE
:100DF000A0F06115710529F49091E8009E77909319
:100E0000E80090E06115710551F4911108C08091DE
:100E1000E80082FF34C080E00895BC01F2CF8091E9
:100E2000FD048823C1F18530C1F18091E80083FD84
:100E300030C08091E80082FDEACF8091E80080FF19
:100E4000E1CF8091F3002091F200382F61157105F8
:100E500019F02830310558F091E02830310509F0BB
:100E600090E02091E8002E772093E800CBCF81918D
:100E70008093F100615071092F5F3F4FE7CF809160
:100E8000FD04882341F0853041F08091E80083FF24
:100E9000BECF81E0089582E0089583E0089508952B
:100EA0008091DA04089587E797E79093010880938B
:100EB000000888E19AE00FB6F894A8958093600046
:100EC0000FBE90936000FFCFCF92DF92EF92FF9220
:100ED0002FB7F894C090D104D090D204E090D304FE
:100EE000F090D4042FBFA7019601261B370B480BA7
:100EF000590BCA01B901FF90EF90DF90CF90089590
:100F00002FB7F8946091D1047091D2048091D304EA
:100F10009091D4042FBF089520913D012223C9F060
:100F20002091D50427FF15C0E62FE695E695E695B6
:100F3000EE31D8F4E80FF92FF11D677021E030E0B1
:100F400001C0220F6A95EAF7209582812823228327
:100F50000895FC01329608962191621303C0DF01C7
:100F600011971C92E817F907B9F70895A3E0B0E0CC
:100F7000ECEBF7E00C94512F2091CE043091CF048C
:100F800028173907A1F09093CF048093CE04E09105
:100F9000CC04F091CD04309751F024E029839B8359
:100FA0008A830680F781E02DCE010196099523966C
:100FB000E2E00C946D2FA3E0B0E0E1EEF7E00C94DA
:100FC000512F2091CA043091CB0428173907A1F082
:100FD0009093CB048093CA04E091CC04F091CD04AB
:100FE000309751F023E029839B838A830680F78121
:100FF000E02DCE01019609952396E2E00C946D2F29
:10100000FA01811101C0FB0109950895109227048E
:101010000895E5E4F5E024813AE0231B08F420E09C
:101020002483809126048160809326040895E5E45A
:10103000F5E024813AE0230F08F42FEF2483809118
:10104000260481608093260408959091450593704D
:1010500071F08093460560934705473908F046E9EB
:101060004093480580912604822B8093260408959E
:10107000E5E4F5E0438128E0421B08F440E081818B
:1010800021E0628190E00E9425080895E5E4F5E002
:10109000438128E0420F08F44FEF818121E0628113
:1010A00090E00E9425080895E5E4F5E0628124E1DE
:1010B000621B08F460E0818121E0438190E00E949E
:1010C00025080895E5E4F5E0628124E1620F08F463
:1010D0006FEF818121E0438190E00E94250808950F
:1010E000E5E4F5E0818121E0438162818850990B3C
:1010F0000E9425080895E5E4F5E0818190E021E073
:101100004381628108960E942508089590914505C3
:10111000937061F081110BC094609093450510921B
:101120003C0180912604862B809326040895893003
:1011300010F09062F2CF880F880F982BEECF80913D
:10114000450586958695815009F488E061E00E9406
:101150008608089580914505869586958F5F89302C
:1011600008F081E061E00E948608089580933B01C9
:1011700080914505837080933A010E94F81183E0C5
:1011800080933C010895E42FF0E0EE0FFF1FE85537
:10119000FE4F61A9621B0895E42FF0E0EE0FFF1FE0
:1011A000E852FE4F6081621B0895622F0895E42F7C
:1011B000F0E0EE0FFF1FE852FE4F408134EE439FF8
:1011C000412D1124E82FF0E050E0445E5F4FDA013A
:1011D000A21BB1099D01B7FF03C0319521953109CB
:1011E00093E0220F331F9A95E1F7AF01421B530B97
:1011F0009A0157FD20E0582F259F212D1124822F81
:1012000008950E948C120895FF920F931F93CF931D
:10121000DF93182F062FF42ED0E0C0E02F2D402FA3
:10122000612FCE010E9401092196C633D105B1F785
:10123000CDB7DEB7E5E00C946A2F4095282F429F8A
:10124000412D1124842F0895AF92BF92CF92DF9247
:10125000FF920F931F93CF93DF93362F472FE82FE3
:10126000F0E0E751FD4F71110FC0E4918E2F2E2F4A
:101270006E2F722FDF91CF911F910F91FF90DF9012
:10128000CF90BF90AF900895C72FD0E02491F22E59
:10129000022F10E056E0659FC0011124EFEFF0E04F
:1012A000BF010E942D2F832F90E0880F991F35E5F5
:1012B000369FD001379FB00D11248A1B9B0B982FAE
:1012C000990F980F6F01CC1ADD0AC09ED001C19E04
:1012D000B00DD09EB00D11248B2F499FA001112479
:1012E000452F55276F01C41AD50AC09EA001C19E83
:1012F000500DD09E500D11245F01A91AB108AC9E6B
:101300006001AD9ED00CBC9ED00C1124CD2CDD24F0
:10131000EC19FD09E09FE001E19FD00DF09FD00D99
:101320001124ED2F62307105A1F050F461157105A3
:1013300009F49ECF6130710581F0EB2F852F98CF96
:101340006430710569F080F06630710509F490CF62
:10135000F4CFE22F2B2F8D2F8BCFE22F252F88CF8D
:10136000EB2F822F2D2F84CF2B2F8F2DE52F80CF8A
:1013700080E00895F894E82FE295EF70F0E031A155
:10138000282F2F7081E090E001C0880F2A95EAF79E
:10139000982F9095932391A392A1892B82A378945F
:1013A00008959091D50492FF10C041E0282F247138
:1013B000243009F040E031E0282F2871283009F06E
:1013C00030E0431711F02CE0822793FF10C041E07A
:1013D000282F2471243109F040E031E0282F2871B2
:1013E000283109F030E0431711F02CE082273091CA
:1013F000D60430FF10C051E0282F2171213009F0B0
:1014000050E041E0282F2871283009F040E05417BF
:1014100011F029E0822731FF10C041E0282F21710F
:10142000213109F040E031E0282F2871283109F0FE
:1014300030E0431711F029E0822794FD877E08955C
:1014400082389105B9F1B0F48133910509F47DC07A
:1014500048F48932910509F46DC08A32910509F486
:101460007BC008958533910509F45FC089339105E8
:1014700009F10895833E9105D9F138F4803E910534
:1014800029F1823E910579F10895863E9105D9F1C1
:10149000873E910509F43EC0843E910541F52091B7
:1014A000D60421FF24C08091D50484FD19C087EEA5
:1014B00090E008952091D504237009F05AC020913E
:1014C000D60423FF14C089E290E008952091D5044A
:1014D00020FD38C03091D60430FF09C024FF43C03E
:1014E00090E080E008952091D50422FDF7CF089583
:1014F0002091D50422FD3AC03091D60430FD39C088
:1015000024FFF5CFEDCF2091D50423FFF0CF24FDAC
:10151000E7CFCDCF2091D50423FD2EC03091D60446
:1015200031FFEECF84EE90E008952091D50425FFA1
:10153000DECFC9CF2091D50425FD21C02091D6044E
:1015400023FFD5CF89E390E0D2CF2091D50426FFA9
:10155000CECF8AE290E008952091D50426FFC7CF30
:1015600081E390E0089583EE90E0089582EE90E0AC
:10157000089580EE90E0089586EE90E0089585E36A
:1015800090E008951F93CF93DF930E94200AEC010F
:10159000C11580E5D807F0F5C11580E4D80708F03B
:1015A0009CC0C03ED10520F5CD3CD10508F082C0DD
:1015B000C83AD10578F4C53AD10508F073C0C130F6
:1015C000D10519F1209709F1C430D105F0F4D0E02C
:1015D000C0E01BC0C33CD105D0F7C85AD0E0CC0F47
:1015E000DD1FC95BDE4F0990D881C02DD4640DC0CA
:1015F000C11580E2D80708F0D1C0C11581E0D80735
:1016000008F05AC0C83ED10510F7CE01DF91CF9146
:101610001F910895C03682E5D80718F5C03482E5D9
:10162000D80708F06BC0C03282E5D80708F05FC069
:10163000C11582E5D80708F497C02C2F269526956A
:1016400080E2289F900111248C2F8370C1E0D0E0AC
:1016500002C0CC0FDD1F8A95E2F7C22BD32BDD68C9
:10166000D4CFC03A82E5D80760F4C03882E5D80705
:1016700008F459C0CF71D0E0DC2FCC27C46FD06AFA
:10168000C4CFC03C82E5D80708F462C0C03E82E502
:10169000D80708F09CCFDC2FCC27CC27DF71C06F98
:1016A000D06AB3CFC55AD0E0CC5BDE4FC881D0E062
:1016B000D064ABCFD065A9CF8D2F0E94D109182F50
:1016C000CE0199270E94200AC12FD0E0DC2FCC2721
:1016D000CC27DF71C82BD92B98CFCE0199270E9438
:1016E000200ACC27DF70C82BD92BD06A8ECFCF71C0
:1016F000D0E0DC2FCC27C16FD06A87CF2C2F269566
:101700002695277080E2289F900111248C2F8370EA
:10171000C1E0D0E002C0CC0FDD1F8A95E2F7C22BFA
:10172000D32BDC6872CF2C2F26952695277080E26C
:10173000289F900111248C2F8370C1E0D0E002C05B
:10174000CC0FDD1F8A95E2F7C22BD32BDA685DCF71
:101750008C2F8F710E94D109C82FD0E0DC2FCC27AD
:10176000CC27DF71D06251CF8C2F8F710E94D109AD
:1017700055E0D695C7955A95E1F7CF70D0E0DC2FAC
:10178000CC27282F30E084FF05C044E0220F331F10
:101790004A95E1F7C22BD32BD06937CF8D2F8F71AC
:1017A0000E94D109182FCE0199270E94200AC12F2B
:1017B000D0E0DC2FCC27CC27DF71C82BD92BD2CFA0
:1017C00080959091D80498239093D804089580919F
:1017D000400590910705981301C008958F5F8770A9
:1017E000FACF292F983078F5863068F590E036E00A
:1017F000239F800D911D1124682F677023E096951B
:1018000087952A95E1F7FC01EE0FFF1FE80FF91FFE
:10181000E356FD4F50E040E080E0219130E0062E9D
:1018200002C0369527950A94E2F721703327042EDB
:1018300001C0220F0A94EAF7822B4F5F5F4F4330BB
:10184000510559F7089580E00895292F983098F5AB
:10185000863088F590E036E0239F800D911D11249D
:10186000282F277041E001C0440F2A95EAF723E0B2
:10187000969587952A95E1F7FC01EE0FFF1FE80F7B
:10188000F91FE356FD4F30E020E070E05191DF0199
:101890001197CB01022E02C0969587950A94E2F724
:1018A000817081958527842385278C932F5F3F4FF7
:1018B0002330310559F70895809366030895909178
:1018C000660321E030E0F90101C0EE0F8A95EAF7E6
:1018D000D90102C0AA0FBB1F6A95E2F7EA2B01C02B
:1018E000220F4A95EAF7892F8E23E81305C0292B8A
:1018F000822F0E945C0C089520952923F9CF21E0C6
:1019000030E001C0220F8A95EAF7209580916603A6
:1019100082230E945C0C08959091B60280958923E1
:101920008093B602282F277069F4891759F0909197
:10193000D60492FF07C08695869586950E947F0CF7
:101940001092B602089521E030E001C0220F8A957E
:10195000EAF780916603822B0E945C0C08958093C5
:10196000D9020895982F92959F7011F0892F94E0D5
:10197000282F2695269511F09E5F822F869509F0D7
:101980009F5F892F0895CF93DF93682F81E06A309E
:1019900019F06D3031F480E00E94510DDF91CF914C
:1019A0000895809156079091570726E0FC01A0E525
:1019B000B7E001900D922A95E1F7603E08F458C017
:1019C00026E0FC0111922A95E9F7C0915607D091C3
:1019D000570746E050E0BE0180E597E00E941130D5
:1019E0009E0120553540892B41F1C90145E096956E
:1019F00087954A95E1F741E050E0BA0102C0660FD1
:101A0000771F8A95E2F7CB0160914E0570914F05E3
:101A1000862B972BB9016B5F7F4FE5E07695679535
:101A2000EA95E1F702C0440F551F6A95E2F7842B4F
:101A3000952B90934F0580934E052A5F3F4F409121
:101A40004D05642F70E0C9010E942D2F481B4630C0
:101A500010F4240F311D211572E0370710F030E02B
:101A600020E0205B3A4F309357072093560796CFDC
:101A7000F6E06F9FB001112460507A4F46E050E0CD
:101A80000E940830A2CFCF93DF93EC01FE01849136
:101A9000811103C0DF91CF9108950E94C30C21965C
:101AA000F5CFCF93382FE0915607F0915707E055C7
:101AB000F54020914D05622F70E0CF010E942D2F3F
:101AC000281B822F332361F066E00E94782FC82FF5
:101AD000C15010F4CF91089580E20E94C30CF8CF5A
:101AE0009F01280F311D2115324018F080E0F0E0F1
:101AF000E0E08E0F9F2F911D805B9A4F90935707C8
:101B000080935607E7CF8091D8049091D802892B13
:101B100080937C029091D7029923A1F0892B809326
:101B20007C0280913D018823E1F18091D50487FFFB
:101B300038C08EE1EEE7F2E090E08150A0F591111F
:101B40001092D70240E250E067EB72E08CE792E03F
:101B50000E941130892B21F180E2ECE7F2E0A7EB43
:101B6000B2E001900D928A95E1F7E091CC04F091FA
:101B7000CD043097A9F080913D01882359F08091E0
:101B8000D50487FF07C080917C0280937D0286E0A8
:101B900080937C020280F381E02D8CE792E009952E
:101BA000089586E0C7CF2191222339F29F5FC5CFE8
:101BB00080913D01EEE7F2E08823B1F08091D504F9
:101BC00087FF12C08EE1DF011D928A95E9F790E050
:101BD00080E00E94DB0790E080E00E94B607109250
:101BE000D8020E94830D089586E0EDCFAAE2B0E00E
:101BF000ECEFFDE00C94502F8FEF94E02091F1007A
:101C0000DC012D93CD01B5E087309B07B9F78091BA
:101C10000005833009F472C0B8F4813009F449C07A
:101C2000823009F4B5C08091E80083FF8DC28091B5
:101C3000FF04909100059A3008F086C2E92FF0E089
:101C4000E558FF4C0C94D92F8A3009F490C08B30A2
:101C500009F471C0893039F78091FF04813219F796
:101C60008091030590910405009711F00297D9F631
:101C70008091E800877F8093E8008091E80082FFF0
:101C800038C09091F3008091F200029731F4809176
:101C9000F100813011F0863021F48091F1008093C1
:101CA000DA048091E8008B778093E8000E94450673
:101CB000BACF8091FF04813A09F0B5CF8091E80056
:101CC000877F8093E8008091030590910405892B1C
:101CD00061F460E28BED94E070E00E94F106809187
:101CE000E8008B778093E8009ECF60E090E080E092
:101CF000F3CF8091FD048111C0CF95CF8091FF0477
:101D0000813A09F090CF8091030590910405892BC9
:101D100009F089CF8091E800877F8093E800809167
:101D2000E80080FFFCCF80913D018093F10080911D
:101D3000E8008E77B9CF8091FF04813209F073CF2C
:101D40008091030590910405892B09F06CCF809157
:101D5000E800877F8093E8000E9445068091010596
:101D600080933D011092D8040E94D80D5CCF8091E1
:101D7000FF04813209F057CF8091E800877F80937C
:101D8000E8000E944506809102058093D9044BCF5C
:101D90008091FF04813A09F046CF8091E800877F67
:101DA0008093E8008091E80080FFFCCF8091D90407
:101DB000BCCF803899F0823809F0C6C18091030504
:101DC0008F70873008F0C0C18093E9008091EB00EC
:101DD00085FB882780F91092E90006C08091FB04FA
:101DE0009091FC04911182609091E800977F90930C
:101DF000E8008093F1001092F1008091E8008E7766
:101E00009FC1882309F48DC1823009F09DC1809162
:101E10000105811190C1809103058F702FEF280F6C
:101E2000263008F091C18093E9002091EB0020FF5B
:101E300082C1933031F48091EB0080628093EB009B
:101E40007AC19091EB0090619093EB0021E030E03B
:101E500001C0220F8A95EAF72093EA001092EA0067
:101E60008091EB008860EACF81116EC1109101056D
:101E70001F778091E3008078812B8093E30080912D
:101E8000E800877F8093E8000E9445068091E80083
:101E900080FFFCCF8091E30080688093E30082E0C4
:101EA000111183E08093FD044FC18058823008F007
:101EB0004BC120910105309102052C3DE3E03E0726
:101EC000A1F583E08A838AE289834FB7F894DE0123
:101ED000139620E03EE051E2E32FF0E050935700EC
:101EE000E49120FF03C0E295EF703F5FEF708E2F0B
:101EF00090E0EA30C0F0C7968D939D932F5F243118
:101F000059F74FBF8091E800877F8093E8006AE22D
:101F100070E0CE0101960E94F1068091E8008B7777
:101F20008093E80011C1C096E7CF8091030590919E
:101F30000405432F55274330510509F44AC078F56D
:101F40004130510509F47AC08BE590E0E9E6F5E00F
:101F50004230510509F0F8C02091E800277F209316
:101F6000E80020910505309106058217930708F4D3
:101F70009C0140E02115310509F065C0411163C0A5
:101F80008091E80082FDC9CF8091FD04882329F269
:101F9000853019F28091E80083FFF2CFBECF413245
:101FA000510509F43CC04232510509F0CDC08330DF
:101FB000910508F0C9C0FC01EE0FFF1FE456FE4F6B
:101FC0000190F081E02D87569E4FDC018C9190E0CE
:101FD0001AC0332721303105D1F02115310561F0C8
:101FE0002230310509F0B0C0E6EDF5E0E4918E2F26
:101FF00090E0E6EDF5E007C0ECEFF5E0E4918E2F20
:1020000090E0ECEFF5E0009709F49EC0A5CFE8EE74
:10201000F5E0E4918E2F90E0E8EEF5E0F4CF833028
:10202000910508F091C0880F991FFC01EE55FE4FF5
:102030000190F081E02D89E090E08ECF82E190E088
:10204000E4ECF5E089CF8091FD04882309F465CFA5
:10205000853009F462CF8091E80083FD5ECF8091E6
:10206000E80082FD8DCF8091E80080FF83CF9091C2
:10207000F3008091F2002115310519F088309105A7
:1020800050F041E0089709F040E08091E8008E7739
:102090008093E8006FCF44914093F1003196215036
:1020A00031090196E8CF803809F04EC08091E800F0
:1020B000877F8093E8008091FE048093F1009DCE9D
:1020C000811142C0109101051230F0F58091E800B5
:1020D000877F8093E8001093FE040E944506112339
:1020E00011F084E005C08091E30087FDFACF81E024
:1020F0008093FD0442E061EC81E00E94640642E2CC
:1021000061EC84E00E94640642E261EC82E00E949D
:10211000640642E260EC83E00E9464068091FD0464
:1021200013C080910105813079F481E0933009F08A
:1021300080E08093FC041092E9008091E800877FA2
:102140008093E8000E9445068091E80083FF0AC062
:102150008091E800877F8093E8008091EB008062A7
:102160008093EB00AA96E3E00C946C2F882321F077
:102170000E94E00B0E94830D0895882339F090910E
:10218000D804982B9093D8040E94830D0895882337
:1021900051F19CEF980F913A40F4682F8CE792E050
:1021A0000E948C070E94830D089590E2980F98304A
:1021B00050F4877091E001C0990F8A95EAF7892F52
:1021C0000E94E00BEFCF9BE5980F933028F490E04E
:1021D00080E00E94DB070895885A8B3120F490E05C
:1021E00080E00E94B6070895CF93C82F882309F492
:1021F00045C08CEF8C0F813A08F068C080913D019A
:102200008823F1F18091D50487FF3AC0EC2FE69541
:10221000E695E695F0E0E458FD4F828190E04C2F82
:10222000477021E030E002C0220F331F4A95E2F7E9
:1022300082239323892B61F06C2F8CE792E00E941C
:102240008C070E94830D26C08091D50487FF26C08D
:10225000AC2FA695A695A695B0E0A458BD4FC77023
:1022600021E030E001C0220FCA95EAF712968C9166
:102270001297822B12968C930E94830DCF91089512
:10228000EEE7F2E084E892E02191C217A9F28E17FE
:102290009F07D1F780913D018111D6CFAEE7B2E023
:1022A000EFEF80E09D91C91739F3EF3F19F49111D9
:1022B00001C0E82F8F5F8630A9F7EF3FE9F20E2EBD
:1022C000000CFF0BE458FD4FC283D6CF80E28C0F89
:1022D000883068F4C77021E030E001C0220FCA9551
:1022E000EAF78091D804822B8093D804C5CFEBE520
:1022F000EC0FE33040F4F0E0EC5BFE4F808190E0C7
:102300000E94DB07BBCFC85ACB3108F0B7CFEC2F08
:10231000F0E0EE0FFF1FE95BFE4F808191810E948C
:10232000B607ACCF0F931F93CF93DF938B01EA01D6
:102330009091FD04943061F58093E9008FEF9091C6
:10234000E800815095FD06C095ED9A95F1F70000E3
:102350008111F5CF8091E80085FF1AC00E94140614
:10236000811111C08091E80085FD06C08091E800D0
:102370008E778093E800F2CFF80181918F018093EE
:10238000F100219779F78091E8008E778093E8003B
:10239000DF91CF911F910F91089543E050E0BC0170
:1023A00084E00E9492110895CF93DF93EC01809115
:1023B0003D01811111C048E050E0BE0181E00E9462
:1023C000921180E2FE01ABEDB4E001900D928A958E
:1023D000E1F7DF91CF9108958091D50487FF05C083
:1023E00040E284E050E0BE01EACF48E081E0FACF6D
:1023F00080912704882341F1539A3BB1377F2BB159
:1024000028604FB7F89488E294E0FC015191CF0125
:1024100068E02BB9000000C057FF3BB9550F000022
:1024200000C000C000C03BB900C06A9591F7F4E05D
:102430008A3C9F0751F74FBF8FE594E00197F1F772
:1024400000C00000109227040895B0E0A0E0EBE285
:10245000F2E10C94492F7C015B016A018091110328
:1024600001E010E08A3010F40AE010E0C1E0D0E0B2
:10247000B501C701F6010995811104C021960C1719
:102480001D072CF4CDB7DEB7EAE00C94652FCC9F86
:102490009001CD9F300D300D112490E080E045E398
:1024A0004A95F1F70000019682179307C1F7E0CF34
:1024B0008091E602811110C08091D80080618093E4
:1024C000D8008AE18A95F1F700C08091D90080FF99
:1024D0000AC081E08093E60281E09091E6029130AB
:1024E00009F080E0089582E08093E6020E94F505FD
:1024F0001092FD04F1CF0E945812882359F0E09108
:10250000CC04F091CD04309729F00190F081E02DBA
:102510000995089580E00895FF920F931F93CF933C
:10252000DF93EC01F62E042F122F0E945812811116
:1025300023C0CB31D1051CF16B97FE01EE0FFF1FBD
:10254000DF01AC0FBD1FA85DBB4F11968C91119799
:102550008F1107C08C91801304C012968C91811743
:1025600071F081E080932704EC0FFD1FE85DFB4FC5
:10257000F1820083128303C0CB31D105F4F2CDB7D1
:10258000DEB7E5E00C946A2FCF93C82F0E94581253
:10259000882329F081E0CB3128F080E003C081E07E
:1025A000C633D8F7CF910895EF92FF920F931F9300
:1025B000CF93DF937C01C0913E018BE0C89FC02D7B
:1025C00011241BE01C0F173308F016E30E94581269
:1025D000882319F01C3108F01BE10E945812811168
:1025E00003C0CB3108F4CBE13091490536953695DF
:1025F00021E0320F08F43FEF409141055091420530
:1026000090E080E0439F812D539F800D911D112408
:10261000082FD0E0C11740F0812F0E94C412CDB71F
:10262000DEB7E6E00C94692FFE01EC5BFD4F808184
:1026300090913F01892391F0609146057091470583
:1026400080914805202F4C2FF70109950E942409FD
:10265000462F282F672FCE010E9401092196DACF3D
:102660000F931F930E945812882329F00E9480071D
:102670001F910F9108950E948007009112031091FD
:1026800013032091140330911503600F711F821FF3
:10269000931FEECF1F93CF93DF93182FEB010E9470
:1026A000F410209739F4812F0E94C710DF91CF9149
:1026B0001F9108958FE99FE00197F1F700C0000096
:1026C0002197EFCF1092D8040E94D80D2FEF84E30A
:1026D0009CE0215080409040E1F700C0000088E17C
:1026E0009AE00FB6F894A895809360000FBE90937F
:1026F0006000FFCFCF93DF93C9EAD1E060E0CE0165
:102700000E9455302196C11584E0D807B9F7DF91B2
:10271000CF9108951F93CF93DF93122F8430E0F46D
:102720006830D0F44630C0F4C42FD0E0CC0FDD1FA9
:102730009CE0699FC00DD11D112490E6899FC00DBA
:10274000D11D1124632FCE0189960E945530612F2F
:10275000CE018A960E945530DF91CF911F91089546
:10276000AF92BF92CF92DF92EF92FF921F93CF93DF
:10277000DF9389EEC82E83E0D82ED0E07601C0E04A
:1027800014C0F50125913491412F6C2F8D2F0E949B
:102790008A1382E0A80EB11C1F5F163091F78CE0FF
:1027A000E80EF11CCF5FC83019F0570110E0E9CFF7
:1027B000DF5F80E6C80ED11CD43001F7DF91CF91E6
:1027C0001F91FF90EF90DF90CF90BF90AF90089552
:1027D000CF93C82F6FEF811163E285E290E00E94F2
:1027E00055306FEFC11169E086E290E00E945530EC
:1027F0006FEFC11169E287E290E00E945530CF91FE
:10280000089580E00E94E81360E088E290E00E9472
:1028100055300E94B0130E947A1381E00E94E813A1
:1028200008950F931F93CF93DF93843030F5683072
:1028300020F5463010F5C42FD0E0CC0FDD1F2CE082
:10284000629FC00DD11D112430E6839FC00DD11DA4
:102850001124CE0189960E943730082F10E0102FE6
:102860000027CE018A960E9437309801282BC90193
:10287000DF91CF911F910F91089590E080E0F8CF04
:10288000462F783040F4663030F4843020F4672FDF
:102890000E941114089590E080E00895CF92DF9295
:1028A000FF920F931F93CF93DF936C010091660308
:1028B0008091D902082BC3E0D0E010E0FC2EC801C3
:1028C0000C2E02C0959587950A94E2F780FD0CC006
:1028D0002197A0F7F12C8F2DDF91CF911F910F91B0
:1028E000FF90DF90CF900895B6018C2F0E94401486
:1028F0000E94C20A019761F3EECFCF93DF93EC0100
:102900000E944E14BE010E9440140E94C20ADF9130
:10291000CF910895FC0124812223C1F0808191810F
:102920000E947D1492959F70963091F058F4925FBA
:102930009F70923058F4803F19F030F4883E30F4A4
:1029400081E008959A5FF4CF843FD1F380E0089549
:10295000883EB0F3813FD1F7F3CFA6E0B0E0E3EBE0
:10296000F4E10C94502F49835A8349815A81992369
:10297000A1F0222391F0CA010E944E14182F682F53
:1029800089819A810E94250C69817A81812F0E9418
:1029900040142696E3E00C946C2FCA010E94F10BC0
:1029A000182FF2CF85E290E00E943730833289F40D
:1029B00086E290E00E943730893059F487E290E057
:1029C0000E94373091E0893209F090E0892F8170C0
:1029D000089580E0FCCFB0E0A0E0E1EFF4E10C94DA
:1029E0004B2F6C017B0164E670E088E70E948B2C22
:1029F0008C01E601EC0CFD1C17FD0BC0FE0184915F
:102A000064E670E00E94F72C8C012196CE15DF055C
:102A100099F70E946D2D81E00115110509F080E004
:102A2000CDB7DEB7E8E00C94672F48E050E068E1EE
:102A300070E085E495E00E944530109226040895E8
:102A4000E5E4F5E085E180838091410190914201C8
:102A5000A091430181839283A3838FE784838FEFC7
:102A600085830E94151508959091D60492FB222724
:102A700020F9281779F080FB92F99093D6046091A1
:102A8000D5047091D60484E090E00E94733082E017
:102A90000E948C0C0895A8E0B0E0E1E5F5E10C940B
:102AA000432F8C01DC0114968C911497882309F430
:102AB000ECC021E04C9111965C91119712966C91AB
:102AC000129713967C91139715969C910E94AD14C2
:102AD0009C01F8014581442309F471C49A9581153C
:102AE0009F4408F083C0C9019927BC016450710953
:102AF0006432710518F08B970E9780F4E0912F03E4
:102B0000F0E0EE0FFF1FEC5CFC4F808191818F3F66
:102B10005FE7950719F0019691838083C901975764
:102B20008038910508F059C4F22E8FE0821708F41E
:102B30009CC08FEF93E00E943730811196C069EA04
:102B4000A62EBB24B394F1105AC0FE01339686E042
:102B5000DF011D928A95E9F75AE0452E7501BFEF16
:102B6000EB1AFB0AC5010E94373089831A82882339
:102B700009F47BC0813009F08CC06501E2E0CE0E23
:102B8000D11CC7010E9437308A83882309F46DC0A5
:102B90009FEF980F933008F040C0F3E0AF0EB11CE8
:102BA000C6010E9437308B83882309F45EC01C82E3
:102BB000CE0101967C01D7012C91222379F221309C
:102BC00009F0A7C011969C91119712968C919130A3
:102BD00009F061C0B2E0EB0EF11C70E060E08933F7
:102BE00011F460E570E00E944A135CC090E080E060
:102BF0002F3F310511F008F078CFC90176CFA1142D
:102C000094E0B90691F1C5010E943730811101C0ED
:102C1000FA94AFEFAA1ABA0A96CF5601843041F659
:102C200042E0E42EF12C56012FEFA21AB20AC6019F
:102C30000E943730E1E0F0E0EC0FFD1FEE0DFF1DCC
:102C40008083882391F08C3741F4E2E0F0E0EC0FD0
:102C5000FD1FEE0DFF1D1082ABCF3FEFE31AF30A0D
:102C6000650157E0E516F104F1F68091B602877030
:102C700061F0D80115968C91882339F08091D604A3
:102C800082FF03C082E00E948C0C2896E0E10C9445
:102C90005F2F57018DCF923049F4E2E0EE0EF11C28
:102CA0000E94F410AFEFEA1AFA0A85CF933031F49C
:102CB000F2E0EF0EF11C0E94C710F4CF943021F027
:102CC0002FEFE21AF20AEECF32E0E30EF11C30E011
:102CD00020E0B7016F5F7F4FD70111964C91805371
:102CE000990B8A30910550F021503109D8F2EFE963
:102CF000FFE03197F1F700C00000F6CF429EF001EF
:102D0000439EF00D11249C012E0F3F1F842F7B0149
:102D1000E0CFE22FF0E0E155FE4F5490822F8695F0
:102D20008695869590E0FC01E156FE4F64902770F1
:102D3000712C022E02C0759467940A94E2F731E078
:102D400063227724FC01E157FE4F8490912C022EE0
:102D500002C0959487940A94E2F751E08522992461
:102D6000FC01E158FE4FC490D12C02C0D594C79409
:102D70002A95E2F781E0C822DD246114710419F07C
:102D800081EE0E94F4108114910419F086EE0E94E5
:102D9000F41099E370E060E0591202C060E570E061
:102DA000852D0E944A138114910419F086EE0E9429
:102DB000C7106114710419F081EE0E94C710C1148C
:102DC000D10409F46FCF70E060E08CE20CCF809109
:102DD000450591E089278093450510923C0180913B
:102DE000260481608093260440CF4FE958E06AEAC8
:102DF00078E00E94000839CF4AEA58E06FE978E0AD
:102E0000F8CF40E758E06BE778E0F3CF4BE758E0C6
:102E100060E778E0EECF44E558E062E678E0E9CF9D
:102E200042E658E064E578E0E4CF48E358E066E441
:102E300078E0DFCF46E458E068E378E0DACF49E0B5
:102E400058E067E178E0D5CF47E158E069E078E005
:102E5000D0CF61E081E00E94860807CF61E082E088
:102E6000FACF61E085E0F7CF2737BCE73B0709F4ED
:102E700058C028373C4709F458C0F8018581E080E4
:102E8000F180882309F495C0C7010E944E14D82E02
:102E9000682FC7010E94250CB7018D2D0E94401498
:102EA0000E94C20A7C01882ED8011596AC90159715
:102EB00016969C9092943FE093228091B602877080
:102EC000F1F0CA2CAA20E1F08F2D807F803451F0E0
:102ED00080E28E0D883098F0911004C08F2D807E96
:102EE000803269F08091D60482FF09C082E00E949E
:102EF0008C0C8091B6028770CC24C3948111C12CB4
:102F0000BF2CB2942FE0B222BBE0BB1508F4B9C0CD
:102F1000EB2DF0E0EB57FF4C0C94D92F81E04111E1
:102F200067C281E00E947F0C65C282E0FBCF442330
:102F300009F4A3CF2330FCE73F0741F150F42115FA
:102F40008CE73807A1F021303C4709F096CF0E946A
:102F500062132B35ACE73A0751F12C35BCE73B0740
:102F6000E1F02A353C4709F088CF81E01DC010927E
:102F7000D8040E94D80DFFEF24E33CE0F15020403C
:102F80003040E1F700C000000E9453076FEF7FEF71
:102F900090E080E00E947330DACF8091D60482FB0B
:102FA000882780F991E089270E94341566CF80E058
:102FB000FBCFC7010E94F10BD82E6ECFEF2DEF7023
:102FC000DE2E8F2D807F19F0D29490EFD922AA2087
:102FD000B9F0DD2069F080E28E0D883010F08110AC
:102FE00009C08091D804D82AD092D8040E94830DB9
:102FF0008E2D45C08091D802D82AD092D802F6CF23
:103000008E2D0E94C710DD20E1F180E28E0D883008
:1030100010F0811004C08D2D0E94E00B06C0D094EA
:103020008091D802D822D092D8020E94830D29C064
:10303000FF2DFF70DF2E8F2D807F803219F0D2940C
:1030400080EFD822882059F021E0821609F481C04F
:10305000AA2009F48DC0992009F44FC0C9CF8091EE
:10306000D60482FD46C0AA20F1F1DD2039F080911E
:10307000D804D82AD092D8040E94830D80E00E9400
:10308000F410AB2DA850BB0B149710F40E947B12C8
:10309000CC20A9F08091B60280FD11C0F801158204
:1030A0008695869586950E94A30CC8010E944B15B3
:1030B0008091B6028695869586950E947F0C20E0C9
:1030C000D8014C9111965C91119712966C911297C0
:1030D00013967C91139714968C91149715969C9146
:1030E0000E94AD14D2CD80E00E94C710DD2049F2CD
:1030F00092CFAA20A1F0911004C08D2D0E94BD1086
:10310000C0CF31E09312BDCF8091D7029D2D98237F
:10311000D91609F4B6CFD82AD092D702B2CF9110DF
:10312000B0CF8D2D0E94B6109091D7028D2D89239E
:1031300029F08D2D809589238093D70280919C0260
:103140009D2D982309F49DCFD094D822D0929C0233
:1031500098CFAA2029F055E0591508F492CFCDCF89
:1031600084E0891508F48DCF8D2D0E94B61089CF8B
:103170009920D1F399E3891209C0AFEFB7EEE3E0EC
:10318000A150B040E040E1F700C000008E2D0E9449
:10319000C71077CF8F2D86958695837061F081302B
:1031A00009F06FCFC7019370A11002C080E090E0DA
:1031B0000E94B60766CFC7019370A11002C080E0DD
:1031C00090E00E94DB075DCF8F2D837091F5A110F9
:1031D00058CF4E2D429546954770440F440F8E2D83
:1031E0008F70042E01C0880F0A94EAF72E2D2071EB
:1031F000E4FE07C02FE030E001C0220F4A95EAF755
:1032000020953F2D369536953370323069F050F465
:103210004091D902313029F0822B84230E94AF0CD7
:1032200030CF842B822BFACF282B8091D902822792
:10323000F5CF8695AA2011F08F2D8170882309F48F
:1032400020CF4E2D429546954770440F440F8E2D4A
:103250008F70042E01C0880F0A94EAF72E2D20717A
:10326000E4FE07C02FE030E001C0220F4A95EAF7E4
:1032700020953F2D369536953370323069F050F4F5
:1032800040916603313029F0822B84230E945C0C2C
:10329000F8CE842B822BFACF282B809166038227CD
:1032A000F5CFFF2DFF70FF2EAA2029F08F2F0E944F
:1032B000A30C8E2D23CF8E2D0E94B6108F2D0E9431
:1032C0007F0CDFCE8E2D22EF8216B1F1281570F023
:1032D00030EF8316D1F051EF851691F0AA2009F452
:1032E0005EC0911085CE8F2D8F712AC093EF891605
:1032F00051F1A4EF8A12F2CF8091D60482FD2FC043
:103300008F2D8F71AA20D9F21BC0AA2081F0B4E0C2
:10331000B91508F4B6CE2F2D2F7181E090E001C0D1
:10332000880F2A95EAF7909166038927AFCFE5E0E9
:10333000E91508F4A6CEEFCF8F2D8F71A110BFCF66
:103340000E94A30C9ECE80E0AA2009F49FCF9F2D5F
:103350009F7181E001C0880F9A95EAF797CFAA2064
:1033600099F0FF2DFF71FF2E8F2F0E94A30C8091EB
:10337000D60482FF07C028E0F29EC00111248360BA
:103380008093B6028F2DDCCF81E00E948C0C31E05F
:10339000391508F076CE82E00E948C0C72CE99200E
:1033A00059F0893309F0F2CE5FEF87EE93E0515088
:1033B00080409040E1F7E8CE8F2D8F7180CF8091D3
:1033C000D8048272F901E052F847E531F10508F0BE
:1033D0004BCDEF56FF4C0C94D92F2737BCE73B075A
:1033E00009F49CCD2837ECE73E0709F0A0CD82E038
:1033F0000E94A30C43E062E081E00E945F0C35CCA8
:10340000CF93DF938091B502807F09F04DC080910A
:10341000B402882309F448C0E091400550910705A3
:10342000C091B002D091AF026091B1027091B2022E
:1034300047E05E17C9F18E2F90E0E49FF001112460
:10344000E85FFA4F2481222391F1489FF001499FC0
:10345000F00D1124DF01A85FBA4F11962C9111973E
:103460002C1325C02C912D1322C015962C91159745
:1034700021111DC012962D913C91261B370B283C23
:103480003105A8F48091B5028F7080618093B502F8
:10349000E25FFA4F80818F70806180838FEA92E0D3
:1034A0000E944B150E94E70BDF91CF910895FC011C
:1034B0003196E770BECFA4E1B0E0E1E6FAE10C940A
:1034C000472F8C0186E0F801DE011F9601900D92D6
:1034D0008A95E1F7F8018481E5809FEAA92E92E0C0
:1034E000B92E9091B302911128C0882319F1EE20D2
:1034F000F1F0C8010E948A14F82E8823C1F087E0F9
:10350000F801D50101900D928A95E1F78091B302FF
:10351000813031F48091AF029091B0020E947D140D
:103520000E94001A8F2D6496ECE00C94632FC80162
:103530000E944B15FF24F394F5CFD080C180828088
:103540009380F090B4022091B1023091B202A401B4
:10355000421B530BFF2009F4D9C0483C510508F029
:1035600092C08823F9F29091B0028091B502282F81
:10357000207F09F056C0C91214C09091AF02D91231
:1035800010C0E11048C08F7080618093B5028FEA4F
:1035900092E00E944B158091B502F8018683F12CD0
:1035A000C1CFE11038C06C2D8D2D0E94BF056C2D50
:1035B0008D2D0E94BF05E82E8111F1CFDF86C88ACC
:1035C0008F8598890E947D14292F22952F70243091
:1035D00058F49F70223088F0992399F0F801968171
:1035E000907F79F4FE2C9ECF2A5F2F70223068F0F6
:1035F000C8010E944B15EF2CF5CF992311F08823B9
:1036000089F3805E883070F3F3CF803F58F3815F99
:10361000833070F7E7CF8091B50281608093B50267
:10362000BECFC91207C09091AF02D91203C0EE20DD
:1036300009F48DC0C8010E948A14882309F477CF49
:10364000EE2009F474CF8091B502803288F0209189
:10365000AF023091B002398728879B868A86909185
:10366000B3029C871D868E87CE0108960E944B155B
:1036700087E0F801AFEAB2E001900D928A95E1F798
:103680000E94001A57CF9091B502292F207F51F444
:103690008FEA92E00E944B1587E0F50111928A951E
:1036A000E9F77DCF882309F43DCF8091B0028C11DA
:1036B00010C08091AF02D8120CC0E1100AC09683EE
:1036C000C8010E944B1587E0F50111928A95E9F730
:1036D00029CFC8010E948A14882309F428CFEE203C
:1036E00009F425CF8091B502803210F22091AF020B
:1036F0003091B0023A8329839C828B829091B302ED
:103700009D831E828F83CE010196B0CF483C510528
:10371000D0F6882309F40ECFFE2CEE2009F407CF53
:103720008091B0028C1120C08091AF02D8121CC0D1
:103730008091B50280FD0FC0982F907F61F0868345
:10374000903F31F0982F907F905F8F70892B868308
:10375000C8010E944B1587E0F801AFEAB2E0019082
:103760000D928A95E1F7DECEC8010E948A1481117C
:103770007FCF8091B50281608093B502C8010E941D
:103780004B15D0CEABE1B0E0E8ECFBE10C944F2F51
:103790004E8B5F8B688F798F8A8F9B8F192F91113A
:1037A0001092D8021D8A86E0FE017696DE011F96F1
:1037B00001900D928A95E1F70A8D002341F021E0F6
:1037C0004F85588969897A89C8010E94AD140B8B8D
:1037D0001C8B87E0FE013F96DE01189601900D924A
:1037E0008A95E1F7CE0108960E945B1A81110CC000
:1037F00087E0FE013896DE01119601900D928A95C0
:10380000E1F78C8581110BC017E080914005909104
:103810000705891333C06B96E4E00C946B2F20915D
:10382000070530E0C901019687709927409140054E
:103830004817190699F097E0929FD001939FB00D19
:103840001124A85FBA4FFE01319601900D929A950E
:10385000E1F7809307050E94E70BD6CF1092D804BA
:103860000E94D80D109207051092400587E0EFEAFC
:10387000F2E0DF011D928A95E9F7C6CF819FC00172
:103880001124885F9A4F0E945B1A882321F280914D
:10389000400590E001968770992780934005B5CF49
:1038A00090E080E00E943F30863E9E4F19F40E94D7
:1038B000D214089580E00895A4E0B0E0E2E6FCE1CF
:1038C0000C94502F6091090370910A0380910B03AF
:1038D00090910C030E94640711E064367105810524
:1038E000910570F10E9430136E5F7F4F8F4F9F4F95
:1038F00069837A838B839C838091190190911A014B
:103900008D509D4F4091180150E04530510510F009
:1039100044E050E0BE016F5F7F4F0E941E3083E0A5
:1039200090E00E94B72E182F882351F00E94800744
:103930006093090370930A0380930B0390930C0325
:10394000812F2496E3E00C946C2FEF92FF921F934B
:10395000CF93DF9300D000D00F92CDB7DEB77B01BD
:1039600090E080E00E94B72E182F882309F47AC0D7
:103970004091030150E04115510511F041E050E044
:1039800060910401709105016D507D4FCE01059647
:103990000E941E306091EB027091EC028091ED026A
:1039A0009091EE020E9464076436710581059105CD
:1039B00040F484EF92E00E94DE059D81891709F4AE
:1039C00051C081E090E00E94B72E81111AC010E032
:1039D0008091E7029091E802A091E902B091EA0299
:1039E000F70180839183A283B383812F0F900F907F
:1039F0000F900F900F90DF91CF911F91FF90EF905C
:103A0000089540910B0150E04530510510F044E01D
:103A100050E060910C0170910D016D507D4FCE0111
:103A200001960E941E3084EF92E00E94DE059D8187
:103A30008913CDCF0E9480076093EB027093EC0254
:103A40008093ED029093EE0289819A81AB81BC81D3
:103A50008093E7029093E802A093E902B093EA0210
:103A600011E0B6CF8091F4029091F502A091F60298
:103A7000B091F70289839A83AB83BC831111E4CFA1
:103A8000A7CFB0E0A0E0E7E4FDE10C944B2FC82FF6
:103A90007B01D42F6901FB01608171818281938157
:103AA0000E946407643671058105910510F4DD23D9
:103AB00059F10C2E000CDD0BFE0183E0EE0FFF1F11
:103AC0008A95E1F7E050FF4F818192818D509D4FA3
:103AD000408150E00417150708F4A801B6010E94C0
:103AE0001E30CE010E94B72EC82F882339F00E94C5
:103AF0008007F70160837183828393838C2FCDB716
:103B0000DEB7E8E00C94672FC1E0F8CFA9E0B0E0A1
:103B1000ECE8FDE10C944F2F88E0E5E4F5E0DE01F0
:103B2000119601900D928A95E1F78091250489877D
:103B300049E050E060E073E0CE0101960E94113050
:103B400041E0892B09F440E009E010E09E012F5F7D
:103B50003F4F6DE073E084E00E94411D2996E4E050
:103B60000C946B2F0F931F93CF93DF93EC0144E0E2
:103B700050E068EF72E00E94113041E0892B09F4B7
:103B800040E004E010E09E016FEE72E082E00E94EF
:103B9000411DDF91CF911F910F910895A8E0B0E0F2
:103BA000E4EDFDE10C94512F66EE7EEF90E080E0B5
:103BB0000E94733060E082E090E00E94553060E047
:103BC00083E090E00E9455301092D90260E074E1E9
:103BD00084E090E00E94733060E086E090E00E9414
:103BE00055306FEF87E090E00E94553040E050E0A4
:103BF000BA0188E090E00E94673060E084E290E0E3
:103C00000E94553060E087E190E00E94553060E00E
:103C10008CE090E00E94553060E08DE090E00E94E2
:103C2000553019821A821B821C821D821E821F82BD
:103C3000188648E050E068E170E0CE0101960E94ED
:103C4000453040E050E0BA0180E290E00E946730E9
:103C500080E00E94E8130E94011440E050E0BA01A5
:103C60008FE090E00E94673040E050E0BA0183E1CD
:103C700090E00E9467302896E2E00C946D2F1F922E
:103C80000F920FB60F9211242F933F934F935F9390
:103C90006F937F938F939F93AF93BF93CF93DF9354
:103CA000EF93FF93D091E900DF708091EC00C82F73
:103CB000C17080FDC0E81092E9008091F000877F1C
:103CC0008093F00078940E94F60D1092E9008091A4
:103CD000F00088608093F000CD2BCF70C093E90096
:103CE000FF91EF91DF91CF91BF91AF919F918F9114
:103CF0007F916F915F914F913F912F910F900FBEE8
:103D00000F901F9018951F920F920FB60F921124CB
:103D10002F933F934F935F936F937F938F939F93D3
:103D2000AF93BF93EF93FF938091E10082FF09C0AF
:103D30008091E20082FF05C08091E1008B7F80933B
:103D4000E1008091DA0080FF24C08091D80080FFDC
:103D500020C08091DA008E7F8093DA008091D900B4
:103D600080FF9DC080E189BD82E189BD09B400FE6C
:103D7000FDCF81E08093FD048091D704811109C0BB
:103D80000E94F5050E9496068091E200846080936F
:103D9000E2008091E10080FF17C08091E20080FF87
:103DA00013C08091E2008E7F8093E2008091E20058
:103DB00080618093E2008091D80080628093D80077
:103DC00019BC85E08093FD048091E10084FF2BC045
:103DD0008091E20084FF27C080E189BD82E189BD36
:103DE00089B5982F917080FFFBCF8091D8008F7D8F
:103DF0008093D8008091E1008F7E8093E1008091D4
:103E0000E2008F7E8093E2008091E20081608093E7
:103E1000E2008091FE04882309F447C084E0809387
:103E2000FD048091FD048091E10083FF27C0809113
:103E3000E20083FF23C08091E100877F8093E1004F
:103E400082E08093FD041092FE048091E1008E7F59
:103E50008093E1008091E2008E7F8093E200809168
:103E6000E20080618093E20042E060E080E00E9436
:103E700064068091F00088608093F000FF91EF91DC
:103E8000BF91AF919F918F917F916F915F914F9172
:103E90003F912F910F900FBE0F901F90189519BC56
:103EA0001092FD041092D70474CF8091E30087FD37
:103EB00093E09093FD04B5CF78941F921FB61F92A4
:103EC00011248F939F93AF93BF938091D1049091CE
:103ED000D204A091D304B091D4040196A11DB11DC8
:103EE0008093D1049093D204A093D304B093D404CC
:103EF000BF91AF919F918F911F901FBE1F901895FA
:103F00009C014FB7F8948091D1049091D204A09174
:103F1000D304B091D4044FBF821B930B08952FB7E5
:103F2000F8948091D1049091D204A091D304B091DF
:103F3000D4042FBF0895B0E0A0E0E1EAFFE10C94C3
:103F4000462FC82F80913B018C1323C090914505CB
:103F5000937020913A0130E081E09217130609F442
:103F600080E081708093400180914A0590913F01EB
:103F7000981739F080933F0140E060E080E00E94B4
:103F80000409C93090F4EC2FF0E0EA55FF4C0C9492
:103F9000D92F81E0E6CF80914001882309F4B6C093
:103FA00040E060E080E00E94040980E0AFC0009142
:103FB0003E018BE0089F002D1124DBE0D00FD733AA
:103FC00008F0D6E30E945812882319F0DC3108F07B
:103FD000DBE10E945812811103C00B3108F40BE1A0
:103FE0006091460570914705809148050E9424091B
:103FF000F62EE72ED82E10E00D1720F08D2F0E9400
:10400000C41284C0F801EC5BFD4F808190913F01A8
:10401000892331F02D2D4F2D6E2DC8010E940109ED
:104020000F5F1F4FE9CF00913E018BE0089F002DED
:104030001124DBE0D00FD73308F0D6E30E945812EA
:10404000882319F0DC3108F0DBE10E94581281115D
:1040500003C00B3108F40BE16091460570914705F0
:1040600040914805E0914105F09142058091490554
:1040700086958695869530E020E0E89F212DF89F73
:10408000200D311D1124922F96FD2095322F3F7067
:1040900096FD3F5F2695269526952670E22FF0E047
:1040A000EF56FE4F8181839F802D312D1124829503
:1040B0008F703295307F832B2081820F97FD819501
:1040C00087FD8195880F282F249F212D1124822F71
:1040D0000E942409F62EE72ED82E10E00D1708F0C6
:1040E0008DCFF801EC5BFD4F808190913F018923DA
:1040F00031F02D2D4F2D6E2DC8010E9401090F5F4B
:104100001F4FECCF87ED98E00E94D41290913E01B2
:104110009F5F90933E0181110CC082E080933C012F
:1041200080914001811105C0C11103C083E08093DB
:104130003C01CDB7DEB7EDE00C94622F85ED98E041
:10414000E3CF8CEC98E0E0CF83EC98E0DDCFE0901B
:104150003E018BE0E89EE02C1124DBE0DE0DD7333E
:1041600008F0D6E30E945812882319F0DC3108F0D9
:10417000DBE10E945812811105C03BE1E31610F407
:104180006BE1E62E80914001882361F040E060E021
:1041900080E00E940409EFE9F3E080E3DF011D9273
:1041A0008A95E9F780913E01811115C080919D03A8
:1041B00090919E030E94801F21E08931910508F4AF
:1041C00020E020939C03499730F00E948F1F90932A
:1041D0009E0380939D03A12C912CB12C46E0742E5C
:1041E0005AEA852E01C0B12C2B2D30E07A9C80013B
:1041F0001124F801E855FE4FE20FF31FC080CE14E2
:1042000008F440C0CD1608F03DC09394D12CF601BF
:10421000EC5BFD4F808190913F01892309F432C00E
:1042200001561C4F020F131FF801F0803F2D25E5AA
:10423000321B08F430E070914705282D4F2D240FD4
:1042400008F42FEF40914805822F880F820F8E5F70
:10425000282F249F212D1124822F682D631B0E945B
:104260002409462F282F672FC6010E94010980913B
:104270009C03882339F02F2D31E0231B08F420E024
:10428000D8012C93B394B6E0BB12AECFA394E8E070
:10429000AE1609F4B3CEFAE0F91508F0A4CFAECE0D
:1042A00000913E018BE0089F002D1124DBE0D00F30
:1042B000D73308F0D6E30E945812882319F0DC3176
:1042C00008F0DBE10E945812811103C00B3108F4A1
:1042D0000BE12091490531E0230F08F42FEF30E086
:1042E00050E040E06FEF7FEF80E090E00E94BA2F57
:1042F000790110E0BB24B394D12CC12C202F0D17D1
:1043000008F07CCEF801EC5BFD4F808190913F017D
:10431000892331F18091F8038150082E000C990B0C
:1043200087FF21C0B701309149052B2D320F08F4CA
:104330003FEFA601639F412D739F400D511D112436
:104340006091460570914705809148050E941D09BE
:104350000E942409462F282F672FC8010E940109B7
:104360000F5F1F4FCBCFFC01E850FC4F3189321358
:104370000AC0FC01EE0FFF1FE850FC4F618D728DEB
:104380006E157F0580F20197CBCF4F925F926F92AF
:104390007F928F929F92AF92BF92CF92DF92EF92D5
:1043A000FF92CF938090210490902204A090230448
:1043B000B09024040E945812882309F44CC0C5010F
:1043C000B4010E9464076B017C010E9430134B0111
:1043D0005C018092210490922204A0922304B09266
:1043E0002404A091CF03EFECF3E08A2F90E04FEF8D
:1043F0005FEF60E070E04C195D096E097F09A91359
:1044000033C08093CF0380912504C0E0811108C0A0
:1044100080914505C82FC37019F0C82FC695C69561
:1044200080913C01813009F449C0882381F18230B8
:1044300009F44FC0833009F450C0CF91FF90EF9042
:10444000DF90CF90BF90AF909F908F907F906F90B4
:104450005F904F9008950E9430136B017C01C81843
:10446000D908EA08FB08B1CF218D328D2901712CC2
:10447000612C441555056605770520F481509F5F32
:104480003296BDCF2C0D3D1D328F218FF8CF10926B
:104490003E018092410590924205A0924305B09260
:1044A000440589E2EFECF3E0A8EFB3E001900D9250
:1044B0008A95E1F781E080933C01BFCF8C2F0E9469
:1044C0009B1FCC2309F4B9CF0E9458120E945812A6
:1044D000B4CF8C2F0E94B608B0CF809126048111F2
:1044E0000E941515C0904105D0904205E09043050B
:1044F000F09044050E945812882369F0C701B60164
:104500000E946407603171058105910508F495CF1B
:1045100010923C0192CF0E9430136C197D098E09D4
:104520009F09F0CFACE0B0E0E8E9F2E20C94462F4E
:104530008E010F5F1F4F88E0D8011D928A95E9F721
:104540008FE7C82E81E0D82EF12CE12CAA24A39469
:10455000B12C29E8822E21E0922EF60181916F0183
:104560008F3F09F442C0F894E82FE295EF70F0E035
:1045700021A18F70A50102C0440F551F8A95E2F753
:10458000CA01922F982B91A392A18095892382A38F
:10459000789400C0E3E8F1E0712C31E021912F3FE5
:1045A00009F46BC0A22FA295AF70B0E090968C91E9
:1045B00090E02F7002C0959587952A95E2F780FDCF
:1045C0005CC0832F782A330F8E169F0639F7F601C9
:1045D000319780818F3F11F00E94BA0950EA5A95B5
:1045E000F1F7F801EE0DFF1D70828FEFE81AF80A5F
:1045F000A4E0EA16F10409F0B0CF48E050E0B801B9
:1046000086E193E00E941130009741F028E0F80124
:10461000A6E1B3E001900D922A95E1F700911F0306
:10462000892B69F181E08093DE020E948F1F9093B5
:10463000DD028093DC028091DC029091DD020E9419
:10464000801F059700F110E00C561C4F44E050E02D
:1046500066E173E0C8010E941130B12C892B51F042
:1046600084E0E6E1F3E0D80101900D928A95E1F74C
:10467000BB24B3941092DE0207C080E0A3CF8091E8
:10468000DE028111D8CFB12C0E945812A82EE091E1
:104690001F03882309F489C019861A861B861C8685
:1046A0000E2F10E00C561C4F809111038A3008F039
:1046B00046C045EA5CE1BE01675F7F4FC8010E94CA
:1046C0002512882309F460C042EB5DE1BE01675FFB
:1046D0007F4FC8010E942512882309F455C04CE57C
:1046E0005CE1BE01675F7F4FC8010E9425128823ED
:1046F00009F44AC046E85DE1BE01675F7F4FC8012B
:104700000E942512882309F43FC010921103809162
:104710001E0390E044E050E0BE01675F7F4F8C567F
:104720009C4F0E94113021E02093E502892BF1F487
:10473000A12C8A2D8B292C96EDE00C94622F809170
:10474000DF029091E0020E94801F843F914008F0B8
:10475000B0CF8091E502882359F3FE01399684E0B9
:10476000DF011D928A95E9F71092E502E0911E03A0
:10477000F0E0EC56FC4F89859A85AB85BC8580833B
:104780009183A283B383D5CF809111038F3F31F002
:104790008F5F809311038A3008F4B9CF0E948F1F76
:1047A0009093E0028093DF02D4CF00911E0310E0CB
:1047B0000C561C4FF0E0EC56FC4F84E0A4EFB2E046
:1047C00001900D928A95E1F784EF92E00E94DE0558
:1047D0008093F30284E0E8EFF2E0D80101900D92BB
:1047E0008A95E1F7C090FC02D090FD02E090FE02B5
:1047F000F090FF028091E1029091E202A091E30229
:10480000B091E402C816D906EA06FB06D1F0C092C0
:10481000E102D092E202E092E302F092E4020E940E
:10482000581281110EC00E948007C61AD70AE80AE2
:10483000F90AC0921203D0921303E0921403F0928B
:10484000150388E0E0E0F3E0A5E4B5E001900D9207
:104850008A95E1F710910803112349F0809125040E
:10486000811105C00E949B1F80E00E94B608109332
:1048700025045FCFA6E0B0E0E0E4F4E20C944F2F13
:104880000E948F1F8C018091DA029091DB028017C9
:10489000910781F019821A820E948F1F682F498127
:1048A0005A81792F80E090E00E94C21B1093DB02B6
:1048B0000093DA022696E4E00C946B2F1F921FB649
:1048C0001F9211248F939F93AF93BF938091D00435
:1048D000811113C08091D1049091D204A091D3048E
:1048E000B091D4044196A11DB11D8093D104909341
:1048F000D204A093D304B093D404BF91AF919F91FD
:104900008F911F901FBE1F901895CDB7DEB7AE9741
:104910000FB6F894DEBF0FBECDBF85B7806885BFE8
:1049200085B7806885BF84B7877F84BF0FB6F8944A
:10493000A89580916000886180936000109260006B
:104940000FBE80E890E00FB6F894809361009093DA
:1049500061000FBE88EB99E090937B0280937A020E
:104960000E94F5050E9496068091E2008460809383
:10497000E20078948091FD048823A1F01091E90071
:104980001F709091EC00892F817090FD80E8182BAA
:104990001092E9008091E80083FD0E94F60D1F70DF
:1049A0001093E90082E084BD93E095BD9AEF97BD36
:1049B00080936E001092120310921303109214034E
:1049C000109215030E94D214811102C00E9401149A
:1049D0000E945812809328010E94581281110E944F
:1049E000CB2D809128018091280194E0811190E0E5
:1049F00090931F0384E0891B80931E0384E90E9427
:104A0000BA0986E60E94BA0987E90E94BA0986ECCB
:104A10000E94BA0903E811E0D8018D918D018F3F02
:104A200011F00E94BA09B1E009381B07A9F788E024
:104A3000E4E9F3E0DF01882E1D928A94E9F7E6E1CC
:104A4000F3E0DF011D928A95E9F70E94501C811165
:104A500002C00E94CE1D82E090E00E943730809319
:104A6000200384E090E00E943F309093D60480932E
:104A7000D5040E949222BFEFE6E7F1E0B150E0409A
:104A8000F040E1F700C000000E9492220E945812FC
:104A9000E4E08111E0E0F0E0EC56FC4F808181FF22
:104AA00008C06FEF7FEF90E080E00E9473300E94BB
:104AB000530783E090E00E9437300E94AF0C0E94C1
:104AC00006081092F8038FEF9FEF909312048093E3
:104AD000110490931404809313049093160480930C
:104AE0001504909318048093170490931A048093EC
:104AF000190490931C0480931B0490931E048093CC
:104B00001D049093200480931F041092CF03909370
:104B1000E9038093E8039093EB038093EA03909377
:104B2000ED038093EC039093EF038093EE03909357
:104B3000F1038093F0039093F3038093F203909337
:104B4000F5038093F4039093F7038093F6030E9498
:104B5000501C811104C00E94CE1D0E94201581E0CE
:104B60008093260448E050E068E170E085E495E039
:104B70000E94273010922604809145058C7F11F405
:104B80000E9420150E9458128111FEC082E080937D
:104B90008E0380E880934D050E94852C6BE070E0C9
:104BA00086E492E00E94EB14882379F180918E03D1
:104BB00065E070E081FDEAC081E492E00E94EB14C0
:104BC000882319F16DE070E08FE292E00E94EB140F
:104BD0008823D9F0E0E5F5E080E092E0DF019C0178
:104BE0001D9221503040E1F7F0935707E0935607AC
:104BF0008FEF9FEF90934F0580934E0581E0809358
:104C0000920380936D0310928F030E9458128111BA
:104C100002C00E94CE2D89E291E09093CD04809352
:104C2000CC048091FD04853099F410E4F12EEE243B
:104C3000E39400E112E18091FD04853009F4A9C0FC
:104C40001092D8040E94D80D0E947B121092250465
:104C50000E949222A1E2B3E0B8A7AFA3E4E9F3E097
:104C6000FAA7E9A7DF01E1E2F3E091918D9123E05A
:104C7000E932F20709F4E5C09817B9F30E94581217
:104C80008CA7312C212CF12CA9A5BAA5DD90BAA7AF
:104C9000A9A7EFA1F8A58191F8A7EFA38D1509F4B5
:104CA0002CC28D258BA72101E12CCC24C3948BA58C
:104CB0008C2109F416C27D2C7C208CA48820A1F0C4
:104CC000E9A2FAA20E948F1F9CA38BA321E02DA32F
:104CD00091E0711001C090E09EA349A15AA16BA17F
:104CE0007CA18DA10E94C21B772039F0F201E8550A
:104CF000FE4F80818F3F09F097C1A12C0A2D10E053
:104D00008091CF03800F912F911D09976CF1F8E0EE
:104D10008F2E912C801A910AB80160537C4FA40108
:104D200080ED93E00E941E30B80168527C4FA401D0
:104D300088ED93E00E941E30A401440F551FB80176
:104D4000660F771F68517C4F88EE93E00E941E30FB
:104D5000B80160527C4FA40180EE93E00E941E30A7
:104D600088E08A198093CF038091CF0390E0A62D2D
:104D7000B0E09D01220F331F28523E4FAA0FBB1FE8
:104D8000BD0167527E4F68C180E001CF8CE392E0A5
:104D900015CF8091FD04843009F441C00E94C521E3
:104DA00080912504811105C00E949B1F80E00E9414
:104DB000B608E092250480919203882369F08091DF
:104DC0006D03882349F062E070E081E592E00E9483
:104DD000EB14811110926D031092D00448E150E061
:104DE0000FB6F894A895409360000FBEF092600053
:104DF00083B7817F846083BF83B7816083BF7894EA
:104E0000889583B78E7F83BF0FB6F894A89580915D
:104E10006000886180936000109260000FBE8091F6
:104E2000FC04882309F407CF0E949222E4E9F3E00E
:104E30008191811149C58CE993E08E179F07C1F7D5
:104E4000FACE98131BCF0E943A240E94581288234E
:104E500009F4B0C0C0903403D09035030D2C000C81
:104E6000EE08FF0810913101212F30E0E4E3F3E078
:104E700081E090E03296281739070CF0B2C16091BA
:104E800030037091310380913203909133030E947B
:104E900064074B015C0189EC88169104A104B104FC
:104EA00014F180912F0390E0019669E170E00E9477
:104EB000842F80932F03880F991FFC01EC5CFC4F1B
:104EC00011821082812F183108F087E18F5F809363
:104ED00031010E9480076093300370933103809307
:104EE00032039093330392E0C916D104E104F10434
:104EF0000CF483C1A0E6BAEEA70196010E94E62F4A
:104F00006B017C01A8EC1A9F90011124032E000C68
:104F1000440B550B280D391D4A1D5B1DA5E0B0E063
:104F20000E94E62F9B01AC01C701B6010E94982F99
:104F300069017A01B1EFCB16D104E104F1042CF040
:104F400070EFC72ED12CE12CF12C60912B037091C6
:104F50002C0380912D0390912E030E9464074B0136
:104F60005C01E5E68E169104A104B10484F00E9470
:104F7000800760932B0370932C0380932D039093F1
:104F80002E038091670380932A03C0922903109116
:104F90002A03A0912903A11BBB0BA50194010E9428
:104FA000F12F24E630E040E050E00E94BA2F210FBC
:104FB000209367030E94C52180919203811121C132
:104FC0000E947B1290919303891721F080939303A1
:104FD0000E9480078091FD04843009F022CE83E096
:104FE0008093E9008091E80082FF1BCE8091E80069
:104FF00090E085FF06C00E941406882309F4C7C20A
:1050000091E08091E8008B778093E800992309F480
:1050100008CE8981EFEFE80FE33108F0E0C2F0E05D
:10502000E155FF4C0C94D92F682EAA24A39466CE88
:1050300090E0FC01E153FC4FD9015C915183DB010D
:105040005C915187618A880F991FFC01E153FC4FE5
:10505000128E118E91E0842F41E0480F9A1540F393
:105060008093CF03772009F43CC0809145058C7F65
:105070008C31B9F5F201E855FE4F80818F3F89F1FF
:1050800070E060E000E090E09C01220F331FF90126
:10509000E852FE4F4F0127523E4F3EA72DA7A201D7
:1050A00041565C4F5A01AB0110E0FA01E855FE4F42
:1050B00080818F3F59F00F112AC0E11228C0D5011D
:1050C0002C9130E2230F08F42FEF2C931F5F4F5FDA
:1050D0005F4F163051F70F5F6A5F7F4F6033710586
:1050E00011F7E394CC0C2FEF421A520A36E0E31288
:1050F000DECDEFA1F8A53197D082F39446E0240EDF
:10510000311C58E0F512C0CD0E9430139ECE90E0C5
:10511000D401EC91DC01AA0FBB1FA852BE4F2C9109
:10512000E21BFF0BADA5BEA52C91DC01AA0FBB1F96
:10513000A855BE4FD1969C91822F891B990BEE9F4B
:10514000D001EF9FB00DB00D1124889F9001899F71
:10515000300D300D11242A0F3B1F223031058CF405
:10516000322F28E2231B08F420E0FA01E156FC4F1D
:10517000213108F020E13081320F08F43FEF308315
:10518000A5CF213EBEE13B071CF5C901A5E09695E0
:105190008795AA95E1F7B8E0B80FA1E0EA2FEB0FE9
:1051A000FF27FF1FCF0195958795889FF001899F65
:1051B000F00DF00D11242E173F0760F4BFEFB80F6C
:1051C000BA1760F73FEF3A0F393208F07FCFC9CFF7
:1051D000BFEFE3CFFFEF8F1709F478CFA1E0A80F5F
:1051E000EFCF40815181052E000C660B770BC40E6A
:1051F000D51EE61EF71E01963DCEC12CD12C7601A0
:10520000A4CE80919003909191030E94801FC29739
:1052100008F4B7C00E948F1F90939103809390036E
:1052200080E595E090935707809356070E945812A7
:10523000882309F4F4C088E792E00E94430D80912E
:1052400066030E94B20C813009F4D5C0882349F06E
:10525000823009F4D3C0833009F4D3C084E592E0EE
:1052600002C083E792E00E94430D83E592E00E9432
:10527000430D81E00E94510D8EE892E00E94430DA3
:105280000E947B1281FDC0C080E892E00E94430D25
:105290008CE892E00E94430D87E992E00E94430D62
:1052A000C0906703809132018C1105C080916C031E
:1052B000803209F44AC0C092320180E280936C03CC
:1052C000D12CF12CE12C10926B03C701B6012AE01E
:1052D00030E040E050E00E94982F605D603331F094
:1052E000C114D104E104F10409F460E260936A039B
:1052F00060E2FAE0CF16D104E104F10490F06AE034
:10530000862E912CA12CB12CC701B601A5019401C8
:105310000E94982FCA01B901A50194010E94982FFB
:10532000605D6093690324E6C216D104E104F104D0
:1053300008F46DC0C701B60124E630E040E050E05B
:105340000E94982F205D2093680308E613E0D8019F
:105350000D900020E9F78D010150110958E6E52E66
:1053600053E0F52EE016F10608F453C086E992E00A
:105370000E94430D81E00E94510D8DE992E00E9450
:10538000430D80914E0590914F05892B09F418CE5D
:1053900080919203882309F413CE80918F038111A9
:1053A0000FCE80916D0381110BC062E070E087EE3B
:1053B00092E00E94EB14882319F081E080936D0342
:1053C00020914E0530914F052115310509F4F8CD96
:1053D00080E041E050E0082F10E07A01082E02C082
:1053E000EE0CFF1C0A94E2F7B9016E217F21672BB6
:1053F000C9F48F5FF0CF89E692E035CF84E692E082
:1054000032CF8EE592E02FCF86E892E03FCF20E2C8
:105410009ACFF70181917F010E94C30CA3CF87EA45
:1054200092E0ADCF90918E0390FF98C0880F880FC7
:10543000880F8093350110923801895F809336017F
:1054400083E08093390124E630E047E050E063E3F5
:1054500071E088E70E94252D892B09F0B1CDA801C4
:1054600035E0440F551F3A95E1F780918E0380FF98
:1054700087C0EEE6F3E080E2DF011D928A95E9F74E
:105480000DE811E089E8C82E81E0D82E91E9492E77
:1054900091E0592E27E0A22E99249394D801ED9102
:1054A0008D01D6016D916D01640F752F711D605BCB
:1054B0007A4FF0E0E259FC4F30E020E07A2C721A8B
:1054C000B92C022E01C0BB0C0A94EAF71B0190E034
:1054D000D1018D911D018B21A72DA91BA770AFA311
:1054E0000A2E000CBB0B882E0FA001C0880C0A945A
:1054F000EAF78FA2B195A195B109A770BB2701C0AA
:105500008695AA95EAF7882A8081882A80829F5FFB
:105510009830F1F62F5F3F4F31962830310571F604
:105520004016510609F0BACF04E610E020E230E060
:105530004EE653E060E488E70E94462D892B09F08F
:105540003FCDE094F09480914E0590914F05E82274
:10555000F922F0924F05E0924E0532CD8295880FE8
:105560008076809335019801369527953695279555
:1055700020933801815E809336012093390163CFF7
:10558000405B5A4F04E610E020E230E0D3CF00E267
:1055900010E09E012F5F3F4F79018091E80085FD6B
:1055A0000AC08091E8008B778093E8000E9414067F
:1055B000882399F325CD8091F100D7018D937D014A
:1055C0000150110951F71CCD1A828CE08B831BC04E
:1055D0008A81823009F490C128F4813061F08FEF24
:1055E000898311C08330C1F08430C9F71B821C82CB
:1055F0001D821E8208C00E9480070E94DF2F6B83DD
:105600007C838D839E8340E250E0BE016F5F7F4FBD
:1056100082E00E94921105CB2B81822F90E0FE0147
:105620003496245E8830910570F7DC01AC56BC4F8F
:105630003C91319301962813F5CFE5CF8A818230D2
:1056400059F0853061F68091450591E08927809376
:10565000450510923C01D7CF6B817C818D819E8165
:105660000E94DF2F88E290E00E945530CCCF4C8121
:105670006B818A810E9411149827892798279E831D
:105680008D83C1CF2D813E813227232732274C8144
:105690006B818A810E948A13B6CF0E94B013B3CF68
:1056A0009A81933009F09BCF883009F441C089304A
:1056B00009F46BC08B818230E9F088F4813009F005
:1056C000A2CF4C8126E9429F412D112480914605AD
:1056D00020E06091470590E00E94250894CF833038
:1056E00019F1843009F08FCF8C8120E0409148057A
:1056F0006D81F1CF8C8190914505292F2370811107
:1057000007C011F010923C019C7F909345057BCF20
:10571000211102C010923C019C7F9160909345053D
:1057200060E00E9486086FCF8C81809349056BCF23
:105730008B818230E1F078F4813009F064CF809180
:105740004805BFEF8B9FC001112466E970E00E94FD
:105750002D2F6C8358CF8330A9F0843009F053CFBC
:10576000809146058C83809147058D834CCF809135
:105770004505982F937086958695911101C080E01C
:105780008C8341CF80914905FBCF0E9415153BCFFB
:1057900080E18A8338CF82E08A8387E517CFCA8089
:1057A000DB80DC24CD24DC248E010F5F1F4FEC80D6
:1057B000E00EF12EF11CC60187559E4FE016F10652
:1057C00009F421CFE7E5CE16E2E0DE0658F40E94A8
:1057D0003730D80114968C93FFEFCF1ADF0A0F5F92
:1057E0001F4FE9CFF8011482F7CF0A811B811027E0
:1057F000012710279E012F5F3F4F6901EC80E00ECB
:10580000F12EF11CC80187559E4F0E151F0509F496
:10581000FACE073532E0130728F4D60114966C91BE
:105820000E945530BFEFCB1ADB0A0F5F1F4FEACF44
:105830000E947A13E8CE84E0ACCFCA80DB80DC24FF
:10584000CD24DC248E010F5F1F4FEC80E00EF12E83
:10585000F11CC60189960E151F0509F4D4CEE0E8A7
:10586000CE16E1E0DE0658F40E943730D8011496D7
:105870008C93FFEFCF1ADF0A0F5F1F4FEACFF801BB
:105880001482F7CF0A811B811027012710279E0160
:105890002F5F3F4F6901EC80E00EF12EF11CC80133
:1058A0008996E016F10609F4AECE003831E0130710
:1058B00028F4D60114966C910E945530BFEFCB1A94
:1058C000DB0A0F5F1F4FEBCF09BD19BD09B400FE06
:1058D000FDCF8091D8008F7D8093D8008091E0002B
:1058E00082608093E0008091E00081FDFCCF109207
:1058F000D8040E94D80D9FC988E290E00E943730FA
:105900001B821C821D828E837ECE1092B9008CE099
:105910008093B8000895B0E0A0E0E1E9FCE20C94C7
:10592000482FB82EEB010E948F1F6C01EE24E394E8
:10593000F12CC431D10560F025E0E22EF12CCF3FEF
:10594000DC0731F0CE0164E170E00E942D2F7B0175
:1059500084EAA82E94E8992E1092BC00A092BC0074
:105960000E948F1F8C018091BC0087FF0DC0809129
:10597000B900887F8830F9F08091B900887F803144
:10598000D1F00FEF1FEF08C0C8010E94801FE8167A
:10599000F90648F70EEF1FEFCF3FDC07E9F2C6012B
:1059A0000E94801FC817D907B8F6C801CDB7DEB767
:1059B000EBE00C94642FB092BB009092BC000E946C
:1059C0008F1F8C018091BC0087FF0AC08091B900B5
:1059D000887F883111F08034A1F610E000E0E5CF37
:1059E000C8010E94801FE816F90660F7D3CF0F9315
:1059F0001F93CF93DF93EB018093BB0084E88093E8
:105A0000BC000E948F1F8C018091BC0087FF11C0D9
:105A10002091B900287F81E090E0283211F490E0D5
:105A200080E0919581959109DF91CF911F910F9120
:105A30000895CF3FDC0741F3C8010E94801FC817BB
:105A4000D90710F78EEF9FEFEFCFB0E0A0E0EBE2C9
:105A5000FDE20C944B2F6B018A017901B9010E9480
:105A60008B2CE6010C0D1D1DC017D10711F097FFFF
:105A700008C024E92093BC00CDB7DEB7E8E00C9461
:105A8000672FB70189910E94F72CEECFB0E0A0E01C
:105A9000ECE4FDE20C944B2FC62F6A017901B801AA
:105AA0000E948B2C97FD0CC0B8018C2F0E94F72C04
:105AB000E601EC0CFD1CCE15DF0511F097FF08C0C8
:105AC00024E92093BC00CDB7DEB7E8E00C94672F43
:105AD000B80189910E94F72CEECF84E98093BC0035
