:100000000C9412070C942F070C942F070C94623356
:100010000C942F070C942F070C942F070C942F0788
:100020000C942F070C942F070C9428300C9400315B
:100030000C94E6130C942F070C942F070C942F07A5
:100040000C942F070C942F070C942F070C942F0758
:100050000C942F070C9404300C942F070C942F074A
:100060000C942F070C942F070C942F070C942F0738
:100070000C942F070C942F070C942F070C942F0728
:100080000C942F070C942F070C942F070C942F0718
:100090000C942F070C942F070C942F070C942F0708
:1000A0000C942F070C942F070C942F0705010906B9
:1000B000A1018506050719E029E715002501950826
:1000C000750181020507190029EF1500250195F03A
:1000D000750181020508190129059505750191022F
:1000E000950175039101C00660FF0961A1010962D4
:1000F000150026FF0095207508810209631500266A
:10010000FF00952075089102C005010906A10105AF
:100110000719E029E7150025019508750181029569
:1001200001750881010507190029FF150026FF0048
:100130009506750881000508190129051500250196
:10014000950575019102950175039101C0000000AC
:100150000000003E5B4F5B3E003E6B4F6B3E001C61
:100160003E7C3E1C00183C7E3C18001C577D571CF2
:10017000001C5E7F5E1C0000183C180000FFE7C3F7
:10018000E7FF00001824180000FFE7DBE7FF00305E
:10019000483A060E00262979292600407F050507E2
:1001A00000407F05253F005A3CE73C5A007F3E1C3B
:1001B0001C0800081C1C3E7F0014227F2214005FD4
:1001C0005F005F5F0006097F017F00006689956A16
:1001D0000060606060600094A2FFA2940008047E4A
:1001E00004080010207E20100008082A1C080008BF
:1001F0001C2A0808001E10101010000C1E0C1E0CEB
:100200000030383E383000060E3E0E06000000007A
:1002100000000000005F000000000700070000145D
:100220007F147F1400242A7F2A120023130864629B
:1002300000364956205000000807030000001C2229
:100240004100000041221C00002A1C7F1C2A0008DB
:10025000083E080800008070300000080808080800
:10026000000000606000002010080402003E5149B8
:10027000453E0000427F4000007249494946002146
:1002800041494D33001814127F1000274545453968
:10029000003C4A49493100412111090700364949CA
:1002A000493600464949291E00000014000000009C
:1002B00040340000000008142241001414141414E7
:1002C000000041221408000201590906003E415D68
:1002D000594E007C1211127C007F49494936003E7C
:1002E00041414122007F4141413E007F494949410E
:1002F000007F09090901003E41415173007F080850
:10030000087F0000417F4100002040413F01007F05
:1003100008142241007F40404040007F021C027FC1
:10032000007F0408107F003E4141413E007F0909E3
:100330000906003E4151215E007F09192946002629
:10034000494949320003017F0103003F4040403FDB
:10035000001F2040201F003F4038403F006314082A
:100360001463000304780403006159494D430000FD
:100370007F41414100020408102000004141417FBB
:100380000004020102040040404040400000030716
:100390000800002054547840007F28444438003836
:1003A0004444442800384444287F003854545418A6
:1003B0000000087E0902001824241C78007F08042D
:1003C00004780000447D4000002040403D00007F54
:1003D000102844000000417F4000007C047804782D
:1003E000007C08040478003844444438007C182415
:1003F000241800182424187C007C080404080048F1
:10040000545454240004043F4424003C4040207CC5
:10041000001C2040201C003C4030403C0044281080
:100420002844004C9090907C004464544C4400005C
:100430000836410000000077000000004136080047
:10044000000201020402003C2623263C00000000BA
:1004500080040000001000000000080000000800F8
:1004600000E0182040808080808080402010F000D4
:100470000000008000000800000080000400000070
:10048000000000000000100000000000000000005C
:10049000000000000000000000000000000000005C
:1004A000000000000000000000000000000000004C
:1004B000000000000000000000000040A0101048F4
:1004C000A8A8FE8C00006030000000E0F0F0F0E032
:1004D000ECEEF7F37020007C7C7C7E007E7E7E7FDD
:1004E0007F7F000080C0E07E5B4F5BFEC00000C0ED
:1004F00000DCD7DEDEDED7DC00C00000000000003C
:1005000000000000000000000000000000000000EB
:10051000000000080080000180000000008004004E
:10052000000041060C0818101018080C0601000005
:10053000002000000000000000000000004000005B
:100540000000000240000000000000200000010048
:10055000000000000000000000000000000000009B
:10056000000000000000000000000000000000008B
:1005700000000000F88CE0B09010000000010102C3
:100580000202FF0F000000180E00000F1F3F7F7FC8
:100590007F7F7F3F1E0C001F1F1F3F003F3F3F7F9D
:1005A0007F7F00307B7F7830202030787F3B0003D6
:1005B000000F7F0F0F0F7F0F0003000000000000EF
:1005C000000000000000000000000000000000002B
:1005D0001B272E1C39300201000000100000000013
:1005E0000000000800000000000200000000000001
:1005F00000001000000000000200000000001000D9
:1006000000000000000000000000000008000000E2
:1006100000000000000000000000000000000000DA
:1006200000000000000000000000000000000000CA
:1006300000000000041F110305010103020206046B
:100640000C087F0100300E030000000000000000D5
:10065000000000000000000000000000000000009A
:10066000000000000000000000000000000000008A
:10067000000000000000000000000000000000007A
:10068000000000000000000000000000000000006A
:10069000000000000000000000000000000000005A
:1006A000000000000000000000000000000000004A
:1006B000007E0F00D4FFFFFFC7000000780000009D
:1006C00000000000002A2B280000000000000000AD
:1006D000000000000000000029000000002C1E3473
:1006E00020212224342627252E362D3738271E1F79
:1006F000202122232425263333362E37381F0405A4
:10070000060708090A0B0C0D0E0F10111213141511
:10071000161718191A1B1C1D2F3130232D350405EF
:10072000060708090A0B0C0D0E0F101112131415F1
:10073000161718191A1B1C1D2F3130354C09025B76
:1007400000030100A0FA09040000010301010009EF
:10075000211101000122440007058103080001095D
:1007600004010002030000000921110100012222FE
:10077000000705820320000107050303200001098B
:100780000402000103000000092111010001223BC5
:100790000007058403200001120100020000000888
:1007A000534601000100010203011C0376006900A9
:1007B00061006C003A0066003600340063003200CD
:1007C00062003300630000000C0343006F007200FE
:1007D0006E00650000001203520061006E005300BD
:1007E00061007500630065000000040309042B002C
:1007F00014001A00080015001700E100040016009C
:10080000070009000A00E0001D001B000600190097
:100810000500000000000000E20021522C002A0028
:10082000130012000C0018001C004C0033000F00D5
:100830000E000D000B004D00380037003600100090
:100840001100000000000000E70022522800167C82
:100850001E001F00200021002200010001000100F5
:100860000100010001000100010001000100010080
:100870002A0000000000000001000100010001004A
:1008800027002600250024002300010034004F002B
:100890005200510050000100310030002F002E00A6
:1008A0002D000000000000000100035201003A008A
:1008B0003B003C003D003E003F00010001004600BF
:1008C0000100010001000100010001000100010020
:1008D00001000000000000000100010001004500CF
:1008E00044004300420041004000217829782578E7
:1008F00023782778207822782A7826782478287810
:100900002B780000000000000100010001002B0016
:1009100014001A00080015001700E100040016007A
:10092000070009000A00E0001D001B000600190076
:100930000500000000000000E20024522C002A0004
:10094000130012000C0018001C004C0033000F00B4
:100950000E000D000B004D0038003700360010006F
:100960001100000000000000E700225228002900CA
:100970001E0001001F0020002100010001000100F5
:10098000010001000100010001000100010001005F
:100990002A00000000000000010001000100270003
:1009A0002600250024002300220001000100010090
:1009B000010001000100010001000100010001002F
:1009C00001000000000000000100005201000001D1
:1009D00001010101010101010202020202020202FF
:1009E00002030303030303030304040404040404D1
:1009F0000505050505060606060607070707070895
:100A0000080808090909090A0A0A0B0B0B0C0C0C47
:100A10000D0D0D0E0E0E0F0F0F10101111111212E1
:100A200013131414151516161717181819191A1A5E
:100A30001B1B1C1D1D1E1E1F2020212222232424BF
:100A4000252626272829292A2B2C2D2D2E2F3031FB
:100A50003232333435363738393A3B3C3D3E3F400D
:100A60004142434445464748494A4C4D4E4F5051F8
:100A70005354555658595A5B5D5E5F6162646566B2
:100A800068696B6C6D6F7072737577787A7B7D7E39
:100A90008082838587888A8C8E8F91939596989A89
:100AA0009C9EA0A2A3A5A7A9ABADAFB1B3B5B7BAA1
:100AB000BCBEC0C2C4C6C9CBCDCFD1D4D6D8DBDD75
:100AC000DFE2E4E7E9EBEEF0F3F5F8FAFDFF00DA38
:100AD0000281FFD9F1DB20A4A62EAF00A0C0D30075
:100AE00000A1C8D30000AED580A81F408D142000FF
:100AF00000AE20202020202020207C002020204329
:100B0000415053207C007C2057504D20207C2000F9
:100B10002B2D2D2D2D2D2D2B2D2D2D2D2D2D63728E
:100B20006B62642D2B00808182838485868788890F
:100B30008A8B8C8D8E8F9091929394A0A1A2A3A466
:100B4000A5A6A7A8A9AAABACADAEAFB0B1B2B3B4DD
:100B5000C0C1C2C3C4C5C6C7C8C9CACBCCCDCECF1D
:100B6000D0D1D2D3D40000AFFD377A585A00000458
:100B7000E6D6B4460200210116000000742FE5A35A
:100B8000E0042101395D003D8889C65436C3174F02
:100B9000E4EFB04D854B92C7DDEBF613D3A7927E01
:100BA000CD21B359C00DADFD2428B493C8903E6546
:100BB000E73B83681A9DFD981D90CCFCF1AE18DDD3
:100BC000A1E38472F931E53A5F644117FB80A2EA40
:100BD000EFFB00A4EB924DA479FF444542F6643F3D
:100BE000A582429E4AE5EA29EBD3B3C13CC3A40CDB
:100BF00085163A9D38DB6ED80BB6FC88E2918DE8FD
:100C000020C3CCA590C155BA66647DCCAB19196AD6
:100C10007679CFAD0A531F0DCC424A5A5623691735
:100C2000D2F51A513EE9FE33E9BEC10CF852CF317C
:100C3000877520911616648D81E13B54B208000738
:100C40002F9B1CBCEF8FD98084284B36586D6FDAF0
:100C5000A2670EC72B8295781B7CF4D2977CDF3D70
:100C60008C3CAB0134989A485BE582CAFFB3E5231C
:100C7000B7979F333F15C829088DAC6605F7A202C8
:100C8000A5B13445C39D776B1DAAA655E0E3EF11CE
:100C9000533879AE8449A49897E2582FD80F8AB96F
:100CA000958E9C5618965303E6E02FDB4D99D51E82
:100CB000C5D2C488E84E91A03FE94E6E72EF089607
:100CC00000000000DBDDF6633E455DB30001D502A8
:100CD000A2080000178A1712B1C467FB02000000C7
:100CE0000004595A00000000010009000200010040
:100CF00006000200080003000D0004000E000500BD
:100D00000F0006001D0007001F0008002020202003
:100D10006162636465666768696A6B6C6D6E6F704B
:100D20007172737475767778797A313233343536F7
:100D300037383930524542545F2D3D5B5D5C233B73
:100D400027602C2E2F2020207C20202020202020D7
:100D5000204E614E20202020202020207C007C205E
:100D6000452051205520492050204D2045204E201F
:100D700054207C007C2020202020207E20465053C0
:100D8000207E2020202020207C007C20204D204F11
:100D900020562045204D2045204E205420207C0008
:100DA0007C2020202020207E20465053207E2020A2
:100DB000202020207C007C2042415345207C20467E
:100DC000554E4354494F4E5320207C007C204241D5
:100DD0005345207C204E554D424552532020202023
:100DE0007C007C2042415345207C204C4554544596
:100DF0005253202020207C002B2D2D2D2D2D2D2BEE
:100E00002D2D2D2D2D2D2D2D2D2D2D2D2B002B2D43
:100E10002D2D2D2D2D2D2D2D2D2D2D2D2D2D2D2D02
:100E20002D2D2B0011241FBECFEFDAE0DEBFCDBF8A
:100E300012E0A0E0B1E0EAE8FCE602C005900D9205
:100E4000AE34B107D9F727E0AEE4B2E001C01D929D
:100E5000A83DB207E1F70E9410260C94D0350C94FF
:100E600000009C01FB019A9581159F4120F5832F7D
:100E70008170B32FB270AA27732F74706627532F17
:100E80005870442734FF0DC08295807FAB2B09F04A
:100E90008062672B09F08064452B09F08068099512
:100EA0000895AB2B09F08260672B09F08460452B15
:100EB000B1F38860F4CF80E0F2CF982F92959F70C5
:100EC00024E0911102C020E0982F892F8695869505
:100ED000811511F02E5F982F892F8695820F089526
:100EE00080938D0708958093D707089521E030E01F
:100EF00001C0220F8A95EAF78091D707822B0E94C2
:100F00007307089521E030E0A90102C0440F551F86
:100F10008A95E2F7CA0180959091D70789230E94AC
:100F200073070895292F983090F5863080F590E06A
:100F300036E0239F800D911D1124282F277041E05A
:100F400001C0440F2A95EAF723E0969587952A95E4
:100F5000E1F7FC01EE0FFF1FE80FF91FEA5CF84F05
:100F600020E030E070E05191DF01CB01022E02C0A1
:100F7000969587950A94E2F7817081958527842359
:100F800085278E932F5F3F4F2330310561F70895FA
:100F9000292F983078F5863068F590E036E0239F69
:100FA000800D911D1124682F677023E09695879519
:100FB0002A95E1F7FC01EE0FFF1FE80FF91FEA5C2D
:100FC000F84F40E050E080E0219130E0062E02C072
:100FD000369527950A94E2F721703327042E01C035
:100FE000220F0A94EAF7822B4F5F5F4F433051057F
:100FF00059F7089580E008959091D70721E030E0F7
:10100000F90101C0EE0F8A95EAF7D90102C0AA0FD3
:10101000BB1F6A95E2F7EA2B01C0220F4A95EAF757
:10102000892F8E23E81305C0892F822B0E94730716
:1010300008952095822F8923F9CF8091950790916B
:101040009407981301C008958F5F8770FACF90912D
:101050008F078095892380938F07282F2770211170
:1010600011C0891779F09091D60792FF0BC0869531
:10107000869586950E94820710928F07109291079D
:10108000109290070895982F909580918B0789234F
:1010900080938B07089580918A07811531F0109213
:1010A0008A07109293071092920708959C01803E40
:1010B000910509F448C0D8F48133910509F47DC045
:1010C00048F48932910509F46DC08A9709F47CC00F
:1010D000C90108958933910551F18238910539F19B
:1010E000C597B1F78091D50785FFF2CF29C0843E1F
:1010F000910509F447C048F4823E910599F1833E79
:101100009105A9F121EE30E0E3CF863E910509F487
:1011100044C0873E9105E1F68091D50783FD61C00B
:101120009091D60791FF2BC024EE30E0D1CF809173
:10113000D5078370811152C08091D60783FFC8CF35
:1011400029E230E0C5CF8091D50780FD33C0909172
:10115000D60790FFBDCF23EE30E084FFB9CF20E06B
:1011600030E0B6CF8091D50782FDF5CFB1CF809129
:10117000D50782FD30C09091D60790FD2FC084FF27
:10118000A7CFEDCF8091D60781FFA2CF8091D50761
:1011900027EE30E084FDE3CF9BCF8091D50783FD20
:1011A000F7CF96CF8091D50785FD1EC08091D607D9
:1011B00083FF8ECF29E330E08BCF8091D50786FF68
:1011C00087CF2AE230E084CF8091D50786FF80CF99
:1011D00021E330E07DCF22EE30E07ACF20EE30E028
:1011E00077CF26EE30E074CF25E330E071CF9091D9
:1011F000D50792FF10C041E0282F2471243009F058
:1012000040E031E0282F2871283009F030E0431702
:1012100011F02CE0822793FF10C041E0282F2471A9
:10122000243109F040E031E0282F2871283109F0FD
:1012300030E0431711F02CE082273091D60730FFC1
:1012400010C051E0282F2171213009F050E041E019
:10125000282F2871283009F040E0541711F029E0B8
:10126000822731FF10C041E0282F2171213109F080
:1012700040E031E0282F2871283109F030E0431791
:1012800011F029E0822794FD877E08951F93CF9364
:10129000DF930E945608EC01811522E5920708F0C1
:1012A00047C0811540E5940708F0BEC0883E91050F
:1012B000E0F4803E910560F4853A910570F404975E
:1012C00038F481E0219709F080E0C82F50E0D52F55
:1012D000CE01DF91CF911F9108958D5C9109D0656A
:1012E0004397B0F3C0E0D0E0F3CFC11580E4D80756
:1012F000A8F4C11590E2D90708F0ACC0CE019A95C8
:1013000081159F4178F78D2F0E94F708182FCE0185
:1013100099270E945608EC01D12BDACFCE019927EC
:101320000E945608CC27DF70C82BD92BD06AD0CFAB
:10133000803842E59407C8F5803652E5950708F0F5
:1013400056C0C03482E5D807D0F4C03292E5D90740
:1013500008F046C08C2F8695869520E2829FC001BA
:101360001124C37021E030E0A90102C0440F551FD1
:10137000CA95E2F7EA01C82BD92BDD68A9CF8C2FDB
:1013800086958695877050E2859FC0011124C370B1
:1013900021E030E0A90102C0440F551FCA95E2F7D1
:1013A000EA01C82BD92BDC6893CF803C52E5950726
:1013B00058F48F71C03AD24578F590E0982F88277D
:1013C000EC01C46FD06A84CF805C9245809708F0AE
:1013D00089CFDC2FCC27CC27DF71C06FD06A78CFC4
:1013E000CF71D0E0DC2FCC27C16FD06A71CF86954A
:1013F0008695877020E2829FC0011124C37021E08E
:1014000030E0A90102C0440F551FCA95E2F7EA0176
:10141000C82BD92BDA685CCF0E94F708C82FD0E020
:10142000DC2FCC27D06254CF8F710E94F70893E055
:10143000CC0FDD1F9A95E1F7CC27DF70282F30E025
:1014400084FF04C050E1859F90011124C22BD32B4F
:10145000D0693ECF8D2F8F710E94F708182FCE01D3
:1014600099270E945608EC01D12BDCCF80E008952B
:10147000F894E82FE295EF70F0E041A18F7021E041
:1014800030E0B90102C0660F771F8A95E2F7CB0101
:10149000962F9095942391A392A1892B82A378945F
:1014A0000895A0E0B0E0E7E5FAE00C949C34372F13
:1014B000E82FF0E0E253F64F71110AC0E4918E2F4D
:1014C0002E2F6E2F722FCDB7DEB7E7E00C94B83415
:1014D000062F10E0E72EF12CD4902D2D86E0689F8A
:1014E000E0011124EFEFF0E0CE01BF010E947D3456
:1014F000000F111F45E5469FC001479F900D112425
:10150000081B190B402F440F400F8F010E191F09A4
:10151000D09ED001D19EB00D11248B2F349F80011D
:101520001124012F11277F01E01AF10A8701D09EB3
:101530007001D19EF00C11248F01041B1109A80128
:10154000349F8001359F100D1124012F1127E01BBE
:10155000F10BDE9EA001DF9E500D1124E52F6330BC
:101560007105C1F0CC3FD34058F461307105B1F042
:101570006230710509F0A5CFED2D2B2F852FA1CF5E
:101580006430710571F06630710509F49ACFEB2F64
:101590008F2D97CF2B2F8D2DEF2D93CFED2D2F2D21
:1015A00090CFEB2F8D2D252F8CCF982F8091010779
:1015B000811529F081E09B3108F080E0089581E0F9
:1015C0009633FACF1F93182FE42FF0E0EE0FFF1F92
:1015D000E755FE4F408134EE439F412D112490E0AA
:1015E00050E0445E5F4FE22FF0E0DA01A21BB10948
:1015F0009D01B7FF03C09F01241B350B43E0220F61
:10160000331F4A95E1F7821B930B97FF02C080E0DE
:1016100090E0282F219F212D1124822F1F910895C2
:10162000622F0895E42FF0E0EE0FFF1FE755FE4F05
:101630006081621B0895E42FF0E0EE0FFF1FE75872
:10164000FE4F61A9621B08954095282F429F412DAE
:101650001124842F08950E94140C0895FF920F9373
:101660001F93CF93DF93182F062FF42EC0E0D0E006
:101670002F2D402F612FCE010E942B0B2196C633B8
:10168000D105B1F7CDB7DEB7E5E00C94BA349BE0F5
:10169000899F802D1124980F973308F096E32091AD
:1016A0000107211104C08B3128F48BE108959C318E
:1016B00008F09BE10895962F209182072370211551
:1016C000A1F0811599F08A3098F48F73880F880FF4
:1016D000209182072370822B80938207109243010E
:1016E00060918107692B60938107089581E0EECFB7
:1016F00089E0ECCF80918207869586958F5F8A304E
:1017000008F081E061E00E945B0B08958091820700
:10171000869586958A9509F489E061E00E945B0BC5
:101720000895922F209182072370211571F08093E4
:10173000830760938407473908F046E9409385079B
:1017400020918107292B209381070895E2E8F7E093
:10175000818190E021E04381628108960E94910B93
:101760000895E2E8F7E0818121E0438162818850B9
:10177000990B0E94910B0895E2E8F7E0628124E161
:10178000620F08F46FEF818121E0438190E00E94B5
:10179000910B0895E2E8F7E0628124E1621B08F40E
:1017A00060E0818121E0438190E00E94910B0895E7
:1017B000E2E8F7E0438128E0420F08F44FEF81812F
:1017C00021E0628190E00E94910B0895E2E8F7E049
:1017D000438128E0421B08F440E0818121E06281DE
:1017E00090E00E94910B0895E2E8F7E024813AE04E
:1017F000230F08F42FEF2483809181078160809369
:1018000081070895E2E8F7E024813AE0231B08F419
:1018100020E024838091810781608093810708956F
:10182000539A109246030895CF93DF93DC01809181
:101830000107811120C0AB31B10504F15B97FD01B7
:10184000EE0FFF1FEF01CA0FDB1FCC55DD4F898163
:10185000861306C08881841303C08A81821771F0C1
:1018600081E080934603EA0FFB1FEC55FD4F618337
:101870004083228303C0AB31B1050CF3DF91CF91DC
:101880000895FA01811511F009950895FB01FCCF27
:1018900080910007811559F0E0912C07F0912D07F8
:1018A000309729F00190F081E02D0995089580E0AE
:1018B000089590914101911112C0A2E5B2E0EFEFBD
:1018C00090E02D91821751F0EF3F19F4211101C0E2
:1018D000E92F9F5F9630A9F7EF3FC9F408959091E3
:1018E000D50797FFEACFE82FE695E695E695803F86
:1018F000A8F7F0E0E85AFD4F877021E030E001C022
:10190000220F8A95EAF78281822B828308950E2E18
:10191000000CFF0BE05BFD4FF8CF9091410191155A
:1019200021F09091D50797FD0CC0E2E5F2E091918E
:10193000891302C0DF011E9252E0E835F507B9F7BE
:101940000895E82FE695E695E695803FC8F7F0E024
:10195000E85AFD4F877021E030E0A90102C0440F32
:10196000551F8A95E2F7CA01809592818923828367
:1019700008952FB7F8946091A0027091A102809110
:10198000A2029091A3022FBF0895CF92DF92EF920F
:10199000FF9280910007811559F00E94B90C6B01EC
:1019A0007C01C701B601FF90EF90DF90CF900895C2
:1019B0000E94B90CC0900207D0900307E090040782
:1019C000F0900507C60ED71EE81EF91EEACF0F934A
:1019D0001F938B019C014FB7F8946091A002709106
:1019E000A1028091A2029091A3024FBF601B710BD4
:1019F000820B930B1F910F91089587E797E79093C0
:101A000001088093000888E19AE00FB6F894A89541
:101A1000809360000FBE90936000FFCF80919F0283
:101A2000089508950895FC019B018091950290917D
:101A300096028617970740F0672B29F48091E800FB
:101A40008E778093E800C90140E0009741F441118E
:101A500006C08091E80082FF2FC080E008952091A9
:101A6000D5062115A9F12530A9F12091E80023FD23
:101A70002DC02091E80022FDECCF2091E80020FF4E
:101A8000E4CF3091F3002091F200009719F0283054
:101A9000310558F041E02830310509F040E020914F
:101AA000E8002E772093E800D0CF41914093F100D9
:101AB00001972F5F3F4FE9CF8091D506811541F007
:101AC000853041F08091E80083FFC3CF81E0089525
:101AD00082E0089583E0089580918F0287FF13C00C
:101AE0008091E80082FF06C08091E8008B778093A8
:101AF000E80008958091D5068111F2CF0895809174
:101B0000D5068115D9F38091E80080FFF8CF809148
:101B1000E8008E77ECCF2091E4003091E50095E667
:101B2000A9012091EC00822F817020FF06C08091D6
:101B3000E80080FF06C080E008952091E80022FDC3
:101B40001AC08091D506811589F0853089F0809181
:101B5000EB0085FD0FC02091E4003091E5004217B5
:101B60005307F9F29A95E1F684E0089582E008952A
:101B700083E0089581E00895E8EDF0E080818E7FB4
:101B800080831092E2001092DA001092E100A0EE41
:101B9000B0E08C9181608C9380818F77808319BCB9
:101BA000A7EDB0E08C918E7F8C9380818F7E8083B7
:101BB00010928E020895FC01AC014C5F5F4F8FEFD5
:101BC00061E39191892728E030E0982F990F87FFF2
:101BD00009C0892F862721503040B9F7E417F5074F
:101BE00081F70895892FF7CFEF92FF920F931F93FC
:101BF000CF93DF937C01809100010E94470B092F56
:101C0000309186073695369521E0320F08F43FEF84
:101C100060914E0370914F0340E050E0639F412D6F
:101C2000739F400D511D1124142FC82FD0E0C017F1
:101C300040F0802F0E94D50ACDB7DEB7E6E00C94C5
:101C4000B934FE01EB5EFD4F808190910101892343
:101C5000811591F0609183077091840780918507C9
:101C6000212F4C2FF70109950E94510A462F672F0B
:101C7000282FCE010E942B0B2196D9CF982F90931D
:101C8000E900891771F07091EC002091ED005091FE
:101C9000F00021FD09C09F5F973089F78093E9002C
:101CA0000895762F242F50E03091EB003E7F309343
:101CB000EB003091ED003D7F3093ED003091EB0073
:101CC00031603093EB007093EC002093ED00509363
:101CD000F0002091EE0027FDDECF0895A0E0B0E0F7
:101CE000E4E7FEE00C949B34C8EDD0E088818F7E61
:101CF0008883E7EDF0E080818160808384E082BFAB
:101D000081E080938E0288818E7F888302EE10E0CE
:101D1000F80110821092DA0081EEC82ED12CF60163
:101D2000108288818F778883888180688883888102
:101D30008F7D888319BC1092D50610928D02109267
:101D4000860310928C0290EEE92EF12CF70180812F
:101D50008B7F808388818160888342E060E080E0BF
:101D60000E943E0EF60180818E7F8083F801808183
:101D700081608083808188608083F70180818E7F8D
:101D80008083888180618883CDB7DEB7E8E00C94DA
:101D9000B734E09195079091940727E0E91302C0CA
:101DA00080E00895AE2FB0E02E9FF0011124EA5696
:101DB000F84F3181361306C03081381303C03581A6
:101DC000341304C0FD013196E770E8CF81E0089537
:101DD00080914603811539F13BB1377F2BB12860E3
:101DE0004FB7F89484EA92E0FC010196508168E0D4
:101DF0002BB9000000C057FF3BB9550F000000C0D1
:101E000000C000C03BB900C06A9591F753E086342A
:101E1000950751F74FBF8FE594E00197F1F700C0A8
:101E200000001092460308950F931F93CF93DF9302
:101E30008B01EA019091D506943059F58093E90021
:101E40008FEF9091E80095FD06C095ED9A95F1F71A
:101E500000008A95B1F78091E80085FF1AC00E94C2
:101E60008B0D811111C08091E80085FD06C0809125
:101E7000E8008E778093E800F2CFF80181918F011E
:101E80008093F100219779F78091E8008E77809315
:101E9000E800DF91CF911F910F910895CF93DF93C9
:101EA000D82FC92F48E050E0682F792F81E00E9499
:101EB000140F88E0ED2FFC2FA7E9B2E001900D92FE
:101EC0008A95E1F7DF91CF910895BC0140E250E09F
:101ED00084E00E94140F0895A0E0B0E0E2E7FFE084
:101EE0000C949934182F092FB62EA72E7A018091C1
:101EF00082029AE0C92ED12C8A3018F0CC24C394E7
:101F0000D12CC1E0D0E06B2D7A2D812F902FF701DD
:101F10000995811116C02196CC16DD0694F0CC9F50
:101F2000C001CD9F900D900D112420E030E045E3DD
:101F30004A95F1F700002F5F3F4F28173907B9F78F
:101F4000E2CFCDB7DEB7EAE00C94B5349091D60776
:101F500092FB222720F9281779F080FB92F99093C1
:101F6000D6076091D5077091D60784E090E00E9473
:101F7000CA3582E00E94270808951F93CF93DF930C
:101F8000962F122F632F8530D8F49830C8F446303E
:101F9000B8F4C42FD0E0CC0FDD1F2CE0929FC00D11
:101FA000D11D112490E6899FC00DD11D1124CE01B1
:101FB00088960E94AC35612FCE0189960E94AC357F
:101FC000DF91CF911F9108958F929F92AF92BF9210
:101FD000CF92DF92FF920F931F93CF93DF93809066
:101FE000D3069090D40681E090E09093D40680933D
:101FF000D306A12CB12C00E0650110E013C0FE0156
:10200000259134914F2D612F802F0E94BD0F229674
:10201000F39486E0F812F3CF86E0C80ED11C1F5F60
:10202000183039F0E601CC0FDD1FC251D84FF12C2A
:10203000E6CF0F5F80E3A80EB11C0530E9F6909261
:10204000D4068092D306DF91CF911F910F91FF901C
:10205000DF90CF90BF90AF909F908F900895CF93D7
:10206000DF93C8E0D2E060E0CE010E94AC3521965B
:10207000C11584E0D807B9F7DF91CF910895CF93C8
:10208000C82F60E8811101C06FEF84E290E00E94E8
:10209000AC3564E2C11101C06FEF85E290E00E94AF
:1020A000AC356DE0C11101C06FEF86E290E00E9497
:1020B000AC35CF91089580E00E943F1060E087E248
:1020C00090E00E94AC350E94E40F0E942F1081E046
:1020D0000E943F1008950F931F93CF93DF93853095
:1020E00030F5683020F5463010F5C42FD0E0CC0F25
:1020F000DD1F2CE0629FC00DD11D112430E6839FAF
:10210000C00DD11D1124CE0188960E948E35082F56
:1021100010E0102F0027CE0189960E948E3598017D
:10212000282BC901DF91CF911F910F91089580E075
:1021300090E0F8CF462F672F2091080730910907CC
:10214000232B91F4703F39F4403F71F480910607DE
:10215000909107070895783038F4463028F4853098
:1021600018F40E946B10089580E090E00895A0E0BC
:10217000B0E0EDEBF0E10C949C347C010091D707CA
:1021800080918D07082BC4E0D0E010E0C8010C2E30
:1021900002C0959587950A94E2F780FD09C02197C2
:1021A000A8F7D12C8D2DCDB7DEB7E7E00C94B8346D
:1021B000DC2EB7018C2F0E949A100E9446090197CD
:1021C00071F3F0CF0F931F93CF93FC0185810081B2
:1021D0001181811591F0611581F0C8010E94B7103D
:1021E000C82F682FC8010E949207B8018C2F0E9447
:1021F0009A10CF911F910F910895C8010E94C807AE
:10220000C82FF3CFCF93DF93D82FC92F0E94B710D9
:102210006D2F7C2F0E949A100E944609DF91CF916A
:102220000895FC0184818115A1F0808191810E9433
:102230000211282F92959F70963099F060F4925F6A
:102240009F70923030F4203FB1F038F481E0283EA6
:1022500038F080E008959A5FF3CF81E0243FC9F71A
:10226000089591E0213F09F090E081E0283E08F0D8
:1022700080E0892B089581E0089584E290E00E9437
:102280008E35803889F485E290E00E948E35843264
:1022900059F486E290E00E948E3591E08D3009F08D
:1022A00090E0892F8170089580E0FCCFA4E0B0E039
:1022B000ECE5F1E10C94A0346091DA067091DB0654
:1022C0008091DC069091DD060E94E70C11E06436F7
:1022D00071058105910578F10E94C50CDC01CB01E7
:1022E0000296A11DB11D89839A83AB83BC83809123
:1022F0003201909133018651994F20913101422F43
:1023000050E0253010F044E050E0BE016F5F7F4F99
:102310000E946E3583E090E00E940934182F8115E9
:1023200051F00E94B90C6093DA067093DB0680933B
:10233000DC069093DD06812F2496E3E00C94BC34F8
:102340008F929F92BF92CF92DF92EF92FF920F9364
:102350001F93CF93DF93C82F7B01B42ED52FB901E4
:102360006801A8018B2D9D2F0E9461354C01F7015A
:1023700060817181828193810E94E70C64367105CE
:102380008105910510F4892829F10C2F0C2E000CE1
:10239000110B88E0C802F0011124E75EFE4F818135
:1023A00092818651994F2081422F50E0C216D1046C
:1023B00008F4A6016B2D7D2F0E946E35C8010E9486
:1023C0000934811541F00E94B90CF70160837183D3
:1023D0008283938381E0DF91CF911F910F91FF90D2
:1023E000EF90DF90CF90BF909F908F9008950F93C4
:1023F0001F93AC0104E010E02FEE36E06EED76E0C6
:1024000082E00E94A0111F910F910895A9E0B0E011
:10241000ECE0F2E10C949F3488E0E2E8F7E0DE01C2
:10242000119601900D928A95E1F7198609E010E066
:1024300027EF36E0AE014F5F5F4F66ED76E084E058
:102440000E94A0112996E4E00C94BB34EF92FF9215
:102450001F93CF93DF9300D000D00F92CDB7DEB79C
:102460007B0180E090E00E940934182F811509F467
:1024700060C080911C01482F50E0811511F041E0AF
:1024800050E060911D0170911E016651794FCE019F
:1024900005960E946E356091E6067091E706809180
:1024A000E8069091E9060E94E70C64367105810503
:1024B000910538F48BEE96E00E94DB0D9D81891723
:1024C000C1F181E090E00E940934811509F43FC018
:1024D00080912401482F50E0853010F044E050E016
:1024E00060912501709126016651794FCE010196C8
:1024F0000E946E358BEE96E00E94DB0D9D81891364
:1025000026C00E94B90C6093E6067093E70680939C
:10251000E8069093E90689819A81AB81BC8180931A
:10252000E2069093E306A093E406B093E50681E00B
:102530000FC08091EB069091EC06A091ED06B09152
:10254000EE0689839A83AB83BC831111E4CF80E0CC
:102550004091E2065091E3066091E4067091E50631
:10256000F70140835183628373830F900F900F9024
:102570000F900F90DF91CF911F91FF90EF900895F2
:10258000CF93DF93682F81E06A3019F06D3031F41A
:1025900080E00E944013DF91CF9108958091F30372
:1025A0009091F40326E0FC01A5E8B2E001900D92C1
:1025B0002A95E1F7603E08F458C026E0FC0111922C
:1025C0002A95E9F7C091F303D091F40346E050E077
:1025D000BE0185E892E00E9461359E012D51344094
:1025E000892B41F1C90145E0969587954A95E1F718
:1025F00041E050E0BA0102C0660F771F8A95E2F70A
:10260000CB0160911F0670912006862B972BB90194
:102610006B5F7F4FE5E076956795EA95E1F702C03D
:10262000440F551F6A95E2F7842B952B9093200653
:1026300080931F062A5F3F4F4091F503642F70E09F
:10264000C9010E947D34481B463010F4240F311D0F
:10265000211572E0370710F020E030E0235E3B4F99
:102660003093F4032093F30396CFF6E06F9FB0010D
:102670001124635B7E4F46E050E00E945835A2CFA4
:10268000CF93382FE091F303F091F403ED51F44030
:102690002091F503622F70E0CF010E947D34281B4A
:1026A000822F311561F066E00E94C834C82FC150F6
:1026B00010F4CF91089580E20E94C012F8CF8E0FDF
:1026C0009F2F911D811522E0920710F080E090E08D
:1026D000835E9B4F9093F4038093F303EACFCF93F1
:1026E000DF93EC01FE018491811103C0DF91CF9152
:1026F00008950E94C0122196F5CF8091D7070E94BD
:102700005D078350990B029728F48EE09EE00E94AB
:102710006F13089588EF9DE0FACF8091D7070E944C
:102720005D07823091F038F481110CC082EE9DE09B
:102730000E946F130895833059F0843081F088E44B
:102740009DE0F6CF8CEC9DE0F3CF86EB9DE0F0CFE3
:1027500080EA9DE00E946F138AE89DE0E9CF84E75C
:102760009DE00E946F138EE59DE0E2CF48E050E0CF
:1027700067E170E082E897E00E949C351092810743
:102780000895AB0124E630E0BC0188E70E942532C1
:102790009C0181E0232B09F080E008950F931F93A3
:1027A000CF93DF93EC01FC0101900020E9F78F014A
:1027B00001501109C017D10728F0DF91CF911F9167
:1027C0000F91089589910E94C012F4CF1F921FB6F5
:1027D0001F9211248F939F93AF93BF938091850392
:1027E000811113C08091A0029091A102A091A20238
:1027F000B091A3024196A11DB11D8093A0029093B8
:10280000A102A093A202B093A302BF91AF919F91A6
:102810008F911F901FBE1F9018952FB7F89480912D
:10282000A0029091A102A091A202B091A3022FBF99
:102830000895CF93DF93C0918B0780918E07C82BAB
:1028400080918A07811509F10E940D142091920749
:1028500030919307821B930B8838934110F00E94AC
:102860004B08D0918A0780914101811521F0809118
:10287000D50787FD0EC086E022E532E090E081506A
:1028800060F491110E944B08CD2B8C2FDF91CF91DA
:1028900008958EE12AE532E0F1CFF90141919F01DF
:1028A000411569F39F5FEBCF80914101811559F18B
:1028B0008091D50787FF27C00E9419148093590281
:1028C00040E250E06CE077E088E592E00E946135FC
:1028D000892BC1F080E2E8E5F2E0ACE0B7E00190DE
:1028E0000D928A95E1F7E0912C07F0912D07309732
:1028F00049F086E0809358020480F581E02D88E558
:1029000092E0099508950E9419148093500248E0BE
:1029100050E06EE277E080E592E00E946135892B1D
:1029200089F388E0E0E5F2E0AEE2B7E001900D92D5
:102930008A95E1F7E0912C07F0912D07309711F37C
:102940000280F381E02D80E592E0DBCFCF93C82FAA
:102950008115D1F08CEF8C0F813AA0F58091410167
:10296000811521F08091D50787FD10C0E2E5F2E0E6
:102970008191C81709F182E0E835F807C9F78C2F73
:102980000E94590C0E945414CF910895EC2FE695A3
:10299000E695E695F0E0E85AFD4F828190E04C2FF5
:1029A000477021E030E002C0220F331F4A95E2F762
:1029B00082239323892B19F38C2F0E948D0C0E9464
:1029C0005414DDCF80E28C0F8830F0F6C77021E020
:1029D00030E001C0220FCA95EAF780918B07822B65
:1029E00080938B07CFCF811541F09CEF980F913AE0
:1029F00028F40E948D0C0E945414089590E2980FC0
:102A00009830D8F7877091E001C0990F8A95EAF75E
:102A1000892F0E944308EFCF0F931F93CF93C82FA6
:102A20008B010E94A6140115110539F48C2F0E9408
:102A3000F314CF911F910F9108958FE99FE00197B3
:102A4000F1F700C0000001501109EDCFA0E0B0E0A7
:102A5000ECE2F5E10C949A34EC018881811509F4DB
:102A6000A9C0813009F04AC08981813079F48E0192
:102A70000E5F1F4F8A8160E570E0893311F060E0DE
:102A800070E00E940C15E8012196E7CF823039F4FE
:102A90008E010E5F1F4F8A810E94A614F4CF8330EF
:102AA00039F48E010E5F1F4F8A810E94F314EBCF21
:102AB000843011F02196E8CF2A81229680E090E0C0
:102AC0006AE0AE014F5F5F4F2053330B2A30310570
:102AD00050F00097C9F2EFE9FFE03197F1F700C03D
:102AE00000000197F6CF689FF001699FF00D112457
:102AF000C9018E0F9F1F2981EA01E3CFE82FF0E083
:102B0000E354F94FB490282F26952695269530E06A
:102B1000F901E355F94FE4908770F12C082E02C0BB
:102B2000F594E7940A94E2F7E0FAEE24FF24E0F843
:102B3000F901E356F94FC490D12C082E02C0D59468
:102B4000C7940A94E2F7C0FACC24DD24C0F8F90156
:102B5000E357F94F049110E002C0159507958A9547
:102B6000E2F701701127E114F10419F081EE0E94DF
:102B7000A614C114D10419F086EE0E94A61460E0D8
:102B800070E08B2D0E940C15C114D10419F086EE53
:102B90000E94F314E114F10419F081EE0E94F31481
:102BA0000115110509F470CF60E070E08CE20E941D
:102BB0000C156ACFCDB7DEB7E9E00C94B6348115B9
:102BC00039F090918B07892B80938B070E945414C6
:102BD0000895811521F00E9443080E94541408951D
:102BE000811539F090918E07892B80938E070E9472
:102BF00054140895811541F0809590918E07892392
:102C000080938E070E945414089510928B07809130
:102C10004101811581F08091D50787FF0CC0EAE55D
:102C2000F2E08EE1DF011D928A95E9F710928E079E
:102C30000E9454140895E2E5F2E086E0F3CF0E948A
:102C400005162FEF84E39CE0215080409040E1F78F
:102C500000C0000088E19AE00FB6F894A895809330
:102C600060000FBE90936000FFCFAAE2B0E0EBE3FC
:102C7000F6E10C94A0348FE892E0FC0101962091DB
:102C8000F100208322E087399207B9F78091900202
:102C9000893009F456C0C8F4823009F4B3C08330D7
:102CA00009F482C0813071F18091E80083FFE7C0B0
:102CB00080918F02909190029A3008F0E0C0E92F45
:102CC000F0E0EE52FA4C0C9429358A3009F489C0B0
:102CD0008B3051F780918F02813231F780919302CE
:102CE00090919402892B01F78091E800877F80936F
:102CF000E8000E946C0D80919102809341010E9436
:102D00000516D2CF80918F02813A71F68091E8004A
:102D1000877F8093E8008091930290919402892BA1
:102D200061F060E080E090E070E00E94130D80911F
:102D3000E8008B778093E800B7CF68E087E992E0FE
:102D4000F3CF80918F02813209F0AECF8091930250
:102D5000909194028D7F892B09F0A6CF8091E80095
:102D6000877F8093E8008091E80082FF18C09091EF
:102D7000F3008091F200029731F48091F1008130EC
:102D800011F0863021F48091F10080939F028091B0
:102D9000E8008B778093E8000E946C0D85CF8091CE
:102DA000D5068111E0CF80CF80918F02813A09F062
:102DB0007BCF8091930290919402892B09F074CF7C
:102DC0008091E800877F8093E8008091E80080FF91
:102DD000FCCF809141018093F1008091E8008E77D3
:102DE000D9CF80918F02813209F05ECF8091E800C7
:102DF000877F8093E8000E946C0D809192028093FF
:102E00008B0252CF80918F02813A09F04DCF809191
:102E1000E800877F8093E8008091E80080FFFCCF86
:102E200080918B02D8CF803889F0823841F580912B
:102E300093028F70873018F58093E9008091EB0042
:102E400085FB882780F91092E90006C080918603EF
:102E5000880F90918C02892B9091E800977F909336
:102E6000E8008093F1001092F1008091E8008E77E5
:102E700023C0811116C080919102813011F180919F
:102E8000E80083FF0AC08091E800877F8093E80014
:102E90008091EB0080628093EB00AA96E3E00C94B3
:102EA000BC34823061F780919102811589F01092D3
:102EB000E9008091E800877F8093E8000E946C0D14
:102EC000DECF81E0933009F080E080938603EFCF7E
:102ED000809193028F702FEF280F263080F6809319
:102EE000E9002091EB0020FFE2CF933031F4809194
:102EF000EB0080628093EB00DACF9091EB00906161
:102F00009093EB0021E030E0A90102C0440F551F6F
:102F10008A95E2F74093EA001092EA008091EB0074
:102F20008860E8CF8111ABCF109191021F7780911B
:102F3000E3008078812B8093E3008091E800877F15
:102F40008093E8000E946C0D8091E80080FFFCCF28
:102F50008091E30080688093E30083E0111101C059
:102F600082E08093D5068BCF8058823008F087CFDF
:102F700080919102909192028C3D53E0950799F5D2
:102F800083E08A838AE289834FB7F894DE0113963F
:102F900020E03EE051E2E32FF0E0509357008491AF
:102FA00020FF03C082958F703F5F8F708A30C8F01A
:102FB000895C90E08D939D932F5F243161F74FBF23
:102FC0008091E800877F8093E8006AE270E0CE019C
:102FD00001960E94130D8091E8008B778093E800A2
:102FE0004ECF805DE6CF292F33272330310509F4FA
:102FF0004EC078F52130310509F488C08BE590E0AA
:10300000EDE3F7E02230310509F039CF2091E800F7
:10301000277F2093E8002091950230919602821735
:10302000930708F49C0140E02115310509F073C0B5
:10303000411171C08091E80082FDCDCF8091D5060D
:10304000811549F2853039F28091E80083FFF2CF93
:10305000C2CF80919302909194022132310509F4FC
:1030600046C02232310509F00ACF8330910508F0BD
:1030700006CFFC01EE0FFF1FED5AFE4F0190F081CD
:10308000E02D805B9E4FDC018C9190E010C09C0194
:103090003327823021F12330310568F4232BB9F432
:1030A000EAEEF7E0E4918E2F90E0EAEEF7E0009789
:1030B00009F4E5CEABCF2330310509F0E0CEEAEAE2
:1030C000F7E0E4918E2F90E0EAEAF7E0F0CFE6ED4A
:1030D000F7E0E4918E2F90E0E6EDF7E0E8CFE8EC42
:1030E000F7E0E4918E2F90E0E8ECF7E0E0CF83305A
:1030F000910508F0C4CEFC01EE0FFF1FE75AFE4F0A
:103100000190F081E02D89E090E080CF82E190E0B5
:10311000E8E9F7E07BCF8091D506811509F45BCF14
:10312000853009F458CF8091E80083FD54CF809119
:10313000E80082FD7FCF8091E80080FF75CF9091FD
:10314000F3008091F2002115310519F088309105C6
:1031500050F041E0089709F040E08091E8008E7758
:103160008093E80061CF44914093F1003196215063
:1031700031090196E8CF803809F081CE8091E800CE
:10318000877F8093E80080918D028093F1006DCE5F
:10319000811175CE10919102123008F070CE80919D
:1031A000E800877F8093E80010938D020E946C0DE9
:1031B0001115D1F084E08093D50642E061EC81E006
:1031C0000E943E0E42E261EC84E00E943E0E42E22A
:1031D00061EC82E00E943E0E42E260EC83E00E94DD
:1031E0003E0E8091D5064BCE8091E30087FDE2CF65
:1031F00081E0E1CF962F2091D60722FF10C0682FE3
:10320000660F660F660F692B60938F070E94760723
:103210000E940D14909391078093900708950E9447
:103220007607089590918A07292F2823211561F0A8
:103230008095892380938A07811539F00E940D14A7
:103240008093920790939307089580E090E0F8CFE1
:103250009C014FB7F8948091A0029091A102A09197
:10326000A202B091A3024FBF821B930B0895A0E06E
:10327000B0E0EDE3F9E10C949334409047035090B3
:1032800048036090490370904A03809100078115BC
:1032900009F44CC0C301B2010E94E70C6B017C0130
:1032A0000E94C50C609347037093480380934903C1
:1032B00090934A03A091B703E7EBF3E04A2F50E065
:1032C00044244A94542C612C712C4C185D086E08CF
:1032D0007F08A51334C04093B70320918207322F93
:1032E0003370F32E311519F0F22EF694F6943091D6
:1032F0004301323009F431C290F5311138C01092D7
:10330000000160934E0370934F038093500390939A
:10331000510389E2E7EBF3E0ACE5B3E001900D92F5
:103320008A95E1F781E0809343011CC00E94C50C9F
:103330006B017C01C418D508E608F708B1CF218DD0
:10334000328D421653066104710420F441505F5FD0
:103350003296BFCF2C0D3D1D328F218FF8CF3330E9
:1033600009F403C2CDB7DEB7E0E10C94AF3480912D
:103370000401F81221C023704091030150E081E064
:103380002417150609F480E08093020180918707D5
:1033900090910101981739F08093010140E060E0BD
:1033A00080E00E942E0B8AE0F81688F4EF2DF0E002
:1033B000E452FA4C0C94293581E0E6CF8091020169
:1033C000811529F040E060E080E00E942E0B80E053
:1033D0008DC0809100010E94470BC82F192F60916A
:1033E000830770918407809185070E94510A062FF8
:1033F000E72ED82ED0E01C1709F020F4812F0E9470
:10340000D50A74C0FE01EB5EFD4F808190910101F1
:103410008923811531F02D2D402F6E2DCE010E9474
:103420002B0B2196E8CF809100010E94470BC82EFC
:10343000D92F609183077091840740918507E091AF
:103440004E03F0914F038091860786958695869569
:1034500020E030E0E89F212DF89F200D311D112440
:10346000322F36FD2095822F8F7036FD8F5FE22F31
:10347000E695E695E695E670F0E0E15AFE4F91811B
:10348000989F902D812D112492959F708295807F19
:10349000982B2081290F37FD219527FD2195220F9B
:1034A000249F212D1124822F0E94510A162F072FAD
:1034B000E82ED12CDC1509F010F48D2FA0CFF601E9
:1034C000EB5EFD4F8081909101018923811531F0E0
:1034D0002E2D412F602FC6010E942B0BAFEFCA1A71
:1034E000DA0AE8CF82EE9AE00E94F40D9091000192
:1034F0009F5F90930001811135CF82E0809343015B
:103500008091020181112ECFF1102CCF83E00BCFDF
:1035100080E19BE0E9CF82E19BE0E6CF8BE19BE09D
:10352000E3CF809100010E94470B682EE92E809125
:103530000201811561F040E060E080E00E942E0B06
:10354000E7E8F3E080E3DF011D928A95E9F78091D7
:103550000001811117C080914C0390914D030E948E
:1035600028198C0181E00931110508F480E080936D
:103570004B030931110530F00E940D1490934D0357
:1035800080934C03A12CB12C712C35E5432E4AEAD3
:10359000542E650100E0F601E758FE4FC081C615C4
:1035A00008F43EC0CE1508F03BC0D0E0FE01EB5E53
:1035B000FD4F8081909101018923811509F42FC06D
:1035C000F601E957FC4F4F011081612F242D621B3A
:1035D00008F460E070918407352D310F08F43FEF57
:1035E00040918507232F220F230F2E5F249F212D2B
:1035F0001124352D361B632F822F0E94510A462F2E
:10360000672F282FCE010E942B0B80914B03811531
:1036100031F021E0121B08F410E0D4011C937394E4
:103620000F5FBFEFCB1ADB0A063009F0B4CFEAE236
:10363000AE16B10411F48E2DE2CEF6E0AF0EB11C41
:103640002BE0721608F4A5CFF6CF809100010E94FE
:10365000470B082FE92E2091860731E0230F08F44D
:103660002FEF30E040E050E06FEF7FEF80E090E040
:103670000E940A35690110E099249394A12CB12C81
:10368000822E7D2C902F0E15B0F6F801EB5EFD4FCB
:103690008081209101018223811539F140915C03E1
:1036A0004150042E000C550B47FF22C0C82DD72DCA
:1036B00020918607392D230F08F42FEFA501C29F13
:1036C000412DD29F400D511D1124609183077091AF
:1036D0008407809185070E94240B0E94510A462F7F
:1036E000672F282FC8010E942B0B0F5F1F4FCACFD7
:1036F000FA01E45AFC4F818998130AC0FA01EE0FCF
:10370000FF1FE45AFC4FC18DD28DCC15DD0580F230
:1037100041505109C9CF809100010E94470B192FD8
:10372000C82FD0E0C11728F081E0163308F4DECEB0
:103730004ECEFE01EE0FFF1FEC0FFD1FE75DF94FB0
:103740006081718182810E94510A462F672F282F44
:10375000CE010E942B0B2196E5CFF092040123703D
:10376000209303010E94E80ED1CE80918107811140
:103770000E94B613C0904E03D0904F03E0905003C8
:10378000F090510380910007811581F0C701B601C7
:103790000E94E70C4B015C0190E189169104A104A1
:1037A000B10408F4DFCD10924301DCCD0E94C50CBA
:1037B0004B015C018C189D08AE08BF08EDCFFF924D
:1037C0000F931F93CF93DF93C62FD42F122F811502
:1037D000A9F060937F070E940D1490938402809358
:1037E0008302C77081E001C0880FCA95EAF70E9482
:1037F000DF15CDB7DEB7E5E00C94BA3480917F07D2
:10380000681332C080918302909184020E9428192B
:10381000843B910548F500E20D0FCD17A9F0C77064
:10382000FF24F3948F2D01C0880FCA95EAF70E94F8
:10383000E915083048F48D2F877001C0FF0C8A9578
:10384000EAF78F2D0E94DF1560E070E0812F0E9463
:103850000C15083070F6D77081E001C0880FDA953A
:10386000EAF70E94E915C5CFC77081E001C0880F53
:10387000CA95EAF7F6CFA4E0B0E0E1E4FCE10C94ED
:1038800095346C01FC018481811509F45CC161E00F
:10389000C6010E94E2108C01F6013581311509F450
:1038A00047C5AC015A954115FFE45F0708F057C0C2
:1038B0009927BC01645071096432710518F08B9727
:1038C0000E9780F4E0917A07F0E0EE0FFF1FE85BBF
:1038D000F84F808191818F3F2FE7920719F0019671
:1038E00091838083F601818180937E07808180931C
:1038F0007D0780E28093420110937C0700937B0751
:10390000C80190528115904230F0C8019054811541
:10391000904108F0E4C0F6018681803130F0F80172
:10392000FF27ED33F10508F4E8C010927F07C801C6
:103930009057839708F0DCC184E090E00E949635B0
:103940009093D6078093D507F801E150F047E23213
:10395000F10508F013C1EA51FA4C0C942935811590
:1039600021E0920708F4A5CF97578038910508F019
:10397000B9CFF02E40E1041708F0D5C08FEF93E0E7
:103980000E948E358111CFC008E012E0F11035C0E1
:1039900024E0622ECE0101965C01F501262D1192E4
:1039A0002A95E9F748014FEF841A940AC8010E944A
:1039B0008E358983811509F4B6C0813009F089C03C
:1039C000780152E0E50EF11CC4010E948E35782E7C
:1039D0008A83811509F4A7C08FEF870D8330D8F44F
:1039E000C7010E948E358B83811519F0C5010E9495
:1039F00026150D5F1F4F780170C0011554E01507A3
:103A000009F491C0C8010E948E350F5F1F4F8111CC
:103A1000F4CFFA94BBCF8BEF870D833070F548015C
:103A200093E0890E911CC7010E948E358B8381150E
:103A300009F452C00C5F1F4F7801C4010E948E35FB
:103A40008C83811509F449C00B811C810130FFEF83
:103A50001F0710F0102F002726E0721651F047E0E4
:103A6000741619F0C8010E941D24C8010E94502438
:103A700034C0C8010E941D2430C054E075122DC00E
:103A8000C7010E948E35982E780184E0E80EF11C63
:103A9000C80103960E948E35282F911409F443C063
:103AA000811509F440C02150330B4FEF429FC001F4
:103AB000439F900D1124E92DE150FF0B8E0F9F1FA6
:103AC000019758F0EFE9FFE03197F1F700C00000EF
:103AD000F7CFC5010E942615740187015ECF4115FD
:103AE0005F4108F41CCFC801805A9245809708F4C2
:103AF0001CCF0D33110530F4F801E45FF24FE4916F
:103B0000E0934201F801E851FC47E730F10508F085
:103B10000CCFE85FF94C0C94293526E241EE61EEBA
:103B2000832F0E94DF1B80918F078770811559F0CA
:103B3000F6018581811539F08091D60782FF03C097
:103B400082E00E9427082496EEE00C94B13427E22C
:103B500045EE65EEE5CF26E241EE60EEE1CF27E2ED
:103B600045EE64EEDDCF26E241EE62EED9CF27E2EC
:103B700045EE66EED5CF28E241E0EBCF8091D50748
:103B800081608093D5076091D5077091D60784E056
:103B900090E00E94CA350E940516C5CF8091D607D5
:103BA00088608093D607EFCF8091D5078260E9CFF8
:103BB0008091D5078460E5CF8091D5078860E1CFFB
:103BC0008091D6078160EDCF8091D6078260E9CFE2
:103BD0008091D5078061D5CF8091D5078062D1CF04
:103BE0008091D5078064CDCF0E9405168091D507BE
:103BF0008068C7CF8091D5078C60C3CF8091D607EE
:103C00008360CFCF8091D5078E7FBBCF8091D607C1
:103C1000877FC7CF8091D5078D7FB3CF8091D507A0
:103C20008B7FAFCF8091D507877FABCF8091D607B1
:103C30008E7FB7CF8091D6078D7FB3CF8091D50788
:103C40008F7E9FCF8091D5078F7D9BCF8091D507A9
:103C50008F7B97CF0E9405168091D5078F7791CFE4
:103C60008091D507837F8DCF8091D6078C7F99CFA8
:103C70008091D507992782FF939590FB82F990FB5D
:103C800083F97FCF8091D607982F909590FB80F98C
:103C900090FB81F986CF9091D507892F8F7B96FF76
:103CA00080646FCF0E9405169091D507892F97FBEE
:103CB00087F9805866CF61E08EE090E00E94AC35D5
:103CC00062CF60E0F9CF9091D507892F8F7E94FF66
:103CD000806157CF9091D507892F8E7F90FF8160AB
:103CE00050CF9091D607892F877F93FF886059CF57
:103CF00006314CE7140709F034C380918B078A7AA8
:103D000091E0811101C090E090938007811531F01E
:103D100085E30E94590C0E94541405CF89E2F9CF23
:103D200085E30E948D0CF7CF8091820791E089276F
:103D30008093820710924301809181078160809374
:103D40008107F1CE46E85BE06AE77BE00E94410C28
:103D5000EACE4AE75BE066E87BE0F8CF41EB5BE068
:103D600066EA7BE0F3CF46EA5BE061EB7BE0EECF17
:103D70004AEC5BE06CEB7BE0E9CF4CEB5BE06AECA0
:103D80007BE0E4CF46EE5BE068ED7BE0DFCF48ED23
:103D90005BE066EE7BE0DACF42E05CE064EF7BE084
:103DA000D5CF44EF5BE062E07CE0D0CF61E081E022
:103DB0000E945B0BB8CE61E082E0FACF61E085E063
:103DC000F7CF07375CE7150709F48AC008378CE797
:103DD000180709F489C03115B1F00A359CE71907B5
:103DE00009F4ADC008F084C00130FCE71F0709F4F6
:103DF000A4C003302CE7120709F499C001154CE761
:103E0000140709F487C0F6018581E080F1808115EF
:103E100009F499C0C7010E94B710182F682FC70175
:103E20000E949207B701812F0E949A100E944609B2
:103E3000F82E192FF601A580B680B2948FE0B82233
:103E400080918F078770811509F1EA2CA114F9F090
:103E5000892F807F803469F080E28F0D8830B0F048
:103E6000892F807E803229F4F2E0FF1678F0B114B9
:103E700069F08091D60782FF09C082E00E9427087E
:103E800080918F078770EE24E3948111E12C812FBC
:103E900082958F70883009F441C108F059C0823092
:103EA00008F468C0825F8F70823008F49BC0E11410
:103EB00009F409C280918F0780FD05C2F6011582C1
:103EC0008695869586950E947607C6010E943B1CC2
:103ED00080918F078695869586950E948207F3C10B
:103EE00081E00E94820745C282E03115D1F33FC2D2
:103EF0000B355CE7150729F10C358CE7180709F03D
:103F000082CF8091D607002482FF0394802D0E94E7
:103F1000A60F79CF0E9405169FEFE4E3FCE09150D5
:103F2000E040F040E1F700C000000E94FD0C6FEFA0
:103F30007FEF80E090E00E94CA350E941F1681E06A
:103F4000E6CF80E0E4CFC7010E94C807182F6ACFF0
:103F5000893009F454C18A5F8F70823008F0A7CF8E
:103F600022EFF2125DC1812F8F71A11056C10E9404
:103F70007607DAC0012F0F70103110F00295007F24
:103F8000A114B9F0011569F080E28F0D883010F0AE
:103F9000F11009C080918B07802B80938B070E94C2
:103FA00054148F2D42C080918E07802B80938E07F2
:103FB000F6CF8F2D0E94F314011509F478CF80E21B
:103FC0008F0D883010F0F11004C0802F0E9443083C
:103FD00006C0009580918E07802380938E070E94F3
:103FE000541465CF012F0F70107F103211F002951D
:103FF000007FF11451F041E0F41609F46EC0A114F1
:1040000009F47AC0B114F9F0CCCF8091D60782FDC3
:1040100016C0A11469F0011539F080918B07802B2F
:1040200080938B070E94541480E00E94A6143FCF17
:1040300080E00E94F314011509F439CFC6CFA11412
:1040400071F1B11004C0802F0E94DF1530CF51E014
:10405000B51211C010918A07802F8123081709F427
:1040600026CF0E940D149093930780939207102BF4
:1040700010938A071CCF85E0B81219CF802F0E94B9
:10408000DF15802F0E94121980918C07902F9823A2
:10409000091709F40CCF802B80938C0708CFB1103F
:1040A00012C0802F0E94E915802F0E941219809162
:1040B0008C07902F9823911509F4F9CE00950823C9
:1040C00000938C07F4CE91E0B912F1CE80918B076A
:1040D0008023811509F4EBCEE4CFA11429F0E6E0AA
:1040E000BE1608F0E4CEAFCFF5E0BF1608F0DFCE85
:1040F000802F0E94E915DBCEB114D1F329E3F2122F
:1041000009C04FEF57EE83E0415050408040E1F747
:1041100000C000008F2D0E94F314C9CE812F837040
:10412000811135C0A11419F00E94480CC0CE4F2D4A
:10413000429546954770440F440F8F2D8F70042E83
:1041400001C0880F0A94EAF72F2D2071F4FE07C0F2
:104150002FE030E001C0220F4A95EAF7209516952E
:1041600016951370123071F0133051F030918D07A5
:10417000113029F0822B83230E947007D5CF832B27
:10418000822BFACF822B90918D078927F5CFA1142E
:1041900051F110FFC9CF4F2D429546954770440FFE
:1041A000440F8F2D8F70042E01C0880F0A94EAF7F8
:1041B0002F2D2071F4FE07C02FE030E001C0220F48
:1041C0004A95EAF72095169516951370123091F0DE
:1041D000133071F03091D707113049F0822B8323CF
:1041E0000E947307A1CF823008F49ECFD4CF832BD7
:1041F000822BF6CF822B9091D7078927F1CF1F70A2
:10420000A11439F0812F0E9476078F2D0E94DF15AF
:104210008BCF8F2D0E94E915812F0E94820784CFBA
:1042200093EFF91680F4E0EFFE16E1F0F1EFFF16E0
:10423000A1F0A11409F467C0B11409F461C08F2D75
:104240000E94A61471CF23EFF216F1F044EFF4129E
:10425000F0CF8091D60782FD23C0812F8F71A114EA
:10426000E1F285CEA11469F055E0B51608F05CCFF7
:104270001F7181E090E0012E01C0880F0A94EAF7D7
:10428000BACF86E0B816F2CF80E0A11409F4A8CF27
:104290001F7181E0012E01C0880F0A94EAF7A0CFB8
:1042A000A114F9F080918F078770843089F41092FF
:1042B0008F071092910710929007812F8F710E94A3
:1042C00082070E94480C60E0C6010E94E2103BCCCD
:1042D00095E0B916B0F763E0812F8F710E94FA184C
:1042E000F0CFE5E0BE1640F010928F0710929107D4
:1042F0001092900764E0F0CF81E00E942708E1CFA0
:10430000812F8F7134CEB11481F0F9E3FF1209C00F
:104310002FEF47EE53E0215040405040E1F700C0FE
:1043200000008F2D0E94F314FFCE812F8F7175CF67
:10433000FC01E851FC47E730F10508F4EACB06310F
:104340002CE71207E1F080918B078272F801E052AE
:10435000F847E531F10508F034CDE15FF94C0C94F4
:10436000293507372CE7120709F030CD81E00E948C
:10437000760743E062E081E00E94FC07D4CB8091A5
:1043800080078111CDCC89E2CCCC8091D4078031DB
:1043900078F48091D307811559F0E0919507209129
:1043A00094073091CF074091CE0757E02E1301C0FC
:1043B00008956E2F70E05E9FF0011124DF01AA5670
:1043C000B84F14968C911497811561F111968C91C8
:1043D0001197831327C08C91841324C015968C9158
:1043E000159781111FC012968D919C91A091D007B5
:1043F000B091D1078A1B9B0B843B910598F4809167
:10440000D4078F7080618093D407E456F84F808181
:104410008F70806180838EEC97E00E943B1C0E942D
:104420001D080895FB013196E770C0CFADE0B0E004
:10443000ECE1F2E20C9495348C0186E0F801DE01A7
:10444000189601900D928A95E1F7F801F580848124
:104450009EEC892E97E0992E6090D207611018C0CB
:10446000811599F0F11409F415C1C8010E941111C8
:10447000811509F40FC187E0F801AEECB7E00190B7
:104480000D928A95E1F70E94C521FF24F39456C04E
:104490007080A280B380D090D3072091D007309154
:1044A000D107A501421B530BD11409F4C3C0443BEF
:1044B000510508F079C0811541F38091CF07C18083
:1044C000E090D40750E1E51608F059C0C81215C0B5
:1044D0008091CE07871111C0F1104BC08E2D8F70C7
:1044E00080618093D4078EEC97E00E943B1C809102
:1044F000D407F8018683F12C21C0F1103AC040E0C6
:104500006C2D872D0E94C90E40E06C2D872D0E94D6
:10451000C90EF82E8111EFCF888599850E9402116E
:10452000292F22952F70903470F49F702230A0F0C4
:104530009115B1F0F8019681903190F48F2D2D9660
:10454000EEE00C94B1342A5F2F70223068F0C8017D
:104550000E943B1CFD2CF2CF911511F0811571F3D7
:10456000805E883058F3F3CF803F40F3815F833023
:10457000F9CF8091D40781608093D407BCCFC81253
:104580003BC08091CE07871137C0F11035C0E6825D
:10459000C8010E943B1C87E0F801AEECB7E0019037
:1045A0000D928A95E1F771CFE090D407F0E1EF1614
:1045B00050F48EEC97E00E943B1C87E0F4011192CE
:1045C0008A95E9F798CF811509F45FCF9091CF07CD
:1045D000F8018181981310C08091CE0787110CC01B
:1045E000F1100AC0E682C8010E943B1C87E0F4017A
:1045F00011928A95E9F749CFC8010E9411118115DE
:1046000009F448C0F11409F445C08091D407803200
:1046100008F431CF8091CE079091CF079A83898398
:10462000BC82AB826D821E82EF82CE0101960E9417
:104630003B1C21CF443B510508F0BFCF811509F445
:1046400024CFF11439F19091CF078181981318C0CC
:104650008091CE07871114C08091D40780FD9BCF35
:10466000803108F498CF8683807F803F09F490CF13
:104670008681982F907F905F8F70892B868388CF5B
:10468000C8010E9411118111F6CE8091D40781607A
:104690008093D407C8010E943B1CF7CEABE1B0E089
:1046A000E4E5F3E20C949F344E8B5F8B688F798F37
:1046B0008A8F192F9B8F911110928E071D8A86E089
:1046C000FE017696DE011F9601900D928A95E1F724
:1046D0000A8D8091D60782FF1FC00E940D14209181
:1046E000900730919107821B930B8838934138F0E3
:1046F00080918F0782FD03C082E00E9427080E94FC
:104700000D142091920730919307821B930B8838E8
:10471000934110F00E944B08011539F00B8B1C8B54
:1047200061E0CE010F960E94E2100B8B1C8B87E09C
:10473000FE013F96DE01189601900D928A95E1F7F1
:10474000CE0108960E941622811110C02091940774
:104750003091950787E0FE013896DE0111960190B1
:104760000D928A95E1F78C8581110BC017E080913D
:1047700095079091940789132BC06B96E4E00C94F5
:10478000BB34822F90E0019687709927381719065D
:1047900071F40E940516109294071092950787E015
:1047A000EEECF7E0DF011D928A95E9F7DFCF97E0A5
:1047B000929FD0011124AA56B84FFE013196019064
:1047C0000D929A95E1F7809394070E941D08CECF31
:1047D000189FC00111248A56984F0E9416228115F5
:1047E00061F28091950790E00196877099278093F8
:1047F0009507BDCFA6E0B0E0E0E0F4E20C949F3472
:104800000E940D148C0180910A0790910B0780176C
:10481000910779F019821A820E940D14BC01498116
:104820005A8180E090E00E944E2310930B07009382
:104830000A072696E4E00C94BB34A6E0B0E0E3E27D
:10484000F4E20C949F348C01909307078093060741
:10485000011580E21807B0F4C801805E910908973D
:1048600028F060EF75E10115110511F46FED75E1A8
:10487000C8010E943107802F0E94A6142696E4E00A
:104880000C94BB3480EF89838A830E940D1481606D
:10489000BC0149815A8181E091E00E944E23EECF14
:1048A000A6E0B0E0E6E5F4E20C949F348C0190932E
:1048B000070780930607011580E21807B0F4802FE0
:1048C0000E94F314C801805E9109089728F06AEFEE
:1048D00075E10115110511F469EE75E1C8010E9439
:1048E00031072696E4E00C94BB3480EF89838A83F9
:1048F0000E940D148160BC0149815A8181E090E0E1
:104900000E944E23EECFACE0B0E0E9E8F4E20C9474
:104910009234FE01319688E0DF011D928A95E9F715
:1049200087E6E82E81E0F82E8F019BE6692E91E064
:10493000792E2F01AA24A394B12C31E7832E31E0E4
:10494000932EF70181917F018F3F09F43EC0F894C7
:10495000E82FE295EF70F0E021A18F70A50102C071
:10496000440F551F8A95E2F7CA01922F982B91A305
:1049700092A18095892382A3789400C0EBE6F1E0B0
:1049800031E0312C21912F3F79F0A22FA295AF7009
:10499000A05EB0E08C9190E02F7002C09595879555
:1049A0002A95E2F780FF87C080E0382A330F8E1601
:1049B0009F0641F7F70182918F3F11F00E94380A5C
:1049C00050EA5A95F1F7D8013C920F5F1F4F6E14D1
:1049D0007F0409F0B6CF48E050E0B20182E593E0F1
:1049E0000E9461356C01892B41F088E0F201A2E55B
:1049F000B3E001900D928A95E1F700915B0310E01E
:104A00000553194FC114D10409F457C081E08093B4
:104A100081020E940D149093800280937F02809106
:104A20000007811509F4A0C07E01B9E0EB0EF11C6E
:104A300084E0F70111928A95E9F7809182028A3029
:104A400008F05DC046E252E1B701C8010E946C0F58
:104A5000811509F477C047EF51E1B701C8010E9401
:104A60006C0F811509F46EC046E551E1B701C8012C
:104A70000E946C0F811509F465C046E052E1B70150
:104A8000C8010E946C0F811509F45CC0109282026B
:104A900080915A0390E044E050E0B7018553994F6C
:104AA0000E94613521E020937E02892BE9F52C9646
:104AB000E1E10C94AE34832F78CF8091810281158F
:104AC00009F4ADCF80917F02909180020E94281955
:104AD000059708F4A4CF44E050E062E573E0C80114
:104AE0000E946135892B41F084E0E2E5F3E0D801D2
:104AF00001900D928A95E1F71092810290CF8091FA
:104B00007C0290917D020E942819843F914008F018
:104B100099CF80917E02811551F284E0D7011D92D8
:104B20008A95E9F710927E02E0915A03F0E0E5538E
:104B3000F94F89859A85AB85BC8580839183A28353
:104B4000B383B5CF809182028F3F39F40E940D1458
:104B500090937D0280937C02DCCF8F5F80938202F2
:104B60008A3008F495CFF2CFE0905A03F12CF70188
:104B7000E553F94F7F01F80180819181A281B381D2
:104B80008093EB069093EC06A093ED06B093EE06AF
:104B90008BEE96E00E94DB0D8093EA068091EF0693
:104BA0009091F006A091F106B091F206F701808392
:104BB0009183A283B383C090F306D090F406E09073
:104BC000F506F090F6068091780290917902A09116
:104BD0007A02B0917B02C816D906EA06FB06B1F04C
:104BE000C0927802D0927902E0927A02F0927B022F
:104BF0000E94B90CC61AD70AE80AF90AC09202073D
:104C0000D0920307E0920407F092050788E0E7EFEF
:104C1000F6E0A2E8B7E001900D928A95E1F747CF60
:104C2000CDB7DEB7EB970FB6F894DEBF0FBECDBFA2
:104C300085B7806885BF85B7806885BF84B7877F63
:104C400084BF0FB6F894A895809160008861809326
:104C50006000109260000FBE80E890E00FB6F894FC
:104C600080936100909361000FBE86E39AE0909379
:104C70004F0280934E020E94BC0D0E946E0E8091E6
:104C8000E20084608093E20078948091D5068115DB
:104C900099F08091E9001091EC008F701795112721
:104CA0001795182B1092E9008091E80083FD0E946F
:104CB00035161F701093E90082E084BD93E095BD26
:104CC0009AEF97BD80936E0010920207109203072F
:104CD00010920407109205070E943D11811102C035
:104CE0000E945B108091D80080618093D8002AE1F7
:104CF0002A95F1F700C08091D900182F117080FD1E
:104D000004C00E94BC0D1092D506109300071093AA
:104D100001071093050111110E941B3380910501B9
:104D20008091050191E08927880F880F80935B03AC
:104D300094E0981B90935A0384E90E94380A86E60F
:104D40000E94380A87E90E94380A86EC0E94380AD5
:104D50000BE611E0D8018D918D018F3F11F00E947B
:104D6000380AB1E001371B07A9F788E0EBECF6E061
:104D7000DF01282F1D922A95E9F7E2E5F3E0DF0134
:104D80001D928A95E9F780E090E00E949635853E75
:104D90009E4F21F40E943D11811163C065EE7EEFAC
:104DA00080E090E00E94CA3560E082E090E00E94DE
:104DB000AC3581E080938D0761E083E090E00E9454
:104DC000AC3560E074E184E090E00E94CA3560E0B8
:104DD00086E090E00E94AC3560E087E090E00E94C1
:104DE000AC3540E050E0BA0188E090E00E94BE356A
:104DF00060E083E290E00E94AC3560E08CE090E0FF
:104E00000E94AC3560E08DE090E00E94AC351982E4
:104E10001A821B821C821D821E821F82188648E015
:104E200050E067E170E0CE0101960E949C3540E0C1
:104E300050E0BA018FE190E00E94BE3580E00E9410
:104E40003F100E945B1040E050E0BA018FE090E01C
:104E50000E94BE3540E050E0BA0183E190E00E943C
:104E6000BE3582E090E00E948E358093E00384E0BE
:104E700090E00E9496359093D6078093D5070E94C4
:104E80008324EFEFF6E721E0E150F0402040E1F726
:104E900000C000000E948324E091010711E0E12797
:104EA000EE0FEE0FF0E0E553F94F808181FF08C06F
:104EB0006FEF7FEF80E090E00E94CA350E94FD0C0A
:104EC00083E090E00E948E350E9470070E94100CD3
:104ED00010925C0340E150E06FEF70E085E793E0F3
:104EE0000E9477351092B70340E150E06FEF70E019
:104EF00080ED93E00E9477351093810748E050E001
:104F000067E170E082E897E00E947E3510928107A9
:104F1000809182078430B8F485E180938207809184
:104F2000440190914501A09146018093830790939D
:104F30008407A09385078FE7809386078FEF809380
:104F400087070E94B6138091000791E08927880F98
:104F500080931D0680E88093F5030E94A0316BE0EA
:104F600070E085EE9AE00E94C113811579F180917D
:104F70001D0665E070E081FD4FC180EE9AE00E9461
:104F8000C113811519F16DE070E08EEC9AE00E947A
:104F9000C1138115D9F0EDE1F4E080E092E0DF018A
:104FA0009C011D9221503040E1F7F093F403E0930F
:104FB000F3038FEF9FEF9093200680931F0681E00D
:104FC000809323068093FC0310921E0680910007B5
:104FD000811102C00E941E3386E091E090932D075C
:104FE00080932C078091D506853049F48091D506B1
:104FF000853009F414C10E9405160E94480C0E94D5
:105000008324B1EE2B2EB3E03B2EABECB6E0BBAB72
:10501000AAAB29EE33E0F10191918D912E173F0754
:1050200009F463C19817C1F3B0910007BDAB10E05C
:10503000412C512CEAA9FBA9F190FBABEAABD101C1
:105040008D911D018F1509F4DDC08F258CAB4201B8
:1050500000E0EE24E3948CA98E21811509F4C8C0E8
:105060006F2C6E20BDA9B115A1F009831A830E948F
:105070000D149C838B83E1E0ED8391E0611001C00E
:1050800090E09E8349815A816B817C818D810E9451
:105090004E23611439F0F401E758FE4F80818F3FB1
:1050A00009F03FC2712CC72CD12C8091B703870D1A
:1050B0009927991F09976CF1E8E0AE2EB12CAC1836
:1050C000BD08B60168547C4FA50188EB93E00E94AF
:1050D0006E35B60160547C4FA50180EC93E00E94D0
:1050E0006E35A501440F551FB601660F771F60533B
:1050F0007C4F80ED93E00E946E35B60168537C4F83
:10510000A50188EC93E00E946E3588E087198093B2
:10511000B703711429F14091B703F9A98F2F90E0DB
:10512000242F30E0F901E954FC4FDC01AA0FBB1F2A
:10513000A755BE4F5C915183880F991FDC01A7587A
:10514000BE4FD1968C91818759A9518BF901EE0FF1
:10515000FF1FE954FC4F128E118E4F5F4093B7032F
:10516000611409F445C0809182078C7F8C3109F06D
:105170003FC0F401E758FE4F80818F3F09F438C0EB
:10518000C12C60E070E090E09C01220F331FD90138
:10519000A755BE4FBFABAEABF901E655FE4FF9AF19
:1051A000E8AF940129573C4F3BAF2AAFA0E2BA2E9B
:1051B000AB01D12CDA01A758BE4FAC91AF3F61F0E3
:1051C000C112B3C1D012B1C1AAADBBAD2C913B2D60
:1051D000230F08F42FEF2C93D3944F5F5F4FE6E03B
:1051E000DE12E8CFC3946A5F7F4F6033710501F729
:1051F0000F5FEE0CFFEF8F1A9F0A063009F02BCFDE
:10520000F101F2921F5F26E0420E511C183009F0A6
:1052100011CF0E94C50C6DC08BED9AE0B0CE80918D
:10522000D506843009F437C00E94371980912306CF
:10523000811569F08091FC03811549F062E070E00E
:1052400080EF9AE00E94C11381111092FC0310922A
:10525000850348E150E080E40FB6F894A8954093A8
:1052600060000FBE8093600083B7817F846083BF3E
:1052700083B7816083BF7894889583B78E7F83BF1F
:105280000FB6F894A89580916000886180936000C3
:10529000109260000FBE80918603811509F4A6CE9E
:1052A0000E948324EBECF6E083ED96E0219121113E
:1052B00004C08E179F07D1F799CE80E189BD82E1A6
:1052C00089BD09B400FEFDCF8091D8008F7D809309
:1052D000D8008091E00082608093E0008091E0003F
:1052E00081FDFCCF0E94051681CE98139DCE0E94B1
:1052F000FA2380910007811509F4C6C08090480701
:1053000090904907092C000CAA08BB0810911001C5
:10531000212F30E0E8E4F7E081E090E032962817B2
:1053200039070CF070C16091EF037091F003809128
:10533000F1039091F2030E94E70C69A77AA78BA76B
:105340009CA79401A501B7FE04C020E030E040E036
:1053500050E0A0E6BAEE0E9436356B017C0148ECC5
:10536000149F90011124032E000C440B550B89A5AA
:105370009AA5ABA5BCA5280F391F4A1F5B1FA5E046
:10538000B0E00E9436359B01AC01C701B6010E9416
:10539000E83469017A01213F31054105510528F0C2
:1053A00050EFC52ED12CE12CF12C29A53AA54BA507
:1053B0005CA5293C3105410551050CF180917A0726
:1053C00090E0019669E170E00E94D43480937A07FE
:1053D000880F991FFC01E85BF84F11821082183189
:1053E00008F017E11F5F109310010E94B90C609341
:1053F000EF037093F0038093F1039093F20332E094
:1054000083169104A104B1041CF4C12CD12C7601A3
:105410006091EB037091EC038091ED039091EE03AA
:105420000E94E70C6DA77EA78FA798AB8DA59EA5C0
:10543000AFA5B8A985369105A105B10584F00E94F4
:10544000B90C6093EB037093EC038093ED0390939E
:10545000EE038091F6038093EA03C092E903109172
:10546000EA03A091E903A11BBB0B2DA53EA54FA507
:1054700058A90E94413524E630E040E050E00E9407
:105480000A35120F1093F6030E94371980912306F4
:105490008111C5C00E94480C90912406891721F003
:1054A000809324060E94B90C8091D506843009F0BF
:1054B00099CD83E08093E9008091E80082FF92CD4E
:1054C0008091E80090E085FF06C00E948B0D811559
:1054D00009F407C291E08091E8008B778093E8009F
:1054E000911509F47FCD0091080710910907E98112
:1054F0000115110509F412C2EE3F09F034C28A8188
:10550000833020F08550833008F02DC2EA81EE30E0
:1055100008F029C2F0E0EC5DF94CCE0101960C9444
:10552000293589AB77247394BECDB0E0EEA9FFA9ED
:105530002081CD01880F991F87559E4FFC018081E6
:10554000281B330BE8ADF9AD8081AA0FBB1FA7580C
:10555000BE4FD1969C91891B990B229FD001239F0E
:10556000B00DB00D1124889F9001899F300D300D32
:1055700011242A0F3B1F223031058CF4322F28E2F0
:10558000231B08F420E0DA01A957BC4F213108F0B1
:1055900020E13C91320F08F43FEF3C931DCE77247D
:1055A0007A94213EFEE13F074CF4C901F5E096955F
:1055B0008795FA95E1F7A8E07A2E780EAA24A394AD
:1055C000AA2DA70DBB27BB1FCD0195958795889F59
:1055D000D001899FB00DB00D11242A173B0758F454
:1055E00077247A94780E7A1458F73FEF3A0D3932CF
:1055F00008F0F2CDC4CFBFEF8B1709F4EDCDAA248C
:10560000A394A80EF0CF40815181052E000C660BAB
:10561000770B840E951EA61EB71E01967FCE809135
:105620002106909122060E942819C29700F10E943B
:105630000D1490932206809321068DE194E09093BF
:10564000F4038093F30380910007811509F493C05C
:105650008091D7070E945D078350990B029708F04D
:1056600041C00E947D130E948D130E947D13809182
:105670001F0690912006892B09F40CCF80912306F8
:10568000811509F407CF80911E06811103CF809107
:10569000FC0381110BC062E070E086E69BE00E9493
:1056A000C113811519F081E08093FC0320911F063E
:1056B000309120062115310509F4ECCE10E041E0CF
:1056C00050E0812F90E07A01012E02C0EE0CFF1C09
:1056D0000A94E2F7B70162237323672B09F04EC0E7
:1056E0001F5FEFCF0E948D130E947D130E94480C14
:1056F000182F86E09BE00E946F136091F603809163
:105700001101861315C08091FB03803389F487EF64
:1057100093E00E94CE138CEF9AE011FD02C082EF5D
:105720009AE00E946F1380E19BE00E946F139FCF6D
:105730006093110180E38093FB031092FA0370E001
:1057400080E090E03AE0C32ED12CE12CF12CA701AF
:1057500096010E94E834605D6093F903CA01B901C3
:10576000A70196010E94E834605D6093F803205D14
:105770002093F703CCCF86E29BE0D7CF20911D0684
:1057800020FF9CC0912F990F990F990F37E0390F87
:1057900080E023E09093140180931701309315016A
:1057A0002093180124E630E047E050E062E171E028
:1057B00088E70E94D631892B09F06CCE90E2199FC0
:1057C000A001112480911D0680FF84C0EDEFF3E05D
:1057D00080E2DF011D928A95E9F7E5E7F1E0FBAB96
:1057E000EAAB01E711E089E7282E81E0382E97E047
:1057F000A92E99249394AAA9BBA96D91BBABAAAB7E
:10580000F80181918F01840F952F911D9C01235EDA
:105810003B4F2901E62FF0E0E350FC4F20E030E061
:105820007A2C721AB92C022E01C0BB0C0A94EAF72A
:10583000620190E0D6018D916D018B21672D691B6E
:10584000677070E0B82F062E01C0BB0F0A94EAF70C
:105850007195619571096770772701C086956A9582
:10586000EAF78B2B6081682B60839F5F983011F77C
:105870002F5F3F4F31962830310591F6EAA9FBA9F9
:105880002E163F0609F0B7CF04E610E020E230E024
:105890004DEF53E060E488E70E947032892B09F0F5
:1058A000F9CDE094F09480911F06909120068E210E
:1058B0009F219093200680931F06ECCD96958795A7
:1058C00096958795282F912F9295990F90763FE185
:1058D000390F60CF435E5B4F04E610E020E230E01A
:1058E000D9CF00E210E09E012F5F3F4F79018091F8
:1058F000E80085FD0AC08091E8008B778093E8007E
:105900000E948B0D811599F3E5CD8091F100D701AF
:105910008D937D010150104051F7DCCDE43150F4FE
:10592000E11559F0E150E33140F4F0E0EE5CF94C60
:105930000C942935EE3F09F4E9CD8FEF898313C02C
:105940001A8289E08B830FC08A818230A9F083306C
:10595000E1F0813091F70E94B90C0E942F356B83E2
:105960007C838D839E8340E250E0BE016F5F7F4F5A
:1059700082E00E94140F36CB87E290E00E948E35C1
:105980001B821C821D828E83EECF8091D306909164
:10599000D406892B41F388E0EBECF6E0DE011396A8
:1059A00001900D928A95E1F7DECF8A81823029F647
:1059B0006B817C818D819E810E942F3587E290E0F2
:1059C0000E94AC35D0CF4C816B818A810E946B10D4
:1059D0009827892798279E838D83C5CF2D813E8167
:1059E0003227232732274C816B818A810E94BD0F89
:1059F000BACF0E94E40FB7CF8A818134D1F18234CB
:105A000009F0B1CF8D8190E09C01220F331F280F48
:105A1000391F2E3131050CF0A6CF4B815C81DE01A0
:105A20001196FA01EE0FFF1FE40FF51FE75DF94F26
:105A300020E030E02817390708F095CF1396B90118
:105A4000640F751F6633710508F08DCF12966C9147
:105A50001297608313966C911397618314966C91DF
:105A60001497673908F066E962832F5F3F4F3396DA
:105A7000E1CF4B815C8180918207982F9370411513
:105A8000510589F49111109243018C7F8093820714
:105A90008D81809386078E8120E048856F8190E01C
:105AA0000E94910B60CF911102C0109243018C7F34
:105AB00081608093820724EE3CE06CE07DE0F90198
:105AC000329685919491F901A591B4914A175B079B
:105AD00031F02C5F3F4F6217730789F780E060E079
