:100000000C94D3050C94F0050C94F0050C94B72ACD
:100010000C94F0050C94F0050C94F0050C94F0058C
:100020000C94F0050C94F0050C946F1D0C942B1D92
:100030000C9453230C94F0050C94F0050C94F005EB
:100040000C94F0050C94F0050C94F0050C94F0055C
:100050000C94F0050C94481E0C94F0050C94F005DB
:100060000C94F0050C94F0050C94F0050C94F0053C
:100070000C94F0050C94F0050C94F0050C94F0052C
:100080000C94F0050C94F0050C94F0050C94F0051C
:100090000C94F0050C94F0050C94F0050C94F0050C
:1000A0000C94F0050C94F0050C94F0052B2D2D2DDF
:1000B0002D2D2D2B2D2D2D2D2D2D2D2D2D2D2D2D72
:1000C0002B002B2D2D2D2D2D2D2D2D2D2D2D2D2D91
:1000D0002D2D2D2D2D2D2B007C202020202020208B
:1000E000204E614E20202020202020207C007C20DB
:1000F000452051205520492050204D2045204E209C
:1001000054207C007C2020202020207E204650533C
:10011000207E2020202020207C007C20204D204F8D
:1001200020562045204D2045204E205420207C0084
:100130007C2020202020207E20465053207E20201E
:10014000202020207C007C2042415345207C2046FA
:10015000554E4354494F4E5320207C007C20424151
:100160005345207C204E554D42455253202020209F
:100170007C007C2042415345207C205157525459E9
:100180002020202020207C00202020206162636429
:1001900065666768696A6B6C6D6E6F707172737497
:1001A00075767778797A3132333435363738393075
:1001B000524542545F2D3D5B5D5C233B27602C2EF6
:1001C0002F2020202B0014001A0008001500170013
:1001D000E10004001600070009000A00E0001D000D
:1001E0001B00060019000500000000000000E200EE
:1001F00021522C002A00130012000C0018001C00D1
:100200004C0033000F000E000D000B004D003800B5
:100210003700360010001100000000000000E70069
:1002200022522800167C1E001F0020002100220000
:1002300001000100010001000100010001000100B6
:100240000100010001002A00000000000000010080
:1002500001000100010027002600250024002300E2
:10026000010034004F0052005100500001003100E5
:1002700030002F002E002D000000000000000100C3
:10028000035201003A003B003C003D003E003F00AD
:100290000100010046000100010001000100010011
:1002A0000100010001000100000000000000010049
:1002B00001000100450044004300420041004000AD
:1002C00021782978257823782778207822782A7849
:1002D0002678247828782B780000000000000100A0
:1002E000010001002B0014001A000800150017007F
:1002F000E10004001600070009000A00E0001D00EC
:100300001B00060019000500000000000000E200CC
:1003100024522C002A00130012000C0018001C00AC
:100320004C0033000F000E000D000B004D00380094
:100330003700360010001100000000000000E70048
:100340002252280029001E0001001F002000210069
:100350000100010001000100010001000100010095
:100360000100010001002A0000000000000001005F
:1003700001000100270026002500240023002200A0
:100380000100010001000100010001000100010065
:100390000100010001000100000000000000010058
:1003A0000052010000DA0281FFD9F1DB20A4A62E61
:1003B000AF00A0C0D30000A1C8D30000AED580A874
:1003C0001F408D14200000AE20202020202020205F
:1003D0007C0020202043415053207C007C2057503B
:1003E0004D20207C20002B2D2D2D2D2D2D2B2D2D26
:1003F0002D2D2D2D63726B62642D2B0080818283E5
:100400008485868788898A8B8C8D8E8F9091929334
:1004100094A0A1A2A3A4A5A6A7A8A9AAABACADAE7F
:10042000AFB0B1B2B3B4C0C1C2C3C4C5C6C7C8C9F6
:10043000CACBCCCDCECFD0D1D2D3D40000AF000127
:100440000101010101010101020202020202020294
:100450000203030303030303030404040404040466
:10046000050505050506060606060707070707082A
:10047000080808090909090A0A0A0B0B0B0C0C0CDD
:100480000D0D0D0E0E0E0F0F0F1010111111121277
:1004900013131414151516161717181819191A1AF4
:1004A0001B1B1C1D1D1E1E1F202021222223242455
:1004B000252626272829292A2B2C2D2D2E2F303191
:1004C0003232333435363738393A3B3C3D3E3F40A3
:1004D0004142434445464748494A4C4D4E4F50518E
:1004E0005354555658595A5B5D5E5F616264656648
:1004F00068696B6C6D6F7072737577787A7B7D7ECF
:100500008082838587888A8C8E8F91939596989A1E
:100510009C9EA0A2A3A5A7A9ABADAFB1B3B5B7BA36
:10052000BCBEC0C2C4C6C9CBCDCFD1D4D6D8DBDD0A
:10053000DFE2E4E7E9EBEEF0F3F5F8FAFDFF0501A1
:100540000980A101850319012AB700150126B7000A
:10055000950175108100C0050C0901A101850419E0
:10056000012AA002150126A002950175108100C084
:1005700005010906A1018506050719E029E715000F
:1005800025019508750181020507190029EF15005D
:10059000250195F0750181020508190129059505C8
:1005A00075019102950175039101C005010906A12C
:1005B00001050719E029E715002501950875018156
:1005C000029501750881010507190029FF1500260C
:1005D000FF00950675088100050819012905150019
:1005E0002501950575019102950175039101C009D9
:1005F000023B00020100A0FA09040000010301010E
:1006000000092111010001224400070581030800AF
:10061000010904010001030000000921110100018A
:10062000226D000705820320000112010002000074
:1006300000085346010000010102000110035200AE
:1006400061006E004B00650065006200000012034F
:10065000520061006E005300610075006300650088
:100660000000040309040000000000003E5B4F5B33
:100670003E003E6B4F6B3E001C3E7C3E1C00183C17
:100680007E3C18001C577D571C001C5E7F5E1C00C2
:1006900000183C180000FFE7C3E7FF00001824180B
:1006A0000000FFE7DBE7FF0030483A060E0026298E
:1006B00079292600407F05050700407F05253F007A
:1006C0005A3CE73C5A007F3E1C1C0800081C1C3E9C
:1006D0007F0014227F2214005F5F005F5F00060925
:1006E0007F017F00006689956A006060606060003D
:1006F00094A2FFA2940008047E04080010207E202B
:10070000100008082A1C0800081C2A0808001E10EF
:10071000101010000C1E0C1E0C0030383E3830003B
:10072000060E3E0E060000000000000000005F0004
:100730000000000700070000147F147F1400242A23
:100740007F2A1200231308646200364956205000A5
:10075000000807030000001C224100000041221C89
:1007600000002A1C7F1C2A0008083E0808000080A0
:1007700070300000080808080800000060600000F1
:100780002010080402003E5149453E0000427F40CF
:1007900000007249494946002141494D330018146F
:1007A000127F10002745454539003C4A4949310030
:1007B000412111090700364949493600464949296E
:1007C0001E0000001400000000403400000000087B
:1007D00014224100141414141400004122140800BF
:1007E0000201590906003E415D594E007C1211126A
:1007F0007C007F49494936003E41414122007F410A
:1008000041413E007F49494941007F0909090100F2
:100810003E41415173007F0808087F0000417F413D
:1008200000002040413F01007F08142241007F402A
:10083000404040007F021C027F007F0408107F00C0
:100840003E4141413E007F09090906003E415121D8
:100850005E007F09192946002649494932000301F3
:100860007F0103003F4040403F001F2040201F0009
:100870003F4038403F0063140814630003047804C9
:1008800003006159494D4300007F4141410002048A
:1008900008102000004141417F00040201020400D1
:1008A00040404040400000030708000020545478B6
:1008B00040007F28444438003844444428003844E9
:1008C00044287F0038545454180000087E09020060
:1008D0001824241C78007F080404780000447D401C
:1008E00000002040403D00007F10284400000041EF
:1008F0007F4000007C04780478007C0804047800C1
:100900003844444438007C1824241800182424183F
:100910007C007C0804040800485454542400040457
:100920003F4424003C4040207C001C2040201C0010
:100930003C4030403C004428102844004C909090AB
:100940007C004464544C4400000836410000000020
:100950007700000000413608000002010204020096
:100960003C2623263C00000000800400000010000C
:1009700000000008000000080000E018204080800F
:1009800080808080402010F000000000800000087F
:1009900000000080000400000000000000000010C3
:1009A0000000000000000000000000000000000047
:1009B0000000000000000000000000000000000037
:1009C0000000000000000000000000000000000027
:1009D0000000000040A0101048A8A8FE8C00006095
:1009E00030000000E0F0F0F0E0ECEEF7F3702000F3
:1009F0007C7C7C7E007E7E7E7F7F7F000080C0E0EE
:100A00007E5B4F5BFEC00000C000DCD7DEDEDED7C1
:100A1000DC00C0000000000000000000000000003A
:100A2000000000000000000000000000080080003E
:100A3000018000000000800400000041060C08183E
:100A4000101018080C060100000020000000000033
:100A50000000000000004000000000000240000014
:100A60000000000020000001000000000000000065
:100A70000000000000000000000000000000000076
:100A800000000000000000000000000000F88CE002
:100A9000B090100000000101020202FF0F000000F0
:100AA000180E00000F1F3F7F7F7F7F7F3F1E0C00CF
:100AB0001F1F1F3F003F3F3F7F7F7F00307B7F78BE
:100AC00030202030787F3B0003000F7F0F0F0F7F17
:100AD0000F00030000000000000000000000000004
:100AE0000000000000000000001B272E1C3930020F
:100AF00001000000100000000000000008000000DD
:100B000000000200000000000000001000000000D3
:100B100000020000000000100000000000000000C3
:100B200000000000000800000000000000000000BD
:100B300000000000000000000000000000000000B5
:100B400000000000000000000000000000041F1171
:100B50000305010103020206040C087F0100300EA8
:100B60000300000000000000000000000000000082
:100B70000000000000000000000000000000000075
:100B80000000000000000000000000000000000065
:100B90000000000000000000000000000000000055
:100BA00000000000000011241FBECFEFDAE0DEBF1E
:100BB000CDBF12E0A0E0B1E0ECE9FAE502C005909B
:100BC0000D92AC36B107D9F727E0ACE6B2E001C030
:100BD0001D92A735B207E1F70E947A230C94182DD5
:100BE0000C94000090914405937061F081110BC04A
:100BF0009460909344051092410180914305816077
:100C0000809343050895893010F09062F2CF880FE9
:100C1000880F982BEECF482F20913E059091050527
:100C200057E0291302C080E0089530E0529FF001A0
:100C3000539FF00D1124EA5FFA4F8181681306C0BB
:100C40008081481303C085818111EECF2F5F3F4F14
:100C50002770E7CFFC01AC014C5F5F4F8FEF91E352
:100C60002191822728E030E087FF09C0880F89277B
:100C700021503109C9F7E417F50791F70895880F56
:100C8000F7CF90914405937071F080934505609380
:100C90004605473908F046E94093470580914305EA
:100CA0008160809343050895E8EDF0E080818E7FB8
:100CB00080831092E2001092DA001092E100A0EE20
:100CC000B0E08C9181608C9380818F77808319BC98
:100CD000A7EDB0E08C918E7F8C9380818F7E808396
:100CE0001092D50408952091E4003091E50095E636
:100CF000A9012091EC00822F817020FF06C0809115
:100D0000E80080FF06C080E008952091E80022FD01
:100D10001AC08091FB04882389F0853089F0809186
:100D2000EB0085FD0FC02091E4003091E5004217F3
:100D30005307F9F29150E1F684E0089582E00895B6
:100D400083E0089581E008958091FD0487FF13C03A
:100D50008091E80082FF06C08091E8008B77809345
:100D6000E80004C08091FB048111F2CF08958091C6
:100D7000FB048823D9F38091E80080FFF8CF8091AD
:100D8000E8008E77ECCF982F9093E900242F762FF0
:100D900050E0891731F07091EC002091ED005091F6
:100DA000F00021FD07C09F5F973071F78093E90045
:100DB00081E008953091EB003E7F3093EB0030915D
:100DC000ED003D7F3093ED003091EB0031603093CA
:100DD000EB007093EC002093ED005093F000209115
:100DE000EE0027FDE0CF80E00895B0E0A0E0EBEF5B
:100DF000F6E00C94F12BC8EDD0E088818F7E8883DB
:100E0000E7EDF0E080818160808384E082BF81E053
:100E10008093D50488818E7F888302EE10E0F801EC
:100E200010821092DA0081EEC82ED12CF6011082C9
:100E300088818F77888388818068888388818F7D87
:100E4000888319BC1092FB041092FC041092FA04DF
:100E50001092F90490EEE92EF12CF70180818B7F3E
:100E6000808388818160888342E060E080E00E9426
:100E7000C306F60180818E7F8083F80180818160C6
:100E80008083808188608083F70180818E7F80836A
:100E9000888180618883CDB7DEB7E8E00C940D2CA3
:100EA000FC01809103059091040586179707A0F037
:100EB0006115710529F49091E8009E779093E80000
:100EC00090E06115710551F4911108C08091E8001E
:100ED00082FF34C080E00895BC01F2CF8091FB0412
:100EE0008823C1F18530C1F18091E80083FD30C0D5
:100EF0008091E80082FDEACF8091E80080FFE1CF99
:100F00008091F3002091F200382F6115710519F0DE
:100F10002830310558F091E02830310509F090E093
:100F20002091E8002E772093E800CBCF8191809329
:100F3000F100615071092F5F3F4FE7CF8091FB04B3
:100F4000882341F0853041F08091E80083FFBECFD7
:100F500081E0089582E0089583E0089508958091E6
:100F6000D804089587E797E79093010880930008D5
:100F700088E19AE00FB6F894A895809360000FBEC0
:100F800090936000FFCFCF92DF92EF92FF922FB746
:100F9000F894C090CF04D090D004E090D104F090A9
:100FA000D2042FBFA7019601261B370B480B590B04
:100FB000CA01B901FF90EF90DF90CF9008952FB74D
:100FC000F8946091CF047091D0048091D1049091F5
:100FD000D2042FBF089520913D012223C9F0209112
:100FE000D30427FF15C0E62FE695E695E695EE318A
:100FF000D8F4E80FF92FF11D677021E030E001C04F
:10100000220F6A95EAF7209582812823228308958A
:10101000FC01329608962191621303C0DF011197FB
:101020001C92E817F907B9F7089520913D01222392
:10103000C1F02091D30427FF14C0E62FE695E69572
:10104000E695EE31F8F4E80FF92FF11D677021E015
:1010500030E001C0220F6A95EAF78281822B8283F9
:101060000895FC0132962FEF30E04191641751F062
:101070002F3F19F4411101C0232F3F5F3630A9F7EC
:101080002F3F09F40895820F911D27FD9A95FC01C9
:1010900062830895A3E0B0E0E0E5F8E00C94F72B5C
:1010A0002091CC043091CD0428173907A1F09093FA
:1010B000CD048093CC04E091CA04F091CB04309726
:1010C00051F024E029839B838A830680F781E02DF9
:1010D000CE01019609952396E2E00C94132CA3E02F
:1010E000B0E0E5E7F8E00C94F72B2091C8043091CC
:1010F000C90428173907A1F09093C9048093C80444
:10110000E091CA04F091CB04309751F023E0298399
:101110009B838A830680F781E02DCE010196099595
:101120002396E2E00C94132CFA01811101C0FB011B
:1011300009950895109225040895E4E4F5E02481CA
:101140003AE0231B08F420E024838091430581606A
:10115000809343050895E4E4F5E024813AE0230F09
:1011600008F42FEF24838091430581608093430529
:101170000895E4E4F5E0438128E0421B08F440E0F0
:101180008181628190E00E9441060895E4E4F5E0E7
:10119000438128E0420F08F44FEF8181628190E0A3
:1011A0000E9441060895E4E4F5E0628124E1621BB7
:1011B00008F460E08181438190E00E944106089537
:1011C000E4E4F5E0628124E1620F08F46FEF8181CD
:1011D000438190E00E9441060895E4E4F5E08181B6
:1011E000438162818850990B0E9441060895E4E48E
:1011F000F5E0818190E04381628108960E9441067A
:1012000008958091440586958695815009F488E07B
:101210000E94F205089580914405869586958F5F1A
:10122000893008F081E00E94F205089580933C0126
:1012300080914405837080933B010E947F1383E07B
:10124000809341010895E42FF0E0EE0FFF1FE65672
:10125000FE4F61A9621B0895E42FF0E0EE0FFF1F1F
:10126000E653FE4F6081621B0895622F0895E42FBC
:10127000F0E0EE0FFF1FE653FE4F408134EE439F38
:10128000412D1124E82FF0E050E0445E5F4FDA0179
:10129000A21BB1099D01B7FF03C03195219531090A
:1012A00093E0220F331F9A95E1F7AF01421B530BD6
:1012B0009A0157FD20E0582F259F212D1124822FC0
:1012C00008950E9413140895FF920F931F93CF93D4
:1012D000DF93182F062FF42ED0E0C0E02F2D402FE3
:1012E000612FCE010E9461092196C633D105B1F765
:1012F000CDB7DEB7E5E00C94102C4095282F429F27
:10130000412D1124842F0895AF92BF92CF92DF9286
:10131000FF920F931F93CF93DF93362F472FE82F22
:10132000F0E0E25CFB4F71110FC0E4918E2F2E2F85
:101330006E2F722FDF91CF911F910F91FF90DF9051
:10134000CF90BF90AF900895C72FD0E02491F22E98
:10135000022F10E056E0659FC0011124EFEFF0E08E
:10136000BF010E94D32B832F90E0880F991F35E592
:10137000369FD001379FB00D11248A1B9B0B982FED
:10138000990F980F6F01CC1ADD0AC09ED001C19E43
:10139000B00DD09EB00D11248B2F499FA0011124B8
:1013A000452F55276F01C41AD50AC09EA001C19EC2
:1013B000500DD09E500D11245F01A91AB108AC9EAA
:1013C0006001AD9ED00CBC9ED00C1124CD2CDD2430
:1013D000EC19FD09E09FE001E19FD00DF09FD00DD9
:1013E0001124ED2F62307105A1F050F461157105E3
:1013F00009F49ECF6130710581F0EB2F852F98CFD6
:101400006430710569F080F06630710509F490CFA1
:10141000F4CFE22F2B2F8D2F8BCFE22F252F88CFCC
:10142000EB2F822F2D2F84CF2B2F8F2DE52F80CFC9
:1014300080E00895F894E82FE295EF70F0E031A194
:10144000282F2F7081E090E001C0880F2A95EAF7DD
:10145000982F9095932391A392A1892B82A378949E
:1014600008959091D30492FF10C041E0282F247179
:10147000243009F040E031E0282F2871283009F0AD
:1014800030E0431711F02CE0822793FF10C041E0B9
:10149000282F2471243109F040E031E0282F2871F1
:1014A000283109F030E0431711F02CE08227309109
:1014B000D40430FF10C051E0282F2171213009F0F1
:1014C00050E041E0282F2871283009F040E05417FF
:1014D00011F029E0822731FF10C041E0282F21714F
:1014E000213109F040E031E0282F2871283109F03E
:1014F00030E0431711F029E0822794FD877E08959C
:1015000082389105B9F1B0F48133910509F47DC0B9
:1015100048F48932910509F46DC08A32910509F4C5
:101520007BC008958533910509F45FC08933910527
:1015300009F10895833E9105D9F138F4803E910573
:1015400029F1823E910579F10895863E9105D9F100
:10155000873E910509F43EC0843E910541F52091F6
:10156000D40421FF24C08091D30484FD19C087EEE8
:1015700090E008952091D304237009F05AC020917F
:10158000D40423FF14C089E290E008952091D3048D
:1015900020FD38C03091D40430FF09C024FF43C07F
:1015A00090E080E008952091D30422FDF7CF0895C4
:1015B0002091D30422FD3AC03091D40430FD39C0CB
:1015C00024FFF5CFEDCF2091D30423FFF0CF24FDEE
:1015D000E7CFCDCF2091D30423FD2EC03091D4048A
:1015E00031FFEECF84EE90E008952091D30425FFE3
:1015F000DECFC9CF2091D30425FD21C02091D40492
:1016000023FFD5CF89E390E0D2CF2091D30426FFEA
:10161000CECF8AE290E008952091D30426FFC7CF71
:1016200081E390E0089583EE90E0089582EE90E0EB
:10163000089580EE90E0089586EE90E0089585E3A9
:1016400090E00895972F7830B8F46630A8F485308C
:10165000B0F470E026E0929F600D711D1124FB0133
:1016600090E3899FE00DF11D1124EE0FFF1FEC5355
:10167000FE4F85919491089580E090E0089581E077
:10168000FCCF1F93CF93DF930E94800AEC01C1151A
:1016900080E5D807F0F5C11580E4D80708F09CC0B4
:1016A000C03ED10520F5CD3CD10508F082C0C83A36
:1016B000D10578F4C53AD10508F073C0C130D10521
:1016C00019F1209709F1C430D105F0F4D0E0C0E061
:1016D0001BC0C33CD105D0F7C85AD0E0CC0FDD1FEA
:1016E000C85BDE4F0990D881C02DD4640DC0C115F0
:1016F00080E2D80708F0D1C0C11581E0D80708F012
:101700005AC0C83ED10510F7CE01DF91CF911F918D
:101710000895C03682E5D80718F5C03482E5D807A9
:1017200008F06BC0C03282E5D80708F05FC0C11571
:1017300082E5D80708F497C02C2F2695269580E2DD
:10174000289F900111248C2F8370C1E0D0E002C04B
:10175000CC0FDD1F8A95E2F7C22BD32BDD68D4CFE7
:10176000C03A82E5D80760F4C03882E5D80708F4AB
:1017700059C0CF71D0E0DC2FCC27C46FD06AC4CF62
:10178000C03C82E5D80708F462C0C03E82E5D807B5
:1017900008F09CCFDC2FCC27CC27DF71C06FD06A3C
:1017A000B3CFC55AD0E0CB5BDE4FC881D0E0D06468
:1017B000ABCFD065A9CF8D2F0E94310A182FCE0153
:1017C00099270E94800AC12FD0E0DC2FCC27CC279C
:1017D000DF71C82BD92B98CFCE0199270E94800AA0
:1017E000CC27DF70C82BD92BD06A8ECFCF71D0E039
:1017F000DC2FCC27C16FD06A87CF2C2F269526955A
:10180000277080E2289F900111248C2F8370C1E003
:10181000D0E002C0CC0FDD1F8A95E2F7C22BD32B9C
:10182000DC6872CF2C2F26952695277080E2289FA2
:10183000900111248C2F8370C1E0D0E002C0CC0F46
:10184000DD1F8A95E2F7C22BD32BDA685DCF8C2F90
:101850008F710E94310AC82FD0E0DC2FCC27CC2713
:10186000DF71D06251CF8C2F8F710E94310A55E009
:10187000D695C7955A95E1F7CF70D0E0DC2FCC27ED
:10188000282F30E084FF05C044E0220F331F4A9523
:10189000E1F7C22BD32BD06937CF8D2F8F710E94E8
:1018A000310A182FCE0199270E94800AC12FD0E05B
:1018B000DC2FCC27CC27DF71C82BD92BD2CF80953A
:1018C0009091D60498239093D604089580913E0574
:1018D00090910505981301C008958F5F8770FACF26
:1018E000B0E0A0E0E6E7FCE00C94F02B7C01009176
:1018F0006E0310916F038091D7029091D802082B4C
:10190000192BCFE0D0E0CC24C394D12CBC2EC6013F
:101910000C2E02C0880F991F0A94E2F780239123AE
:10192000892B49F4219790F7B12C8B2DCDB7DEB7D9
:10193000E9E00C940C2CB7018C2F0E94220B0E9422
:10194000410B019779F3F1CFCF93DF93EC010E9424
:10195000700CBE010E94220B0E94410BDF91CF91BF
:101960000895983078F5863068F5E82FF0E086E045
:10197000989FE00DF11D11249E2F977083E0F6953E
:10198000E7958A95E1F7EE0FFF1FEE0FFF1FEB566D
:10199000FD4F50E040E080E0219130E0092E02C090
:1019A000369527950A94E2F721703327042E01C05B
:1019B000220F0A94EAF7822B4F5F5F4F44305105A4
:1019C00059F7089580E00895983098F5863088F5A5
:1019D000E82FF0E086E0989FE00DF11D11248E2F96
:1019E000877041E001C0440F8A95EAF783E0F695DD
:1019F000E7958A95E1F7EE0FFF1FEE0FFF1FEB56FD
:101A0000FD4F30E020E070E05191DF011197CB01F4
:101A1000022E02C0969587950A94E2F7817081950F
:101A20008527842385278C932F5F3F4F24303105F2
:101A300059F7089590936F0380936E03089521E002
:101A400030E002C0220F331F8A95E2F720953095CF
:101A500080916E0390916F03822393230E941A0D4D
:101A600008959091B402809589238093B402282F21
:101A7000277069F4891759F09091D40492FF07C038
:101A80008695869586950E941F0D1092B402089542
:101A900021E030E002C0220F331F8A95E2F78091E7
:101AA0006E0390916F03822B932B0E941A0D089561
:101AB0009093D8028093D7020895FC0124812223B9
:101AC000C1F0808191810E94A40C92959F70963004
:101AD00091F058F4925F9F70923058F4803F19F063
:101AE00030F4883E30F481E008959A5FF4CF843F6B
:101AF000D1F380E00895883EB0F3813FD1F7F3CF72
:101B0000292F332740E02115310511F0C90148E0A4
:101B10009C0164E0369527956A95E1F7211531051A
:101B200011F04C5FC9019C01369527953695279594
:101B30002115310511F04E5FC90196958795892BC6
:101B400009F04F5F842F08958F929F92AF92BF92BA
:101B5000CF92DF92EF92FF92CF93C62F9091000128
:101B6000981305C090919202961709F44AC0809389
:101B70000001C0939202C82ED12CF12CE12C1092BE
:101B80009102C701B6012AE030E040E050E00E9437
:101B90003E2C605D603331F0C114D104E104F104E6
:101BA00009F46C2F609390026C2F8AE0C816D10460
:101BB000E104F10490F08AE0882E912CA12CB12C44
:101BC000C701B601A50194010E943E2CCA01B901CA
:101BD000A50194010E943E2C605D60938F0284E613
:101BE000C816D104E104F10450F0C701B60124E69F
:101BF00030E040E050E00E943E2CC0E3C20FC093B2
:101C00008E028EE892E0CF91FF90EF90DF90CF9020
:101C1000BF90AF909F908F900895A6E0B0E0E3E171
:101C2000FEE00C94F62B49835A8349815A8199230B
:101C3000A1F0222391F0CA010E94700C182F682F86
:101C400089819A810E94E40C69817A81812F0E94A6
:101C5000220B2696E3E00C94122CCA010E94B10CD0
:101C6000182FF2CFCF93DF93682F81E06A3019F0FD
:101C70006D3031F480E00E94FF0EDF91CF91089526
:101C8000809155079091560726E0FC01AFE4B7E03C
:101C900001900D922A95E1F7603E08F458C026E0C5
:101CA000FC0111922A95E9F7C0915507D09156078A
:101CB00046E050E0BE018FE497E00E94B02C9E0108
:101CC0002F543540892B41F1C90145E09695879500
:101CD0004A95E1F741E050E0BA0102C0660F771F74
:101CE0008A95E2F7CB0160914D0570914E05862BE8
:101CF000972BB9016B5F7F4FE5E076956795EA9585
:101D0000E1F702C0440F551F6A95E2F7842B952B2B
:101D100090934E0580934D052A5F3F4F40914C05AF
:101D2000642F70E0C9010E94D32B481B463010F489
:101D3000240F311D211572E0370710F030E020E04C
:101D4000215B3A4F309356072093550796CFF6E024
:101D50006F9FB00111246A59794F46E050E00E940C
:101D6000A72CA2CFCF93DF93EC01FE0184918111C8
:101D700003C0DF91CF9108950E94320E2196F5CFD6
:101D800080916E0390916F030E94800D8230D9F094
:101D900038F4882381F0813099F088ED90E00DC00F
:101DA0008330A1F08430C9F784E091E00E94B20E44
:101DB0008EEE90E002C082E791E00E94B20E08959C
:101DC0008CE591E0FACF86E491E0F7CF80E391E0F3
:101DD0000E94B20E8AE191E0F0CF80916E03909163
:101DE0006F030E94800D8350990B029728F482ECB8
:101DF00090E00E94B20E08958CEA90E0FACFCF9363
:101E0000382FE0915507F0915607EF54F540209197
:101E10004C05622F70E0CF010E94D32B281B822F2C
:101E2000332361F066E00E941E2CC82FC15010F4CD
:101E3000CF91089580E20E94320EF8CF9F01280FC3
:101E4000311D2115324018F080E0F0E0E0E08E0F07
:101E50009F2F911D815B9A4F909356078093550752
:101E6000E7CF8091D6049091D602892B80936E02A1
:101E70009091D5029923A1F0892B80936E028091D5
:101E80003D018823E1F18091D30487FF38C08EE1C2
:101E9000E0E7F2E090E08150A0F591111092D502B8
:101EA00040E250E065EB72E08EE692E00E94B02CDA
:101EB000892B21F180E2EEE6F2E0A5EBB2E00190A1
:101EC0000D928A95E1F7E091CA04F091CB04309726
:101ED000A9F080913D01882359F08091D30487FFB8
:101EE00007C080916E0280936F0286E080936E023D
:101EF0000280F381E02D8EE692E00995089586E058
:101F0000C7CF2191222339F29F5FC5CF80913D0138
:101F1000E0E7F2E08823B1F08091D30487FF12C09C
:101F20008EE1DF011D928A95E9F790E080E00E9442
:101F30006F0890E080E00E944A081092D6020E944A
:101F4000310F089586E0EDCFAAE2B0E0EAEAFFE0C3
:101F50000C94F62B8DEF94E02091F100FC0121937D
:101F6000CF01F5E085309F07B9F78091FE048330FB
:101F700009F470C0B8F4813009F447C0823009F424
:101F8000B3C08091E80083FF80C28091FD049091EE
:101F9000FE049A3008F079C2E92FF0E0E65EF24DD7
:101FA0000C947F2C8A3009F48EC08B3009F46FC0FA
:101FB000893039F78091FD04813219F7809101054C
:101FC000909102050297E8F68091E800877F809360
:101FD000E8008091E80082FF38C09091F300809182
:101FE000F200029731F48091F100813011F08630D7
:101FF00021F48091F1008093D8048091E8008B77E0
:102000008093E8000E94A406BCCF8091FD04813A31
:1020100009F0B7CF8091E800877F8093E800809136
:10202000010590910205892B61F460E289ED94E04D
:1020300070E00E9450078091E8008B778093E80061
:10204000A0CF60E090E080E0F3CF8091FB048111AD
:10205000C0CF97CF8091FD04813A09F092CF809153
:10206000010590910205892B09F08BCF8091E80042
:10207000877F8093E8008091E80080FFFCCF80910B
:102080003D018093F1008091E8008E77B9CF809177
:10209000FD04813209F075CF809101059091020510
:1020A000892B09F06ECF8091E800877F8093E8004C
:1020B0000E94A4068091FF0480933D011092D604F3
:1020C0000E94860F5ECF8091FD04813209F059CFC6
:1020D0008091E800877F8093E8000E94A4068091A9
:1020E00000058093D7044DCF8091FD04813A09F01B
:1020F00048CF8091E800877F8093E8008091E800D6
:1021000080FFFCCF8091D704BCCF803899F0823813
:1021100009F0BBC1809101058F70873008F0B5C10F
:102120008093E9008091EB0085FB882780F910926D
:10213000E90006C08091F9049091FA04911182603F
:102140009091E800977F9093E8008093F1001092BF
:10215000F1008091E8008E7794C1882309F482C150
:10216000823009F092C18091FF04811185C1809174
:1021700001058F702FEF280F263008F086C180935D
:10218000E9002091EB0020FF77C1933031F480917A
:10219000EB0080628093EB006FC19091EB00906147
:1021A0009093EB0021E030E001C0220F8A95EAF71E
:1021B0002093EA001092EA008091EB008860EACF59
:1021C000811163C11091FF041F778091E300807833
:1021D000812B8093E3008091E800877F8093E80063
:1021E0000E94A4068091E80080FFFCCF8091E3006C
:1021F00080688093E30082E0111183E08093FB0408
:1022000044C18058823008F040C18091FF04909111
:1022100000058C3D23E09207A1F583E08A838AE2E2
:1022200089834FB7F894DE01139620E03EE051E237
:10223000E32FF0E050935700E49120FF03C0E295B4
:10224000EF703F5FEF708E2F90E0EA30C0F0C796DE
:102250008D939D932F5F243159F74FBF8091E800F4
:10226000877F8093E8006AE270E0CE0101960E94C9
:1022700050078091E8008B778093E80006C1C096F4
:10228000E7CF4091010550910205292F33272330D4
:10229000310509F444C078F52130310509F46FC0E7
:1022A0008BE390E0EFEEF5E02230310509F0EDC070
:1022B0002091E800277F2093E800209103053091CA
:1022C00004058217930708F49C0140E021153105AD
:1022D00009F064C0411162C08091E80082FDC9CF5D
:1022E0008091FB04882329F2853019F28091E8005F
:1022F00083FFF2CFBECF21323105A9F12232310561
:1023000009F0C3C04115510509F443C041305105DE
:1023100009F0BBC08DE690E0EEE3F5E0C9CF992768
:1023200081309105C1F0009759F0029709F0ADC0D6
:10233000ECE3F6E0E4918E2F90E0ECE3F6E007C0EA
:10234000E2E6F6E0E4918E2F90E0E2E6F6E0009718
:1023500009F49BC0ADCFEEE4F6E0E4918E2F90E05F
:10236000EEE4F6E0F4CF4115510571F0413051052E
:1023700009F08BC089E090E0EAE1F6E099CF82E1D4
:1023800090E0EAE2F6E094CF89E090E0E1E0F6E068
:102390008FCF84E490E0EBEAF5E08ACF8091FB04F4
:1023A000882309F466CF853009F463CF8091E80073
:1023B00083FD5FCF8091E80082FD8ECF8091E800A1
:1023C00080FF84CF9091F3008091F20021153105B8
:1023D00019F08830910550F041E0089709F040E08D
:1023E0008091E8008E778093E80070CF449140930D
:1023F000F1003196215031090196E8CF803809F07B
:1024000044C08091E800877F8093E8008091FC04BD
:102410008093F1009ECE811138C01091FF041230DC
:10242000A0F58091E800877F8093E8001093FC047A
:102430000E94A406112311F084E005C08091E300FE
:1024400087FDFACF81E08093FB0442E061EC81E0FC
:102450000E94C30642E261EC82E00E94C3068091C2
:10246000FB0413C08091FF04813079F481E0933044
:1024700009F080E08093FA041092E9008091E8006E
:10248000877F8093E8000E94A4068091E80083FF84
:102490000AC08091E800877F8093E8008091EB007C
:1024A00080628093EB00AA96E3E00C94122C8823C0
:1024B00021F00E945F0C0E94310F0895882339F0AB
:1024C0009091D604982B9093D6040E94310F0895D2
:1024D000882351F19CEF980F913A40F4682F8EE6D3
:1024E00092E00E94EB070E94310F089590E2980F4E
:1024F000983050F4877091E001C0990F8A95EAF7FF
:10250000892F0E945F0CEFCF9BE5980F933028F442
:1025100090E080E00E946F080895885A8B3120F483
:1025200090E080E00E944A080895CF93C82F882346
:10253000D9F18CEF8C0F813AC8F580913D01882349
:1025400011F18091D30487FF1EC0EC2FE695E6952C
:10255000E695F0E0E259FD4F828190E04C2F477004
:1025600021E030E002C0220F331F4A95E2F78223B8
:102570009323892B91F06C2F8EE692E00E94EB075B
:102580000E94310F0AC0E0E7F2E086E792E0219175
:10259000C21789F38E179F07D1F76C2F8EE692E052
:1025A0000E9415080E94310FCF91089580E28C0F90
:1025B000883068F4C77021E030E001C0220FCA956E
:1025C000EAF78091D604822B8093D604EBCFEBE51B
:1025D000EC0FE33040F4F0E0EB5BFE4F808190E0E5
:1025E0000E946F08E1CFC85ACB31F0F6EC2FF0E033
:1025F000EE0FFF1FE85BFE4F808191810E944A0829
:10260000D3CF0F931F93CF93DF93EC01FC01019085
:102610000020E9F78F0101501109C017D10728F0F8
:10262000DF91CF911F910F91089589910E94320EF1
:10263000F4CF0F931F93CF93DF938B01EA01909117
:10264000FB04943061F58093E9008FEF9091E800EE
:10265000815095FD06C095ED9A95F1F70000811126
:10266000F5CF8091E80085FF1AC00E9473068111A2
:1026700011C08091E80085FD06C08091E8008E774A
:102680008093E800F2CFF80181918F018093F100EF
:10269000219779F78091E8008E778093E800DF91A9
:1026A000CF911F910F91089543E050E0BC0182E06B
:1026B0000E9419130895CF93DF93EC0180913D019F
:1026C000811111C048E050E0BE0181E00E94191361
:1026D00080E2FE01A9EDB4E001900D928A95E1F748
:1026E000DF91CF9108958091D30487FF05C040E228
:1026F00082E050E0BE01EACF48E081E0FACF80916D
:102700002504882341F1539A3BB1377F2BB12860D0
:102710004FB7F89486E294E0FC015191CF0168E054
:102720002BB9000000C057FF3BB9550F000000C097
:1027300000C000C03BB900C06A9591F7F4E0883C46
:102740009F0751F74FBF8FE594E00197F1F700C065
:102750000000109225040895B0E0A0E0E2EBF3E160
:102760000C94EF2B7C015B016A018091100301E066
:1027700010E08A3010F40AE010E0C1E0D0E0B501CA
:10278000C701F6010995811104C021960C171D0798
:102790002CF4CDB7DEB7EAE00C940B2CCC9F900163
:1027A000CD9F300D300D112490E080E045E34A9537
:1027B000F1F70000019682179307C1F7E0CF8091EF
:1027C000E502811110C08091D80080618093D8000B
:1027D0008AE18A95F1F700C08091D90080FF0AC094
:1027E00081E08093E50281E09091E502913009F06B
:1027F00080E0089582E08093E5020E9454061092E2
:10280000FB04F1CF0E94DF13882359F0E091CA0442
:10281000F091CB04309729F00190F081E02D0995DB
:10282000089580E00895FF920F931F93CF93DF9355
:10283000EC01F62E042F122F0E94DF13811123C00A
:10284000CB31D1051CF16B97FE01EE0FFF1FDF01AD
:10285000AC0FBD1FAA5DBB4F11968C9111978F11C4
:1028600007C08C91801304C012968C91811771F06F
:1028700081E080932504EC0FFD1FEA5DFB4FF182A0
:102880000083128303C0CB31D105F4F2CDB7DEB79C
:10289000E5E00C94102CCF93C82F0E94DF138823FF
:1028A00029F081E0CB3128F080E003C081E0C6331D
:1028B000D8F7CF910895EF92FF920F931F93CF9384
:1028C000DF937C01C0913E018BE0C89FC02D112495
:1028D0001BE01C0F173308F016E30E94DF13882358
:1028E00019F01C3108F01BE10E94DF13811103C0B5
:1028F000CB3108F4CBE1309148053695369521E08F
:10290000320F08F43FEF40913F055091400590E0B1
:1029100080E0439F812D539F800D911D1124082F2E
:10292000D0E0C11740F0812F0E944B14CDB7DEB725
:10293000E6E00C940F2CFE01EA5CFD4F8081909143
:102940003F01892391F06091450570914605809182
:102950004705202F4C2FF70109950E948409462F27
:10296000282F672FCE010E9461092196DACF0F939D
:102970001F930E94DF13882329F00E94DF071F9115
:102980000F9108950E94DF07009111031091120327
:102990002091130330911403600F711F821F931F46
:1029A000EECF1092D6040E94860F2FEF84E39CE0B6
:1029B000215080409040E1F700C0000088E19AE09B
:1029C0000FB6F894A895809360000FBE90936000B6
:1029D000FFCFB0E0A0E0EFEEF4E10C94F12B6C013E
:1029E0007B0164E670E088E70E9431298C01E601F2
:1029F000EC0CFD1C17FD0BC0FE01849164E670E039
:102A00000E949D298C012196CE15DF0599F70E9421
:102A1000132A81E00115110509F080E0CDB7DEB77A
:102A2000E8E00C940D2CE4E4F5E085E180838091EE
:102A3000420190914301A091440181839283A38339
:102A40008FE784838FEF858348E050E068E170E092
:102A5000CF010E94E42C1092430508959091D40474
:102A600092FB222720F9281779F080FB92F99093A6
:102A7000D4046091D3047091D40484E090E00E9467
:102A8000122D82E00E94310D0895B0E0A0E0EBE449
:102A9000F5E10C94EF2B8C01FC018481882309F46F
:102AA0008AC021E0408151816281738195810E94B9
:102AB0000D0E9C01F8016581662309F473C3AC0116
:102AC0005A9599274115FFE45F0738F090E080E0C0
:102AD0002F3F310509F008F4C901FC013497B49780
:102AE00018F08B970E9780F4E0913603F0E0EE0F2C
:102AF000FF1FE55CFC4F808191818F3F7FE7970747
:102B000019F001969183808380E2809333013093A2
:102B1000710320937003C90190528115904278F09F
:102B2000C90190548115904108F04AC0F80186818E
:102B3000807F51F441155F4108F04CC005C0F80199
:102B40008681807F09F40EC3F901FF27ED33F1057B
:102B500008F02CC3E857FE4FE491E0933301F801ED
:102B60008181809373038081809372032631FCE717
:102B70003F0709F0F7C28091D6048A7A91E009F400
:102B800090E09093930269E2811165E38EE692E012
:102B90000E9415080E94310F8091B402877059F08D
:102BA000F8018581882339F08091D40482FF03C025
:102BB00082E00E94310DCDB7DEB7EAE00C940B2C19
:102BC00041155F4108F4C0CFC901805A92458097F2
:102BD00008F4FCC2F901BACF8091440591E089273D
:102BE0008093440510924101809143058160809358
:102BF0004305D2CF41E059E06BE079E00E949408B0
:102C0000CBCF4BE059E061E079E0F8CF4DEE58E0F2
:102C100067EF78E0F3CF47EF58E06DEE78E0EECF66
:102C200043ED58E060EE78E0E9CF40EE58E063ED28
:102C300078E0E4CF49EB58E066EC78E0DFCF46EC93
:102C400058E069EB78E0DACF4DE958E06BEA78E0DC
:102C5000D5CF4BEA58E06DE978E0D0CF81E00E9413
:102C6000F2059ACF82E0FBCF85E0F9CF1092D6042F
:102C70000E94860F2FEF34E37CE0215030407040FB
:102C8000E1F700C000000E94B2076FEF7FEF90E015
:102C900080E00E94122D0E94D1148091D40482FB06
:102CA000882780F991E089270E942E15F8018581F7
:102CB000C081D181882309F44AC0CE010E94700CE2
:102CC000F82E682FCE010E94E40CBE018F2D0E94C9
:102CD000220B0E94410BD82FC92FA82EF801C580C6
:102CE000B680B2943FE0B3228091B4028770F1F0D5
:102CF000EC2CCC20E1F0892F807F803451F080E2F1
:102D00008D0F883098F0B11004C0892F807E8032FA
:102D100069F08091D40482FF09C082E00E94310DE5
:102D20008091B4028770EE24E3948111E12CDC2EB3
:102D3000D2942FE0D222FBE0FD1508F46DC0ED2DFA
:102D4000F0E0EC5DF24D0C947F2C80E0ADCFCE0135
:102D50000E94B10CF82EB9CF2C2F2F70F22EC07F0D
:102D600019F0F29490EFF922CC20B9F0FF2069F02D
:102D700080E28D0F883010F0A11009C08091D60438
:102D8000F82AF092D6040E94310F8D2F43C0809113
:102D9000D602F82AF092D602F6CF8D2F0E94681242
:102DA000FF20D1F1D05ED83010F0A11004C08F2DDB
:102DB0000E945F0C06C0F0948091D602F822F09237
:102DC000D6020E94310F28C03C2F3F70F32EC07FE7
:102DD000C03219F0F29480EFF822AA2059F071E085
:102DE000A71609F478C0CC2009F484C0BB2009F4EC
:102DF00046C0CBCF8091D40482FD3DC0CC20A9F148
:102E0000FF2039F08091D604F82AF092D6040E946F
:102E1000310F80E00E949512ED2DE850FF0B3497A2
:102E200010F40E940214EE20A9F08091B40280FDFB
:102E300011C0F80115828695869586950E94480DE9
:102E4000C8010E9445158091B402869586958695A5
:102E50000E941F0D20E0F801408151816281738141
:102E6000848195810E940D0EA6CE80E00E9468129A
:102E7000FF2091F29CCFCC20A1F0B11004C08F2D87
:102E80000E945E12C9CF81E0B812C6CF8091D502F0
:102E90009F2D9823F91609F4BFCFF82AF092D50296
:102EA000BBCFB110B9CF8F2D0E9457129091D50290
:102EB0008F2D892329F08F2D809589238093D5022A
:102EC000809194029F2D982309F4A6CFF094F822C4
:102ED000F0929402A1CFCC2029F095E09B1508F444
:102EE0009BCFCDCFE4E0EB1508F496CF8F2D0E9459
:102EF000571292CFBB20D1F3F9E3AF122CC12FEFC1
:102F000037EE73E0215030407040E1F700C0000020
:102F100022C18C2F86958695837069F0813009F0E7
:102F20007BCF8D2F9C2F9370C11002C080E090E06A
:102F30000E944A0871CF8D2F9C2F9370C11002C040
:102F400080E090E00E946F0867CF8C2F837009F0BB
:102F50003FC0C11061CF4D2F429546954770440F39
:102F6000440F2D2F2F7030E0042E02C0220F331F8C
:102F70000A94E2F790E080E0D4FF09C08FE090E08F
:102F800002C0880F991F4A95E2F780959095C695E3
:102F9000C695C370C23099F078F44091D702509131
:102FA000D802C13039F0822B932B842395230E94C1
:102FB000580D32CF242B352B822B932BF8CF822B1D
:102FC000932B2091D7023091D80282279327EFCFFD
:102FD0008695CC2011F08C2F8170882309F41CCFAA
:102FE0004D2F429546954770440F440F2D2F2F705B
:102FF00030E0042E02C0220F331F0A94E2F790E063
:1030000080E0D4FF09C08FE090E002C0880F991FD4
:103010004A95E2F780959095C695C695C370C230E3
:1030200099F078F440916E0350916F03C13039F0FC
:10303000822B932B842395230E941A0DEDCE242BF3
:10304000352B822B932BF8CF822B932B20916E0361
:1030500030916F0382279327EFCFCF70CC2029F0D8
:103060008C2F0E94480D8D2F0BCF8D2F0E94571251
:103070008C2F0E941F0DD0CE8D2F92EFA91699F1A3
:103080009A1570F0E0EFAE16D1F0F1EFAF1691F0B7
:10309000CC2009F45BC0B11078CE8C2F8F7127C083
:1030A00023EFA21639F134EFA312F2CF8091D404AA
:1030B00082FD2EC08C2F8F71CC20D9F218C0CC206D
:1030C00069F074E07B1508F4A7CECF7181E090E041
:1030D00002C0880F991FCA95E2F7B8CF85E08B151B
:1030E00008F49ACEF2CF8C2F8F71C110C2CF0E94FC
:1030F000480D92CE90E080E0CC2009F49DCFCF71B6
:1031000081E090E002C0880F991FCA95E2F794CF42
:10311000CC2089F0CF718C2F0E94480D8091D4046F
:1031200082FF07C0E8E0CE9FC00111248360809336
:10313000B4028C2FDCCF81E00E94310DF1E0FB1551
:1031400008F06ACE82E00E94310D66CEBB2039F0D5
:10315000893309F4D4CE8D2F0E9468125DCE8C2F56
:103160008F7187CF23307CE7370709F48ECD50F479
:1031700021159CE7390709F479CD21303C4709F442
:103180008ACD94CD2B35FCE73F0709F4DECD2C35F5
:103190007CE7370709F481CD2A353C4709F086CD15
:1031A00081E082CD86319C47C1F406C02631FCE720
:1031B0003F07C1F66111DFCC8091930269E2811172
:1031C00065E38EE692E00E94EB07E4CC26317CE7D3
:1031D000370709F4D0CC6111C5CF8091D604827233
:1031E000F901E052F847E531F10508F05FCDE05D07
:1031F000F24D0C947F2CCF93DF938091B302807FAC
:1032000009F04DC08091B202882309F448C0E091D2
:103210003E0550910505C091AE02D091AD0260917E
:10322000AF027091B00247E05E17C9F18E2F90E0B7
:10323000E49FF0011124EA5FFA4F2481222391F1E7
:10324000489FF001499FF00D1124DF01AA5FBA4F9A
:1032500011962C9111972C1325C02C912D1322C05F
:1032600015962C91159721111DC012962D913C9108
:10327000261B370B283C3105A8F48091B3028F70D0
:1032800080618093B302E45FFA4F80818F70806128
:1032900080838DEA92E00E9445150E94660CDF91C2
:1032A000CF910895FC013196E770BECFA4E1B0E064
:1032B000ECE5F9E10C94ED2B8C0186E0F801DE01E0
:1032C0001F9601900D928A95E1F7F8018481E580BF
:1032D0009DEAA92E92E0B92E9091B102911128C0D9
:1032E000882319F1EE20F1F0C8010E945D0DF82E3F
:1032F0008823C1F087E0F801D50101900D928A95ED
:10330000E1F78091B102813031F48091AD0290916A
:10331000AE020E94A40C0E94FB188F2D6496ECE074
:103320000C94092CC8010E944515FF24F394F5CF95
:10333000D080C18082809380F090B2022091AF0251
:103340003091B002A401421B530BFF2009F4D9C0F5
:10335000483C510508F092C08823F9F29091AE02E2
:103360008091B302282F207F09F056C0C91214C0E3
:103370009091AD02D91210C0E11048C08F708061E9
:103380008093B3028DEA92E00E9445158091B302CA
:10339000F8018683F12CC1CFE11038C06C2D8D2D42
:1033A0000E940B066C2D8D2D0E940B06E82E8111BC
:1033B000F1CFDF86C88A8F8598890E94A40C292FB7
:1033C00022952F70243058F49F70223088F0992372
:1033D00099F0F8019681907F79F4FE2C9ECF2A5FB8
:1033E0002F70223068F0C8010E944515EF2CF5CFF0
:1033F000992311F0882389F3805E883070F3F3CF2E
:10340000803F58F3815F833070F7E7CF8091B3023C
:1034100081608093B302BECFC91207C09091AD0204
:10342000D91203C0EE2009F48DC0C8010E945D0DC1
:10343000882309F477CFEE2009F474CF8091B3028A
:10344000803288F02091AD023091AE023987288712
:103450009B868A869091B1029C871D868E87CE01BD
:1034600008960E94451587E0F801ADEAB2E00190A8
:103470000D928A95E1F70E94FB1857CF9091B30205
:10348000292F207F51F48DEA92E00E94451587E0B4
:10349000F50111928A95E9F77DCF882309F43DCF94
:1034A0008091AE028C1110C08091AD02D8120CC078
:1034B000E1100AC09683C8010E94451587E0F50116
:1034C00011928A95E9F729CFC8010E945D0D8823E2
:1034D00009F428CFEE2009F425CF8091B302803281
:1034E00010F22091AD023091AE023A8329839C8282
:1034F0008B829091B1029D831E828F83CE010196B3
:10350000B0CF483C5105D0F6882309F40ECFFE2CED
:10351000EE2009F407CF8091AE028C1120C080917B
:10352000AD02D8121CC08091B30280FD0FC0982F4D
:10353000907F61F08683903F31F0982F907F905F6D
:103540008F70892B8683C8010E94451587E0F8019A
:10355000ADEAB2E001900D928A95E1F7DECEC801A6
:103560000E945D0D81117FCF8091B30281608093B5
:10357000B302C8010E944515D0CEABE1B0E0E3EC48
:10358000FAE10C94F52B4E8B5F8B688F798F8A8FC5
:103590009B8F192F91111092D6021D8A86E0FE0191
:1035A0007696DE011F9601900D928A95E1F70A8DBD
:1035B000002341F021E04F85588969897A89C80143
:1035C0000E940D0E0B8B1C8B87E0FE013F96DE01E7
:1035D000189601900D928A95E1F7CE0108960E9407
:1035E000561981110CC087E0FE013896DE01119654
:1035F00001900D928A95E1F78C8581110BC017E03F
:1036000080913E0590910505891333C06B96E4E0E7
:103610000C94112C2091050530E0C90101968770AA
:10362000992740913E054817190699F097E0929F17
:10363000D001939FB00D1124AA5FBA4FFE013196BD
:1036400001900D929A95E1F7809305050E94660C12
:10365000D6CF1092D6040E94860F109205051092C4
:103660003E0587E0EDEAF2E0DF011D928A95E9F779
:10367000C6CF819FC00111248A5F9A4F0E945619BC
:10368000882321F280913E0590E00196877099276A
:1036900080933E05B5CFA4E0B0E0E1E5FBE10C94FA
:1036A000F62B609108037091090380910A039091B1
:1036B0000B030E94C30711E0643671058105910573
:1036C00070F10E94B7146E5F7F4F8F4F9F4F6983D9
:1036D0007A838B839C8380911A0190911B018E5079
:1036E0009D4F4091190150E04530510510F044E0E4
:1036F00050E0BE016F5F7F4F0E94BD2C83E090E0E1
:103700000E945D2B182F882351F00E94DF076093E1
:1037100008037093090380930A0390930B03812F8E
:103720002496E3E00C94122CEF92FF921F93CF9318
:10373000DF9300D000D00F92CDB7DEB77B0190E0D1
:1037400080E00E945D2B182F882309F47AC04091F5
:10375000040150E04115510511F041E050E0609145
:103760000501709106016E507D4FCE0105960E94B5
:10377000BD2C6091EA027091EB028091EC02909175
:10378000ED020E94C307643671058105910540F47E
:1037900083EF92E00E942A069D81891709F451C0A7
:1037A00081E090E00E945D2B81111AC010E08091B1
:1037B000E6029091E702A091E802B091E902F701D8
:1037C00080839183A283B383812F0F900F900F90FA
:1037D0000F900F90DF91CF911F91FF90EF90089580
:1037E00040910C0150E04530510510F044E050E0AC
:1037F00060910D0170910E016E507D4FCE010196CA
:103800000E94BD2C83EF92E00E942A069D818913BD
:10381000CDCF0E94DF076093EA027093EB028093A2
:10382000EC029093ED0289819A81AB81BC818093F7
:10383000E6029093E702A093E802B093E90211E058
:10384000B6CF8091F3029091F402A091F502B0916D
:10385000F60289839A83AB83BC831111E4CFA7CF8F
:10386000B0E0A0E0E6E3FCE10C94F12BC82F7B0173
:10387000D42F6901FB0160817181828193810E9453
:10388000C307643671058105910510F4DD2359F1F4
:103890000C2E000CDD0BFE0183E0EE0FFF1F8A955E
:1038A000E1F7EF5FFE4F818192818E509D4F408105
:1038B00050E00417150708F4A801B6010E94BD2CBA
:1038C000CE010E945D2BC82F882339F00E94DF07AC
:1038D000F70160837183828393838C2FCDB7DEB72A
:1038E000E8E00C940D2CC1E0F8CFA9E0B0E0EBE7E4
:1038F000FCE10C94F52B88E0E4E4F5E0DE011196A0
:1039000001900D928A95E1F780912404898749E01E
:1039100050E06FEF72E0CE0101960E94B02C41E0C2
:10392000892B09F440E009E010E09E012F5F3F4F32
:103930006CE073E084E00E94301C2996E4E00C9473
:10394000112C0F931F93CF93DF93EC0144E050E0D1
:1039500067EF72E00E94B02C41E0892B09F440E04F
:1039600004E010E09E016EEE72E082E00E94301CE6
:10397000DF91CF911F910F910895A8E0B0E0E3ECA3
:10398000FCE10C94F72B66EE7EEF90E080E00E9465
:10399000122D60E082E090E00E94F42C60E083E071
:1039A00090E00E94F42C1092D8021092D70260E0AE
:1039B00074E184E090E00E94122D60E086E090E0E7
:1039C0000E94F42C6FEF87E090E00E94F42C40E01E
:1039D00050E0BA0188E090E00E94062D60E084E2A9
:1039E00090E00E94F42C60E087E190E00E94F42CCB
:1039F00060E08CE090E00E94F42C60E08DE090E0CC
:103A00000E94F42C19821A821B821C821D821E8243
:103A10001F82188648E050E068E170E0CE01019610
:103A20000E94E42C40E050E0BA0180E290E00E9465
:103A3000062D40E050E0BA018FE090E00E94062D94
:103A400040E050E0BA0183E190E00E94062D289604
:103A5000E2E00C94132C1F920F920FB60F921124D8
:103A60002F933F934F935F936F937F938F939F9386
:103A7000AF93BF93CF93DF93EF93FF93D091E90080
:103A8000DF708091EC00C82FC17080FDC0E81092FB
:103A9000E9008091F000877F8093F00078940E9485
:103AA000A40F1092E9008091F00088608093F000EC
:103AB000CD2BCF70C093E900FF91EF91DF91CF91B3
:103AC000BF91AF919F918F917F916F915F914F9136
:103AD0003F912F910F900FBE0F901F9018951F923E
:103AE0000F920FB60F9211242F933F934F935F9332
:103AF0006F937F938F939F93AF93BF93EF93FF93B6
:103B00008091E10082FF09C08091E20082FF05C040
:103B10008091E1008B7F8093E1008091DA0080FF4B
:103B200024C08091D80080FF20C08091DA008E7F71
:103B30008093DA008091D90080FF9DC080E189BD2B
:103B400082E189BD09B400FEFDCF81E08093FB04D2
:103B50008091D504811109C00E9454060E94F50687
:103B60008091E20084608093E2008091E10080FF18
:103B700017C08091E20080FF13C08091E2008E7F29
:103B80008093E2008091E20080618093E200809166
:103B9000D80080628093D80019BC85E08093FB0434
:103BA0008091E10084FF2BC08091E20084FF27C058
:103BB00080E189BD82E189BD89B5982F917080FF30
:103BC000FBCF8091D8008F7D8093D8008091E10059
:103BD0008F7E8093E1008091E2008F7E8093E200EF
:103BE0008091E20081608093E2008091FC04882350
:103BF00009F447C084E08093FB048091FB0480912A
:103C0000E10083FF27C08091E20083FF23C0809101
:103C1000E100877F8093E10082E08093FB041092B3
:103C2000FC048091E1008E7F8093E1008091E200AE
:103C30008E7F8093E2008091E20080618093E200B9
:103C400042E060E080E00E94C3068091F00088605E
:103C50008093F000FF91EF91BF91AF919F918F9171
:103C60007F916F915F914F913F912F910F900FBE78
:103C70000F901F90189519BC1092FB041092D50458
:103C800074CF8091E30087FD93E09093FB04B5CF60
:103C900078941F921FB61F9211248F939F93AF9316
:103CA000BF938091CF049091D004A091D104B091A2
:103CB000D2040196A11DB11D8093CF049093D0042E
:103CC000A093D104B093D204BF91AF919F918F91F3
:103CD0001F901FBE1F9018959C014FB7F8948091BC
:103CE000CF049091D004A091D104B091D2044FBFE1
:103CF000821B930B08952FB7F8948091CF04909175
:103D0000D004A091D104B091D2042FBF0895B0E0A7
:103D1000A0E0EDE8FEE10C94EC2BC82F80913C0173
:103D20008C1323C090914405937020913B0130E0A7
:103D300081E09217130609F480E0817080934001BE
:103D40008091490590913F01981739F080933F0188
:103D500040E060E080E00E946409C93090F4EC2FFC
:103D6000F0E0EB5BF24D0C947F2C81E0E6CF80918C
:103D70004001882309F4B6C040E060E080E00E9482
:103D8000640980E0AFC000913E018BE0089F002DE8
:103D90001124DBE0D00FD73308F0D6E30E94DF1305
:103DA000882319F0DC3108F0DBE10E94DF13811178
:103DB00003C00B3108F40BE1609145057091460595
:103DC000809147050E948409F62EE72ED82E10E038
:103DD0000D1720F08D2F0E944B1484C0F801EA5C6F
:103DE000FD4F808190913F01892331F02D2D4F2D82
:103DF0006E2DC8010E9461090F5F1F4FE9CF00912E
:103E00003E018BE0089F002D1124DBE0D00FD7335B
:103E100008F0D6E30E94DF13882319F0DC3108F0A4
:103E2000DBE10E94DF13811103C00B3108F40BE1C9
:103E3000609145057091460540914705E0913F0529
:103E4000F09140058091480586958695869530E0ED
:103E500020E0E89F212DF89F200D311D1124922F85
:103E600096FD2095322F3F7096FD3F5F2695269553
:103E700026952670E22FF0E0EE56FE4F8181839F5B
:103E8000802D312D112482958F703295307F832BB8
:103E90002081820F97FD819587FD8195880F282FBE
:103EA000249F212D1124822F0E948409F62EE72EB3
:103EB000D82E10E00D1708F08DCFF801EA5CFD4F09
:103EC000808190913F01892331F02D2D4F2D6E2D52
:103ED000C8010E9461090F5F1F4FECCF87E399E093
:103EE0000E945B1490913E019F5F90933E0181116F
:103EF0000CC082E08093410180914001811105C096
:103F0000C11103C083E080934101CDB7DEB7EDE07E
:103F10000C94082C85E399E0E3CF8CE299E0E0CFA4
:103F200083E299E0DDCFE0903E018BE0E89EE02C5B
:103F30001124DBE0DE0DD73308F0D6E30E94DF1357
:103F4000882319F0DC3108F0DBE10E94DF138111D6
:103F500005C03BE1E31610F46BE1E62E80914001D1
:103F6000882361F040E060E080E00E946409EEE9AF
:103F7000F3E080E3DF011D928A95E9F780913E012D
:103F8000811115C080919C0390919D030E946C1E2D
:103F900021E08931910508F420E020939B034997A3
:103FA00030F00E947B1E90939D0380939C03A12C74
:103FB000912CB12C46E0742E5AEA852E01C0B12C0A
:103FC0002B2D30E07A9C80011124F801E656FE4F3B
:103FD000E20FF31FC080CE1408F440C0CD1608F0E5
:103FE0003DC09394D12CF601EA5CFD4F8081909105
:103FF0003F01892309F432C002561C4F020F131FE0
:10400000F801F0803F2D25E5321B08F430E0709177
:104010004605282D4F2D240F08F42FEF409147051A
:10402000822F880F820F8E5F282F249F212D11242D
:10403000822F682D631B0E948409462F282F672F2B
:10404000C6010E94610980919B03882339F02F2DBE
:1040500031E0231B08F420E0D8012C93B394B6E0A0
:10406000BB12AECFA394E8E0AE1609F4B3CEFAE0EB
:10407000F91508F0A4CFAECE00913E018BE0089F69
:10408000002D1124DBE0D00FD73308F0D6E30E94D7
:10409000DF13882319F0DC3108F0DBE10E94DF1325
:1040A000811103C00B3108F40BE12091480531E088
:1040B000230F08F42FEF30E050E040E06FEF7FEF88
:1040C00080E090E00E94602C790110E0BB24B39462
:1040D000D12CC12C202F0D1708F07CCEF801EA5C02
:1040E000FD4F808190913F01892331F18091F70349
:1040F0008150082E000C990B87FF21C0B701309129
:1041000048052B2D320F08F43FEFA601639F412D88
:10411000739F400D511D1124609145057091460516
:10412000809147050E947D090E948409462F282F0F
:10413000672FC8010E9461090F5F1F4FCBCFFC01A1
:10414000E950FC4F318932130AC0FC01EE0FFF1F0A
:10415000E950FC4F618D728D6E157F0580F20197DD
:10416000CBCF4F925F926F927F928F929F92AF923E
:10417000BF92CF92DF92EF92FF92CF938090200474
:1041800090902104A0902204B09023040E94DF1399
:10419000882309F44CC0C501B4010E94C3076B0118
:1041A0007C010E94B7144B015C0180922004909224
:1041B0002104A0922204B0922304A091CE03EEEC3D
:1041C000F3E08A2F90E04FEF5FEF60E070E04C1972
:1041D0005D096E097F09A91333C08093CE038091D6
:1041E0002404C0E0811108C080914405C82FC37029
:1041F00019F0C82FC695C69580914101813009F408
:1042000049C0882381F1823009F44FC0833009F41A
:1042100050C0CF91FF90EF90DF90CF90BF90AF90C4
:104220009F908F907F906F905F904F9008950E9425
:10423000B7146B017C01C818D908EA08FB08B1CF94
:10424000218D328D2901712C612C4415550566058F
:10425000770520F481509F5F3296BDCF2C0D3D1D18
:10426000328F218FF8CF10923E0180923F059092BD
:104270004005A0924105B092420589E2EEECF3E0E0
:10428000A7EFB3E001900D928A95E1F781E080936A
:104290004101BFCF8C2F0E94871ECC2309F4B9CFD8
:1042A0000E94DF130E94DF13B4CF8C2F0E941609E7
:1042B000B0CF80914305882351F048E050E068E199
:1042C00070E084E495E00E94E42C10924305C090D5
:1042D0003F05D0904005E0904105F09042050E94D6
:1042E000DF13882369F0C701B6010E94C30760315C
:1042F00071058105910508F48CCF1092410189CF99
:104300000E94B7146C197D098E099F09F0CFACE0AB
:10431000B0E0EDE8F1E20C94EC2B8E010F5F1F4F43
:1043200088E0D8011D928A95E9F780E8C82E81E0DF
:10433000D82EF12CE12CAA24A394B12C2AE8822EA9
:1043400021E0922EF60181916F018F3F09F442C066
:10435000F894E82FE295EF70F0E021A18F70A501AD
:1043600002C0440F551F8A95E2F7CA01922F982B7D
:1043700091A392A18095892382A3789400C0E4E858
:10438000F1E0712C31E021912F3F09F46BC0A22F95
:10439000A295AF70B0E090968C9190E02F7002C023
:1043A000959587952A95E2F780FD5CC0832F782A42
:1043B000330F8E169F0639F7F601319780818F3FB4
:1043C00011F00E941A0A50EA5A95F1F7F801EE0D21
:1043D000FF1D70828FEFE81AF80AA4E0EA16F104D4
:1043E00009F0B0CF48E050E0B80185E193E00E94C9
:1043F000B02C009741F028E0F801A5E1B3E001906E
:104400000D922A95E1F700911E03892B69F181E055
:104410008093DD020E947B1E9093DC028093DB027E
:104420008091DB029091DC020E946C1E059700F1E6
:1044300010E0015E1C4F44E050E065E173E0C8010C
:104440000E94B02CB12C892B51F084E0E5E1F3E01F
:10445000D80101900D928A95E1F7BB24B394109294
:10446000DD0207C080E0A3CF8091DD028111D8CFAB
:10447000B12C0E94DF13A82EE0911E03882309F4BB
:1044800089C019861A861B861C860E2F10E0015ED5
:104490001C4F809110038A3008F046C044E95BE16C
:1044A000BE01675F7F4FC8010E94AC13882309F4E7
:1044B00060C041EA5CE1BE01675F7F4FC8010E94B6
:1044C000AC13882309F455C04BE45BE1BE01675F80
:1044D0007F4FC8010E94AC13882309F44AC045E706
:1044E0005CE1BE01675F7F4FC8010E94AC13882367
:1044F00009F43FC01092100380911D0390E044E046
:1045000050E0BE01675F7F4F815E9C4F0E94B02CE0
:1045100021E02093E402892BF1F4A12C8A2D8B2930
:104520002C96EDE00C94082C8091DE029091DF0235
:104530000E946C1E843F914008F0B0CF8091E4024D
:10454000882359F3FE01399684E0DF011D928A9594
:10455000E9F71092E402E0911D03F0E0E15EFC4F08
:1045600089859A85AB85BC8580839183A283B3833B
:10457000D5CF809110038F3F31F08F5F8093100370
:104580008A3008F4B9CF0E947B1E9093DF0280939B
:10459000DE02D4CF00911D0310E0015E1C4FF0E05D
:1045A000E15EFC4F84E0A3EFB2E001900D928A95AA
:1045B000E1F783EF92E00E942A068093F20284E002
:1045C000E7EFF2E0D80101900D928A95E1F7C090F3
:1045D000FB02D090FC02E090FD02F090FE02809180
:1045E000E0029091E102A091E202B091E302C816CC
:1045F000D906EA06FB06D1F0C092E002D092E102B1
:10460000E092E202F092E3020E94DF1381110EC0F9
:104610000E94DF07C61AD70AE80AF90AC0921103F6
:10462000D0921203E0921303F092140388E0EFEFAC
:10463000F2E0A4E4B5E001900D928A95E1F71091C3
:104640000703112349F080912404811105C00E94C1
:10465000871E80E00E941609109324045FCFA6E015
:10466000B0E0E5E3F3E20C94F52B0E947B1E8C0195
:104670008091D9029091DA028017910781F0198216
:104680001A820E947B1E682F49815A81792F80E00F
:1046900090E00E94BD1A1093DA020093D902269688
:1046A000E4E00C94112C1F921FB61F9211248F93DB
:1046B0009F93AF93BF938091CE04811113C08091DB
:1046C000CF049091D004A091D104B091D20441962E
:1046D000A11DB11D8093CF049093D004A093D10469
:1046E000B093D204BF91AF919F918F911F901FBE45
:1046F0001F901895CDB7DEB72F970FB6F894DEBF91
:104700000FBECDBF85B7806885BF85B7806885BF80
:1047100084B7877F84BF0FB6F894A8958091600016
:10472000886180936000109260000FBE80E890E086
:104730000FB6F89480936100909361000FBE88E1FA
:104740009AE090936D0280936C020E9454060E943E
:10475000F5068091E20084608093E2007894809175
:10476000FB048823A1F01091E9001F709091EC00E8
:10477000892F817090FD80E8182B1092E9008091BC
:10478000E80083FD0E94A40F1F701093E90082E0EF
:1047900084BD93E095BD9AEF97BD80936E00109213
:1047A00011031092120310921303109214030E942B
:1047B000DF13809329010E94DF1381110E94712A67
:1047C000809129018091290194E0811190E09093DA
:1047D0001E0384E0891B80931D0384E90E941A0A4A
:1047E00086E60E941A0A87E90E941A0A86EC0E944D
:1047F0001A0A04E811E08AE8E82E81E0F82ED801D0
:104800008D918D018F3F11F00E941A0AE016F1067A
:10481000B1F788E0EFE1F3E0DF01282F1D922A9540
:10482000E9F7E5E1F3E0DF011D928A95E9F790E011
:1048300080E00E94DE2C863E9E4F11F00E94BD1C3F
:1048400082E090E00E94D62C8093270384E090E0E1
:104850000E94DE2C9093D4048093D3040E9487217D
:10486000EFEFF6E721E0E150F0402040E1F700C033
:1048700000000E9487210E94DF13E4E08111E0E044
:10488000F0E0E15EFC4F808181FF08C06FEF7FEFB9
:1048900090E080E00E94122D0E94B20783E090E039
:1048A0000E94D62C90E00E94580D0E949A08109207
:1048B000F7038FEF9FEF9093110480931004909370
:1048C000130480931204909315048093140490931E
:1048D00017048093160490931904809318049093FE
:1048E0001B0480931A0490931D0480931C049093DE
:1048F0001F0480931E041092CE039093E8038093CC
:10490000E7039093EA038093E9039093EC03809389
:10491000EB039093EE038093ED039093F003809369
:10492000EF039093F2038093F1039093F403809349
:10493000F3039093F6038093F50390E080E00E94E8
:10494000DE2C863E9E4F21F00E94BD1C0E94131556
:1049500081E08093430548E050E068E170E084E442
:1049600095E00E94C62C10924305809144058C7FEF
:1049700011F40E9413150E94DF1312E0811110E060
:104980000E94DF13811101C012E01093950380E8AB
:1049900080934C050E942B296BE070E08BEB93E039
:1049A0000E94E914882379F18091950365E070E015
:1049B00081FDD7C086EB93E00E94E914882319F1AA
:1049C0006DE070E084EA93E00E94E9148823D9F056
:1049D000EFE4F5E080E092E0DF019C011D922150C0
:1049E0003040E1F7F0935607E09355078FEF9FEFC4
:1049F00090934E0580934D0581E0809399038093B9
:104A00007403109296030E94DF13811102C00E946A
:104A1000742A8AE291E09093CB048093CA04809137
:104A2000FB0410E4F12E00E112E1853009F4F2C03C
:104A30000E94872188E293E098878F83AFE1B3E0FB
:104A4000BA87A987FC0191918D9123E0E033F207A9
:104A500009F4EEC09817B9F30E94DF13782E512C99
:104A6000412CF12CA985BA85BD90BA87A987EF8121
:104A7000F8858191F887EF838B1509F40EC28B2599
:104A80008B876201E12CAA24A3948B858A2109F4E7
:104A9000F8C12B2C2A207720A1F0E982FA820E940B
:104AA0007B1E9C838B83F1E0FD8391E0211001C08C
:104AB00090E09E8349815A816B817C818D810E9427
:104AC000BD1A222039F0F601E656FE4F80818F3F55
:104AD00009F079C1312C032D10E08091CE03800FB5
:104AE000912F911D09976CF1F8E08F2E912C801A6F
:104AF000910AB80161537C4FA4018FEC93E00E94AE
:104B0000BD2CB80169527C4FA40187ED93E00E944F
:104B1000BD2CA401440F551FB801660F771F6951C2
:104B20007C4F87EE93E00E94BD2CB80161527C4F10
:104B3000A4018FED93E00E94BD2C88E0831980933F
:104B4000CE038091CE0390E0A62DB0E09D01220F10
:104B5000331F26533E4FAA0FBB1FBD0165537E4F27
:104B60004AC181EB93E028CF8091FB04843009F4A3
:104B700042C00E94B12080912404811105C00E948E
:104B8000871E80E00E94160931E030932404809152
:104B90009903882369F080917403882349F062E0C7
:104BA00070E086EC93E00E94E91481111092740386
:104BB0001092CE0448E150E00FB6F894A8954093C7
:104BC00060000FBEF092600083B7817F846083BF76
:104BD00083B7816083BF7894889583B78E7F83BFC6
:104BE0000FB6F894A895809160008861809360006A
:104BF000109260000FBE8091FA04882359F00E9441
:104C00008721EFE1F3E0819181110DC353E0E73299
:104C1000F507C9F78091FB04853009F4A5CF109200
:104C2000D6040E94860F0E9402141092240400CF22
:104C3000981312CF0E942F230E94DF13882309F4B8
:104C4000B0C0C0903B03D0903C030D2C000CEE088C
:104C5000FF0810913201212F30E0EBE3F3E081E017
:104C600090E03296281739070CF08CC16091370319
:104C7000709138038091390390913A030E94C307E1
:104C80004B015C0189EC88169104A104B10414F174
:104C90008091360390E0019669E170E00E942A2C31
:104CA00080933603880F991FFC01E55CFC4F11824D
:104CB0001082812F183108F087E18F5F80933201D5
:104CC0000E94DF07609337037093380380933903A2
:104CD00090933A0392E0C916D104E104F1040CF474
:104CE0005DC1A0E6BAEEA70196010E94852C6B017A
:104CF0007C01A8EC1A9F90011124032E000C440B98
:104D0000550B280D391D4A1D5B1DA5E0B0E00E9422
:104D1000852C9B01AC01C701B6010E943E2C6901A4
:104D20007A01B1EFCB16D104E104F1042CF050EF7D
:104D3000C52ED12CE12CF12C6091320370913303FC
:104D400080913403909135030E94C3074B015C01AD
:104D5000E5E68E169104A104B10484F00E94DF07F9
:104D6000609332037093330380933403909335033D
:104D700080916D0380933103C09230031091310311
:104D8000A0913003A11BBB0BA50194010E94902CA4
:104D900024E630E040E050E00E94602C210F209398
:104DA0006D030E94B120809199038111FBC00E9484
:104DB000021490919A03891709F431CE80939A03D3
:104DC0000E94DF072CCE682E3324339484CE90E0EB
:104DD000FC01E253FC4FD9015C915183DB015C91F2
:104DE0005187618A880F991FFC01E253FC4F128E94
:104DF000118E91E0842F41E0480F931540F380938A
:104E0000CE03222009F43DC0809144058C7F8C3173
:104E1000C1F5F601E656FE4F80818F3F91F170E0BB
:104E200060E0B0E090E09C01220F331FF901E653EF
:104E3000FE4FFD87EC8725533E4F3F872E87A60107
:104E400042565C4F1A0110E2AB01A0E0FA01E656AF
:104E5000FE4FE081EF3F51F0FB1229C0AE1127C099
:104E6000F1012081210F08F42FEF2083AF5F4F5F06
:104E70005F4FA63059F7BF5F6A5F7F4F60337105A0
:104E800019F7E394AA0C2FEFC21AD20A36E0E31204
:104E9000FCCDEF81F8853197B082F39446E0440E63
:104EA000511C58E0F512DECD0E94B714C5CE8E2EEF
:104EB000912CEC85FD852081C401880F991F8653B4
:104EC0009E4FFC018081281B330BEE85FF8580817E
:104ED000F401EE0FFF1FE656FE4F91A9891B990BB7
:104EE000229FF001239FF00DF00D1124889F900167
:104EF000899F300D300D11242E0F3F1F022F2230BD
:104F000031054CF199249A94213EFEE13F074CF47F
:104F1000C901F5E096958795FA95E1F708E0902E9E
:104F2000980E01E0E02FE90DFF27FF1FCF019595B7
:104F30008795889FF001899FF00DF00D11242E17A1
:104F40003F07C8F499249A94980E901658F7015088
:104F5000093208F08BCF28E2201B08F420E0FA0188
:104F6000E256FC4F213108F020E13081320F08F485
:104F70003FEF30837BCFFFEF8F1709F477CF01E04E
:104F8000080FE3CF40815181052E000C660B770B93
:104F9000C40ED51EE61EF71E019663CEC12CD12C81
:104FA0007601CACE80919703909198030E946C1E5F
:104FB000C29710F10E947B1E9093980380939703F1
:104FC0008FE495E090935607809355070E94DF1376
:104FD000882309F46AC080916E0390916F030E9448
:104FE000800D8350990B029708F040C00E94ED0E8F
:104FF0000E94C00E0E94ED0E80914D0590914E05CD
:10500000892B09F4D4CE80919903882309F4CFCE5B
:10501000809196038111CBCE8091740381110BC0D6
:1050200062E070E08CE394E00E94E914882319F0B8
:10503000F1E0F093740320914D0530914E05211558
:10504000310509F4B4CE80E041E050E0082F10E0D3
:105050007A01082E02C0EE0CFF1C0A94E2F7B70199
:1050600062237323672B21F58F5FF0CF0E94C00E60
:105070000E94ED0E0E940214182F8CED93E00E9406
:10508000B20E60E380916D030E94A40D0E94011393
:1050900088EC93E011FF02C082ED93E00E94B20E13
:1050A00086EE93E00E94B20EA7CF8CEF93E0FACF8A
:1050B0009091950390FF9EC0880F880F880F809372
:1050C000360110923901895F8093370183E0809324
:1050D0003A0124E630E047E050E064E371E088E71D
:1050E0000E94CB29892B09F062CEA80125E0440F4C
:1050F000551F2A95E1F78091950380FF8DC0E5E764
:10510000F3E080E2DF011D928A95E9F7EEE8F1E035
:10511000F887EF830AE811E082E9282E81E0382E33
:1051200097E0A92E99249394AF81B8852D91B887E3
:10513000AF83F80141908F01440E552E511CC201DE
:10514000815B9A4F2C01E22FF0E0EB58FC4F30E0EE
:1051500020E07A2C721AB92C022E01C0BB0C0A94E2
:10516000EAF7620190E0D6018D916D018B21672DE8
:10517000691B6770862E062E000C770BB82F01C0B6
:10518000BB0F8A94EAF78B2E719561957109677050
:10519000772701C086956A95EAF7882A8081882A50
:1051A00080829F5F9830F9F62F5F3F4F319628300D
:1051B000310579F6EF81F8852E163F0609F0B4CF58
:1051C00004E610E020E230E045E753E060E488E7E1
:1051D0000E94EC29892B09F0EACDE094F0948091AB
:1051E0004D0590914E05E822F922F0924E05E0928D
:1051F0004D05DDCD8295880F80768093360198012C
:10520000369527953695279520933901815E8093B1
:10521000370120933A015DCF415B5A4F04E610E01D
:1052200020E230E0D3CF09BD19BD09B400FEFDCFA7
:105230008091D8008F7D8093D8008091E0008260BB
:105240008093E0008091E00081FDFCCF1092D604B5
:105250000E94860FDFCC1092B9008CE08093B800DA
:105260000895B0E0A0E0E7E3F9E20C94EE2BB82E4D
:10527000EB010E947B1E6C01EE24E394F12CC431FF
:10528000D10560F025E0E22EF12CCF3FDC0731F0B4
:10529000CE0164E170E00E94D32B7B0184EAA82E4A
:1052A00094E8992E1092BC00A092BC000E947B1E34
:1052B0008C018091BC0087FF0DC08091B900887F70
:1052C0008830F9F08091B900887F8031D1F00FEFFC
:1052D0001FEF08C0C8010E946C1EE816F90648F7C7
:1052E0000EEF1FEFCF3FDC07E9F2C6010E946C1EF4
:1052F000C817D907B8F6C801CDB7DEB7EBE00C94F4
:105300000A2CB092BB009092BC000E947B1E8C01C4
:105310008091BC0087FF0AC08091B900887F8831E6
:1053200011F08034A1F610E000E0E5CFC8010E9442
:105330006C1EE816F90660F7D3CF0F931F93CF9337
:10534000DF93EB018093BB0084E88093BC000E9454
:105350007B1E8C018091BC0087FF11C02091B90099
:10536000287F81E090E0283211F490E080E0919570
:1053700081959109DF91CF911F910F910895CF3FB2
:10538000DC0741F3C8010E946C1EC817D90710F74B
:105390008EEF9FEFEFCFB0E0A0E0E1EDF9E20C94EB
:1053A000F12B6B018A017901B9010E943129E601D3
:1053B0000C0D1D1DC017D10711F097FF08C024E97F
:1053C0002093BC00CDB7DEB7E8E00C940D2CB701FC
:1053D00089910E949D29EECFB0E0A0E0E2EFF9E2D2
:1053E0000C94F12BC62F6A017901B8010E94312972
:1053F00097FD0CC0B8018C2F0E949D29E601EC0C92
:10540000FD1CCE15DF0511F097FF08C024E920939D
:10541000BC00CDB7DEB7E8E00C940D2CB801899143
:105420000E949D29EECF84E98093BC0008958EE10F
:105430004A9B02C08150E1F74A9BFECF08955A98DB
:1054400080E28A95F1F75A9A0895FC013BE03A957B
:10545000F1F798E020E080E031E040E14A95F1F793
:10546000880F4A9B02C08160232742E04A95F1F7EA
:10547000000040E14A95F1F7915079F790E19A9553
:10548000F1F799B132E03A95F1F7000040E14A9521
:10549000F1F792FB992790F992272081920F908340
:1054A0000895A1E0B0E0E7E5FAE20C94F32B19824D
:1054B0008C017C01E60EF11C0E151F0541F481E004
:1054C0009981911180E02196E6E00C940F2C0E94C6
:1054D000172ACE0101960E94252AF80181938F0197
:1054E000EBCF529A5A9A089552985A9AEA9AE9E654
:1054F000F0E080818F7C808308956150770B91E08C
:1055000001C0990F6A95EAF720E031E0911108C0D7
:10551000222391F05A9A80E28A95F1F75A980895D9
:10552000492F482339F05A9A232740E24A95F1F748
:105530009695ECCF5A98F9CF5A98EDCFFF920F93EA
:105540001F93CF93DF93EC018C01060F111DC01741
:10555000D10729F4CDB7DEB7E5E00C94102CF99013
:105560000E941F2A68E08F2D0E947D2AF0CF1F9293
:105570000F920FB60F9211240F931F932F933F9307
:105580004F935F936F937F938F939F93AF93BF934B
:10559000EF93FF93CF93DF930F92CDB7DEB71982CE
:1055A0000E94172ACE0101960E94252A082F0695EF
:1055B00006950695282F22952570902F9570290F16
:1055C000922F937026952695920F98279770898130
:1055D000982B09F05CC0063008F059C080E18A952C
:1055E000F1F75A9A529A82E08A95F1F700C05A98D8
:1055F00088E0089F80011124D801AF5FBE4F169646
:10560000ED91FC9117973097A9F060917E01709110
:105610007F0114962D913C911597260F371F1196F7
:105620008D919C911297680F791F13964C91139747
:105630008C910995F801EF5FFE4F6381662351F06D
:1056400020917E0130917F0184819581820F931F8B
:105650000E949E2A0E941F2A80E18A95F1F75A989B
:1056600052985A9A80E18A95F1F7F801EF5FFE4F60
:105670006081662351F020917E0130917F0181810C
:105680009281820F931F0E94512A0E94172A0F9025
:10569000DF91CF91FF91EF91BF91AF919F918F914A
:1056A0007F916F915F914F913F912F911F910F913A
:1056B0000F900FBE0F901F9018950F931F93CF93CD
:1056C000DF93EC0106970CF04CC0F894529A5A986C
:1056D00085E08A95F1F700009C2F969595708C2FA8
:1056E0008570980F892F83709695969523E0CC0F3F
:1056F000DD1F2A95E1F7980F8E01092B0E941F2AC2
:1057000000C068E0802F0E947D2A80E18A95F1F731
:1057100052985A9A4A9B1EC087E090E04A991CC052
:10572000FE01EF5FFE4F63816623F9F020917E0159
:1057300030917F0184819581820F931F0E94512AAD
:10574000811113C0529A5A9A7894DF91CF911F9188
:105750000F91089500C0DECF019729F4529A5A9A0A
:10576000789480E0F2CF00C0D9CF0E94172A80E25F
:105770008A95F1F75A98529A80E18A95F1F7CF5FAE
:10578000DE4F6881662351F020917E0130917F01C8
:1057900089819A81820F931F0E949E2A0E941F2A4C
:1057A000789481E0D2CFAA1BBB1B51E107C0AA1F8E
:1057B000BB1FA617B70710F0A61BB70B881F991FB2
:1057C0005A95A9F780959095BC01CD0108952F9227
:1057D0003F924F925F926F927F928F929F92AF9281
:1057E000BF92CF92DF92EF92FF920F931F93CF93CE
:1057F000DF93CDB7DEB7CA1BDB0B0FB6F894DEBF65
:105800000FBECDBF09942A88398848885F846E848A
:105810007D848C849B84AA84B984C884DF80EE80D4
:10582000FD800C811B81AA81B981CE0FD11D0FB6DD
:10583000F894DEBF0FBECDBFED010895991B79E04E
:1058400004C0991F961708F0961B881F7A95C9F710
:105850008095089597FB072E16F4009407D077FDE6
:1058600009D00E94D32B07FC05D03EF4909581957A
:105870009F4F0895709561957F4F0895A1E21A2E6C
:10588000AA1BBB1BFD010DC0AA1FBB1FEE1FFF1FE4
:10589000A217B307E407F50720F0A21BB30BE40B34
:1058A000F50B661F771F881F991F1A9469F760957B
:1058B0007095809590959B01AC01BD01CF01089535
:1058C000052E97FB1EF400940E94772C57FD07D0FD
:1058D0000E943E2C07FC03D04EF40C94772C50957C
:1058E0004095309521953F4F4F4F5F4F08959095CC
:1058F0008095709561957F4F8F4F9F4F0895EE0F64
:10590000FF1F0590F491E02D09940E94982CA59F0B
:10591000900DB49F900DA49F800D911D11240895AA
:10592000B7FF0C94852C0E94852C821B930B089545
:10593000A29FB001B39FC001A39F700D811D1124D0
:10594000911DB29F700D811D1124911D0895FB01C1
:10595000DC0102C005900D9241505040D8F70895E7
:10596000FB01DC0104C08D910190801921F44150AC
:105970005040C8F7881B990B0895FB01DC0102C059
:1059800001900D9241505040D8F70895DC01CB01B1
:10599000FC01F999FECF06C0F2BDE1BDF89A31963F
:1059A00000B40D9241505040B8F70895F999FECFD8
:1059B00092BD81BDF89A992780B50895A8E1B0E01D
:1059C00042E050E00C94C82CDC01A40FB51F4150FC
:1059D000504048F0CB01840F951F2E910E94F52C6A
:1059E00041505040D0F70895262FF999FECF92BD2F
:1059F00081BDF89A019700B4021639F01FBA20BD94
:105A00000FB6F894FA9AF99A0FBE08950396272FC5
:105A10000E94F52C0E94F42C252F0E94F52C242F97
:105A20000C94F52C0196272F0E94F52C0C94F42C45
:105A3000F894FFCF8510AD104512AD104512E0105F
:105A400001114512FE110B12AC16AC16E416E41649
:105A500089170C170C170C17A5172D183C183C1894
:105A6000EC15FA15011606160B16101615161A1651
:105A70001F16241629162E1632163416CC15CC15E0
:105A8000CC15CC15CC15CC15CC15B71EC31EFF1EDE
:0C5A90006E1F8A1F8D1F901F931F3C206B
:105A9C00FF000000010000000000000004010000F5
:105AAC0000040500000000000004090000000000D4
:105ABC0000090D00000000000001AF075B13AE07EA
:105ACC00541301200021007F220003FFFF0100FF7F
